{
	"contracts/PatentBots.sol": {
		"PatentBot": {
			"abi": [
				{
					"inputs": [
						{
							"internalType": "uint256",
							"name": "_patentId",
							"type": "uint256"
						},
						{
							"internalType": "uint256",
							"name": "_royaltyPercentage",
							"type": "uint256"
						},
						{
							"internalType": "address",
							"name": "_licensee",
							"type": "address"
						}
					],
					"name": "addLicense",
					"outputs": [],
					"stateMutability": "nonpayable",
					"type": "function"
				},
				{
					"inputs": [
						{
							"internalType": "string",
							"name": "_patentName",
							"type": "string"
						},
						{
							"internalType": "uint256",
							"name": "_baseValue",
							"type": "uint256"
						}
					],
					"name": "addPatent",
					"outputs": [],
					"stateMutability": "nonpayable",
					"type": "function"
				},
				{
					"inputs": [
						{
							"internalType": "uint256",
							"name": "_patentId",
							"type": "uint256"
						}
					],
					"name": "calculatePatentValue",
					"outputs": [
						{
							"internalType": "uint256",
							"name": "",
							"type": "uint256"
						}
					],
					"stateMutability": "view",
					"type": "function"
				},
				{
					"inputs": [
						{
							"internalType": "uint256",
							"name": "",
							"type": "uint256"
						},
						{
							"internalType": "uint256",
							"name": "",
							"type": "uint256"
						}
					],
					"name": "commercializationActivities",
					"outputs": [
						{
							"internalType": "string",
							"name": "activityName",
							"type": "string"
						},
						{
							"internalType": "string",
							"name": "description",
							"type": "string"
						},
						{
							"internalType": "uint256",
							"name": "impact",
							"type": "uint256"
						}
					],
					"stateMutability": "view",
					"type": "function"
				},
				{
					"inputs": [],
					"name": "licenseCount",
					"outputs": [
						{
							"internalType": "uint256",
							"name": "",
							"type": "uint256"
						}
					],
					"stateMutability": "view",
					"type": "function"
				},
				{
					"inputs": [
						{
							"internalType": "uint256",
							"name": "",
							"type": "uint256"
						}
					],
					"name": "licenses",
					"outputs": [
						{
							"internalType": "uint256",
							"name": "licenseId",
							"type": "uint256"
						},
						{
							"internalType": "address",
							"name": "licensee",
							"type": "address"
						},
						{
							"internalType": "uint256",
							"name": "royaltyPercentage",
							"type": "uint256"
						},
						{
							"internalType": "uint256",
							"name": "royaltiesPaid",
							"type": "uint256"
						}
					],
					"stateMutability": "view",
					"type": "function"
				},
				{
					"inputs": [
						{
							"internalType": "uint256",
							"name": "_patentId",
							"type": "uint256"
						},
						{
							"internalType": "string",
							"name": "_activityName",
							"type": "string"
						},
						{
							"internalType": "string",
							"name": "_description",
							"type": "string"
						},
						{
							"internalType": "uint256",
							"name": "_impact",
							"type": "uint256"
						}
					],
					"name": "logActivity",
					"outputs": [],
					"stateMutability": "nonpayable",
					"type": "function"
				},
				{
					"inputs": [],
					"name": "patentCount",
					"outputs": [
						{
							"internalType": "uint256",
							"name": "",
							"type": "uint256"
						}
					],
					"stateMutability": "view",
					"type": "function"
				},
				{
					"inputs": [
						{
							"internalType": "uint256",
							"name": "",
							"type": "uint256"
						}
					],
					"name": "patents",
					"outputs": [
						{
							"internalType": "uint256",
							"name": "patentId",
							"type": "uint256"
						},
						{
							"internalType": "string",
							"name": "patentName",
							"type": "string"
						},
						{
							"internalType": "address",
							"name": "owner",
							"type": "address"
						},
						{
							"internalType": "uint256",
							"name": "baseValue",
							"type": "uint256"
						}
					],
					"stateMutability": "view",
					"type": "function"
				},
				{
					"inputs": [
						{
							"internalType": "uint256",
							"name": "_licenseId",
							"type": "uint256"
						},
						{
							"internalType": "uint256",
							"name": "_amount",
							"type": "uint256"
						}
					],
					"name": "payRoyalties",
					"outputs": [],
					"stateMutability": "payable",
					"type": "function"
				}
			],
			"devdoc": {
				"kind": "dev",
				"methods": {},
				"version": 1
			},
			"evm": {
				"assembly": "    /* \"contracts/PatentBots.sol\":60:2651  contract PatentBot {... */\n  mstore(0x40, 0x80)\n    /* \"contracts/PatentBots.sol\":952:953  0 */\n  0x00\n    /* \"contracts/PatentBots.sol\":923:953  uint256 public patentCount = 0 */\n  0x03\n  sstore\n    /* \"contracts/PatentBots.sol\":990:991  0 */\n  0x00\n    /* \"contracts/PatentBots.sol\":960:991  uint256 public licenseCount = 0 */\n  0x04\n  sstore\n    /* \"contracts/PatentBots.sol\":60:2651  contract PatentBot {... */\n  callvalue\n  dup1\n  iszero\n  tag_1\n  jumpi\n  0x00\n  dup1\n  revert\ntag_1:\n  pop\n  dataSize(sub_0)\n  dup1\n  dataOffset(sub_0)\n  0x00\n  codecopy\n  0x00\n  return\nstop\n\nsub_0: assembly {\n        /* \"contracts/PatentBots.sol\":60:2651  contract PatentBot {... */\n      mstore(0x40, 0x80)\n      jumpi(tag_1, lt(calldatasize, 0x04))\n      shr(0xe0, calldataload(0x00))\n      dup1\n      0xa5fe8a4d\n      gt\n      tag_12\n      jumpi\n      dup1\n      0xa5fe8a4d\n      eq\n      tag_7\n      jumpi\n      dup1\n      0xb084c841\n      eq\n      tag_8\n      jumpi\n      dup1\n      0xc19cb3aa\n      eq\n      tag_9\n      jumpi\n      dup1\n      0xcbe8da8d\n      eq\n      tag_10\n      jumpi\n      dup1\n      0xf422bc68\n      eq\n      tag_11\n      jumpi\n      jump(tag_1)\n    tag_12:\n      dup1\n      0x16924dea\n      eq\n      tag_2\n      jumpi\n      dup1\n      0x1a5b9ed4\n      eq\n      tag_3\n      jumpi\n      dup1\n      0x2fbccc27\n      eq\n      tag_4\n      jumpi\n      dup1\n      0x33790845\n      eq\n      tag_5\n      jumpi\n      dup1\n      0xa0237805\n      eq\n      tag_6\n      jumpi\n    tag_1:\n      0x00\n      dup1\n      revert\n        /* \"contracts/PatentBots.sol\":812:887  mapping(uint256 => CommercialActivity[]) public commercializationActivities */\n    tag_2:\n      callvalue\n      dup1\n      iszero\n      tag_13\n      jumpi\n      0x00\n      dup1\n      revert\n    tag_13:\n      pop\n      tag_14\n      0x04\n      dup1\n      calldatasize\n      sub\n      dup2\n      add\n      swap1\n      tag_15\n      swap2\n      swap1\n      tag_16\n      jump\t// in\n    tag_15:\n      tag_17\n      jump\t// in\n    tag_14:\n      mload(0x40)\n      tag_18\n      swap4\n      swap3\n      swap2\n      swap1\n      tag_19\n      jump\t// in\n    tag_18:\n      mload(0x40)\n      dup1\n      swap2\n      sub\n      swap1\n      return\n        /* \"contracts/PatentBots.sol\":2247:2648  function calculatePatentValue(uint256 _patentId) public view returns (uint256) {... */\n    tag_3:\n      callvalue\n      dup1\n      iszero\n      tag_20\n      jumpi\n      0x00\n      dup1\n      revert\n    tag_20:\n      pop\n      tag_21\n      0x04\n      dup1\n      calldatasize\n      sub\n      dup2\n      add\n      swap1\n      tag_22\n      swap2\n      swap1\n      tag_23\n      jump\t// in\n    tag_22:\n      tag_24\n      jump\t// in\n    tag_21:\n      mload(0x40)\n      tag_25\n      swap2\n      swap1\n      tag_26\n      jump\t// in\n    tag_25:\n      mload(0x40)\n      dup1\n      swap2\n      sub\n      swap1\n      return\n        /* \"contracts/PatentBots.sol\":960:991  uint256 public licenseCount = 0 */\n    tag_4:\n      callvalue\n      dup1\n      iszero\n      tag_27\n      jumpi\n      0x00\n      dup1\n      revert\n    tag_27:\n      pop\n      tag_28\n      tag_29\n      jump\t// in\n    tag_28:\n      mload(0x40)\n      tag_30\n      swap2\n      swap1\n      tag_26\n      jump\t// in\n    tag_30:\n      mload(0x40)\n      dup1\n      swap2\n      sub\n      swap1\n      return\n        /* \"contracts/PatentBots.sol\":729:772  mapping(uint256 => License) public licenses */\n    tag_5:\n      callvalue\n      dup1\n      iszero\n      tag_31\n      jumpi\n      0x00\n      dup1\n      revert\n    tag_31:\n      pop\n      tag_32\n      0x04\n      dup1\n      calldatasize\n      sub\n      dup2\n      add\n      swap1\n      tag_33\n      swap2\n      swap1\n      tag_23\n      jump\t// in\n    tag_33:\n      tag_34\n      jump\t// in\n    tag_32:\n      mload(0x40)\n      tag_35\n      swap5\n      swap4\n      swap3\n      swap2\n      swap1\n      tag_36\n      jump\t// in\n    tag_35:\n      mload(0x40)\n      dup1\n      swap2\n      sub\n      swap1\n      return\n        /* \"contracts/PatentBots.sol\":1899:2239  function logActivity(uint256 _patentId, string memory _activityName, string memory _description, uint256 _impact) public {... */\n    tag_6:\n      callvalue\n      dup1\n      iszero\n      tag_37\n      jumpi\n      0x00\n      dup1\n      revert\n    tag_37:\n      pop\n      tag_38\n      0x04\n      dup1\n      calldatasize\n      sub\n      dup2\n      add\n      swap1\n      tag_39\n      swap2\n      swap1\n      tag_40\n      jump\t// in\n    tag_39:\n      tag_41\n      jump\t// in\n    tag_38:\n      stop\n        /* \"contracts/PatentBots.sol\":1524:1891  function payRoyalties(uint256 _licenseId, uint256 _amount) public payable {... */\n    tag_7:\n      tag_42\n      0x04\n      dup1\n      calldatasize\n      sub\n      dup2\n      add\n      swap1\n      tag_43\n      swap2\n      swap1\n      tag_16\n      jump\t// in\n    tag_43:\n      tag_44\n      jump\t// in\n    tag_42:\n      stop\n        /* \"contracts/PatentBots.sol\":923:953  uint256 public patentCount = 0 */\n    tag_8:\n      callvalue\n      dup1\n      iszero\n      tag_45\n      jumpi\n      0x00\n      dup1\n      revert\n    tag_45:\n      pop\n      tag_46\n      tag_47\n      jump\t// in\n    tag_46:\n      mload(0x40)\n      tag_48\n      swap2\n      swap1\n      tag_26\n      jump\t// in\n    tag_48:\n      mload(0x40)\n      dup1\n      swap2\n      sub\n      swap1\n      return\n        /* \"contracts/PatentBots.sol\":1203:1516  function addLicense(uint256 _patentId, uint256 _royaltyPercentage, address _licensee) public {... */\n    tag_9:\n      callvalue\n      dup1\n      iszero\n      tag_49\n      jumpi\n      0x00\n      dup1\n      revert\n    tag_49:\n      pop\n      tag_50\n      0x04\n      dup1\n      calldatasize\n      sub\n      dup2\n      add\n      swap1\n      tag_51\n      swap2\n      swap1\n      tag_52\n      jump\t// in\n    tag_51:\n      tag_53\n      jump\t// in\n    tag_50:\n      stop\n        /* \"contracts/PatentBots.sol\":1000:1195  function addPatent(string memory _patentName, uint256 _baseValue) public {... */\n    tag_10:\n      callvalue\n      dup1\n      iszero\n      tag_54\n      jumpi\n      0x00\n      dup1\n      revert\n    tag_54:\n      pop\n      tag_55\n      0x04\n      dup1\n      calldatasize\n      sub\n      dup2\n      add\n      swap1\n      tag_56\n      swap2\n      swap1\n      tag_57\n      jump\t// in\n    tag_56:\n      tag_58\n      jump\t// in\n    tag_55:\n      stop\n        /* \"contracts/PatentBots.sol\":650:691  mapping(uint256 => Patent) public patents */\n    tag_11:\n      callvalue\n      dup1\n      iszero\n      tag_59\n      jumpi\n      0x00\n      dup1\n      revert\n    tag_59:\n      pop\n      tag_60\n      0x04\n      dup1\n      calldatasize\n      sub\n      dup2\n      add\n      swap1\n      tag_61\n      swap2\n      swap1\n      tag_23\n      jump\t// in\n    tag_61:\n      tag_62\n      jump\t// in\n    tag_60:\n      mload(0x40)\n      tag_63\n      swap5\n      swap4\n      swap3\n      swap2\n      swap1\n      tag_64\n      jump\t// in\n    tag_63:\n      mload(0x40)\n      dup1\n      swap2\n      sub\n      swap1\n      return\n        /* \"contracts/PatentBots.sol\":812:887  mapping(uint256 => CommercialActivity[]) public commercializationActivities */\n    tag_17:\n      mstore(0x20, 0x02)\n      dup2\n      0x00\n      mstore\n      keccak256(0x00, 0x40)\n      dup2\n      dup2\n      sload\n      dup2\n      lt\n      tag_65\n      jumpi\n      0x00\n      dup1\n      revert\n    tag_65:\n      swap1\n      0x00\n      mstore\n      keccak256(0x00, 0x20)\n      swap1\n      0x03\n      mul\n      add\n      0x00\n      swap2\n      pop\n      swap2\n      pop\n      pop\n      dup1\n      0x00\n      add\n      dup1\n      sload\n      tag_67\n      swap1\n      tag_68\n      jump\t// in\n    tag_67:\n      dup1\n      0x1f\n      add\n      0x20\n      dup1\n      swap2\n      div\n      mul\n      0x20\n      add\n      mload(0x40)\n      swap1\n      dup2\n      add\n      0x40\n      mstore\n      dup1\n      swap3\n      swap2\n      swap1\n      dup2\n      dup2\n      mstore\n      0x20\n      add\n      dup3\n      dup1\n      sload\n      tag_69\n      swap1\n      tag_68\n      jump\t// in\n    tag_69:\n      dup1\n      iszero\n      tag_70\n      jumpi\n      dup1\n      0x1f\n      lt\n      tag_71\n      jumpi\n      0x0100\n      dup1\n      dup4\n      sload\n      div\n      mul\n      dup4\n      mstore\n      swap2\n      0x20\n      add\n      swap2\n      jump(tag_70)\n    tag_71:\n      dup3\n      add\n      swap2\n      swap1\n      0x00\n      mstore\n      keccak256(0x00, 0x20)\n      swap1\n    tag_72:\n      dup2\n      sload\n      dup2\n      mstore\n      swap1\n      0x01\n      add\n      swap1\n      0x20\n      add\n      dup1\n      dup4\n      gt\n      tag_72\n      jumpi\n      dup3\n      swap1\n      sub\n      0x1f\n      and\n      dup3\n      add\n      swap2\n    tag_70:\n      pop\n      pop\n      pop\n      pop\n      pop\n      swap1\n      dup1\n      0x01\n      add\n      dup1\n      sload\n      tag_73\n      swap1\n      tag_68\n      jump\t// in\n    tag_73:\n      dup1\n      0x1f\n      add\n      0x20\n      dup1\n      swap2\n      div\n      mul\n      0x20\n      add\n      mload(0x40)\n      swap1\n      dup2\n      add\n      0x40\n      mstore\n      dup1\n      swap3\n      swap2\n      swap1\n      dup2\n      dup2\n      mstore\n      0x20\n      add\n      dup3\n      dup1\n      sload\n      tag_74\n      swap1\n      tag_68\n      jump\t// in\n    tag_74:\n      dup1\n      iszero\n      tag_75\n      jumpi\n      dup1\n      0x1f\n      lt\n      tag_76\n      jumpi\n      0x0100\n      dup1\n      dup4\n      sload\n      div\n      mul\n      dup4\n      mstore\n      swap2\n      0x20\n      add\n      swap2\n      jump(tag_75)\n    tag_76:\n      dup3\n      add\n      swap2\n      swap1\n      0x00\n      mstore\n      keccak256(0x00, 0x20)\n      swap1\n    tag_77:\n      dup2\n      sload\n      dup2\n      mstore\n      swap1\n      0x01\n      add\n      swap1\n      0x20\n      add\n      dup1\n      dup4\n      gt\n      tag_77\n      jumpi\n      dup3\n      swap1\n      sub\n      0x1f\n      and\n      dup3\n      add\n      swap2\n    tag_75:\n      pop\n      pop\n      pop\n      pop\n      pop\n      swap1\n      dup1\n      0x02\n      add\n      sload\n      swap1\n      pop\n      dup4\n      jump\t// out\n        /* \"contracts/PatentBots.sol\":2247:2648  function calculatePatentValue(uint256 _patentId) public view returns (uint256) {... */\n    tag_24:\n        /* \"contracts/PatentBots.sol\":2317:2324  uint256 */\n      0x00\n        /* \"contracts/PatentBots.sol\":2337:2357  Patent memory patent */\n      dup1\n        /* \"contracts/PatentBots.sol\":2360:2367  patents */\n      0x00\n        /* \"contracts/PatentBots.sol\":2360:2378  patents[_patentId] */\n      dup1\n        /* \"contracts/PatentBots.sol\":2368:2377  _patentId */\n      dup5\n        /* \"contracts/PatentBots.sol\":2360:2378  patents[_patentId] */\n      dup2\n      mstore\n      0x20\n      add\n      swap1\n      dup2\n      mstore\n      0x20\n      add\n      0x00\n      keccak256\n        /* \"contracts/PatentBots.sol\":2337:2378  Patent memory patent = patents[_patentId] */\n      mload(0x40)\n      dup1\n      0x80\n      add\n      0x40\n      mstore\n      swap1\n      dup2\n      0x00\n      dup3\n      add\n      sload\n      dup2\n      mstore\n      0x20\n      add\n      0x01\n      dup3\n      add\n      dup1\n      sload\n      tag_79\n      swap1\n      tag_68\n      jump\t// in\n    tag_79:\n      dup1\n      0x1f\n      add\n      0x20\n      dup1\n      swap2\n      div\n      mul\n      0x20\n      add\n      mload(0x40)\n      swap1\n      dup2\n      add\n      0x40\n      mstore\n      dup1\n      swap3\n      swap2\n      swap1\n      dup2\n      dup2\n      mstore\n      0x20\n      add\n      dup3\n      dup1\n      sload\n      tag_80\n      swap1\n      tag_68\n      jump\t// in\n    tag_80:\n      dup1\n      iszero\n      tag_81\n      jumpi\n      dup1\n      0x1f\n      lt\n      tag_82\n      jumpi\n      0x0100\n      dup1\n      dup4\n      sload\n      div\n      mul\n      dup4\n      mstore\n      swap2\n      0x20\n      add\n      swap2\n      jump(tag_81)\n    tag_82:\n      dup3\n      add\n      swap2\n      swap1\n      0x00\n      mstore\n      keccak256(0x00, 0x20)\n      swap1\n    tag_83:\n      dup2\n      sload\n      dup2\n      mstore\n      swap1\n      0x01\n      add\n      swap1\n      0x20\n      add\n      dup1\n      dup4\n      gt\n      tag_83\n      jumpi\n      dup3\n      swap1\n      sub\n      0x1f\n      and\n      dup3\n      add\n      swap2\n    tag_81:\n      pop\n      pop\n      pop\n      pop\n      pop\n      dup2\n      mstore\n      0x20\n      add\n      0x02\n      dup3\n      add\n      0x00\n      swap1\n      sload\n      swap1\n      0x0100\n      exp\n      swap1\n      div\n      0xffffffffffffffffffffffffffffffffffffffff\n      and\n      0xffffffffffffffffffffffffffffffffffffffff\n      and\n      0xffffffffffffffffffffffffffffffffffffffff\n      and\n      dup2\n      mstore\n      0x20\n      add\n      0x03\n      dup3\n      add\n      sload\n      dup2\n      mstore\n      pop\n      pop\n      swap1\n      pop\n        /* \"contracts/PatentBots.sol\":2389:2408  uint256 totalImpact */\n      0x00\n        /* \"contracts/PatentBots.sol\":2430:2439  uint256 i */\n      dup1\n        /* \"contracts/PatentBots.sol\":2425:2591  for (uint256 i = 0; i < commercializationActivities[_patentId].length; i++) {... */\n    tag_84:\n        /* \"contracts/PatentBots.sol\":2449:2476  commercializationActivities */\n      0x02\n        /* \"contracts/PatentBots.sol\":2449:2487  commercializationActivities[_patentId] */\n      0x00\n        /* \"contracts/PatentBots.sol\":2477:2486  _patentId */\n      dup7\n        /* \"contracts/PatentBots.sol\":2449:2487  commercializationActivities[_patentId] */\n      dup2\n      mstore\n      0x20\n      add\n      swap1\n      dup2\n      mstore\n      0x20\n      add\n      0x00\n      keccak256\n        /* \"contracts/PatentBots.sol\":2449:2494  commercializationActivities[_patentId].length */\n      dup1\n      sload\n      swap1\n      pop\n        /* \"contracts/PatentBots.sol\":2445:2446  i */\n      dup2\n        /* \"contracts/PatentBots.sol\":2445:2494  i < commercializationActivities[_patentId].length */\n      lt\n        /* \"contracts/PatentBots.sol\":2425:2591  for (uint256 i = 0; i < commercializationActivities[_patentId].length; i++) {... */\n      iszero\n      tag_85\n      jumpi\n        /* \"contracts/PatentBots.sol\":2531:2558  commercializationActivities */\n      0x02\n        /* \"contracts/PatentBots.sol\":2531:2569  commercializationActivities[_patentId] */\n      0x00\n        /* \"contracts/PatentBots.sol\":2559:2568  _patentId */\n      dup7\n        /* \"contracts/PatentBots.sol\":2531:2569  commercializationActivities[_patentId] */\n      dup2\n      mstore\n      0x20\n      add\n      swap1\n      dup2\n      mstore\n      0x20\n      add\n      0x00\n      keccak256\n        /* \"contracts/PatentBots.sol\":2570:2571  i */\n      dup2\n        /* \"contracts/PatentBots.sol\":2531:2572  commercializationActivities[_patentId][i] */\n      dup2\n      sload\n      dup2\n      lt\n      tag_87\n      jumpi\n      tag_88\n      tag_89\n      jump\t// in\n    tag_88:\n    tag_87:\n      swap1\n      0x00\n      mstore\n      keccak256(0x00, 0x20)\n      swap1\n      0x03\n      mul\n      add\n        /* \"contracts/PatentBots.sol\":2531:2579  commercializationActivities[_patentId][i].impact */\n      0x02\n      add\n      sload\n        /* \"contracts/PatentBots.sol\":2516:2579  totalImpact += commercializationActivities[_patentId][i].impact */\n      dup3\n      tag_91\n      swap2\n      swap1\n      tag_92\n      jump\t// in\n    tag_91:\n      swap2\n      pop\n        /* \"contracts/PatentBots.sol\":2496:2499  i++ */\n      dup1\n      dup1\n      0x01\n      add\n      swap2\n      pop\n      pop\n        /* \"contracts/PatentBots.sol\":2425:2591  for (uint256 i = 0; i < commercializationActivities[_patentId].length; i++) {... */\n      jump(tag_84)\n    tag_85:\n      pop\n        /* \"contracts/PatentBots.sol\":2629:2640  totalImpact */\n      dup1\n        /* \"contracts/PatentBots.sol\":2610:2616  patent */\n      dup3\n        /* \"contracts/PatentBots.sol\":2610:2626  patent.baseValue */\n      0x60\n      add\n      mload\n        /* \"contracts/PatentBots.sol\":2610:2640  patent.baseValue + totalImpact */\n      tag_93\n      swap2\n      swap1\n      tag_92\n      jump\t// in\n    tag_93:\n        /* \"contracts/PatentBots.sol\":2603:2640  return patent.baseValue + totalImpact */\n      swap3\n      pop\n      pop\n      pop\n        /* \"contracts/PatentBots.sol\":2247:2648  function calculatePatentValue(uint256 _patentId) public view returns (uint256) {... */\n      swap2\n      swap1\n      pop\n      jump\t// out\n        /* \"contracts/PatentBots.sol\":960:991  uint256 public licenseCount = 0 */\n    tag_29:\n      sload(0x04)\n      dup2\n      jump\t// out\n        /* \"contracts/PatentBots.sol\":729:772  mapping(uint256 => License) public licenses */\n    tag_34:\n      mstore(0x20, 0x01)\n      dup1\n      0x00\n      mstore\n      keccak256(0x00, 0x40)\n      0x00\n      swap2\n      pop\n      swap1\n      pop\n      dup1\n      0x00\n      add\n      sload\n      swap1\n      dup1\n      0x01\n      add\n      0x00\n      swap1\n      sload\n      swap1\n      0x0100\n      exp\n      swap1\n      div\n      0xffffffffffffffffffffffffffffffffffffffff\n      and\n      swap1\n      dup1\n      0x02\n      add\n      sload\n      swap1\n      dup1\n      0x03\n      add\n      sload\n      swap1\n      pop\n      dup5\n      jump\t// out\n        /* \"contracts/PatentBots.sol\":1899:2239  function logActivity(uint256 _patentId, string memory _activityName, string memory _description, uint256 _impact) public {... */\n    tag_41:\n        /* \"contracts/PatentBots.sol\":2067:2077  msg.sender */\n      caller\n        /* \"contracts/PatentBots.sol\":2039:2077  patents[_patentId].owner == msg.sender */\n      0xffffffffffffffffffffffffffffffffffffffff\n      and\n        /* \"contracts/PatentBots.sol\":2039:2046  patents */\n      0x00\n        /* \"contracts/PatentBots.sol\":2039:2057  patents[_patentId] */\n      dup1\n        /* \"contracts/PatentBots.sol\":2047:2056  _patentId */\n      dup7\n        /* \"contracts/PatentBots.sol\":2039:2057  patents[_patentId] */\n      dup2\n      mstore\n      0x20\n      add\n      swap1\n      dup2\n      mstore\n      0x20\n      add\n      0x00\n      keccak256\n        /* \"contracts/PatentBots.sol\":2039:2063  patents[_patentId].owner */\n      0x02\n      add\n      0x00\n      swap1\n      sload\n      swap1\n      0x0100\n      exp\n      swap1\n      div\n      0xffffffffffffffffffffffffffffffffffffffff\n      and\n        /* \"contracts/PatentBots.sol\":2039:2077  patents[_patentId].owner == msg.sender */\n      0xffffffffffffffffffffffffffffffffffffffff\n      and\n      eq\n        /* \"contracts/PatentBots.sol\":2031:2119  require(patents[_patentId].owner == msg.sender, \"Only patent owner can log activities.\") */\n      tag_95\n      jumpi\n      mload(0x40)\n      0x08c379a000000000000000000000000000000000000000000000000000000000\n      dup2\n      mstore\n      0x04\n      add\n      tag_96\n      swap1\n      tag_97\n      jump\t// in\n    tag_96:\n      mload(0x40)\n      dup1\n      swap2\n      sub\n      swap1\n      revert\n    tag_95:\n        /* \"contracts/PatentBots.sol\":2130:2157  commercializationActivities */\n      0x02\n        /* \"contracts/PatentBots.sol\":2130:2168  commercializationActivities[_patentId] */\n      0x00\n        /* \"contracts/PatentBots.sol\":2158:2167  _patentId */\n      dup6\n        /* \"contracts/PatentBots.sol\":2130:2168  commercializationActivities[_patentId] */\n      dup2\n      mstore\n      0x20\n      add\n      swap1\n      dup2\n      mstore\n      0x20\n      add\n      0x00\n      keccak256\n        /* \"contracts/PatentBots.sol\":2174:2230  CommercialActivity(_activityName, _description, _impact) */\n      mload(0x40)\n      dup1\n      0x60\n      add\n      0x40\n      mstore\n      dup1\n        /* \"contracts/PatentBots.sol\":2193:2206  _activityName */\n      dup6\n        /* \"contracts/PatentBots.sol\":2174:2230  CommercialActivity(_activityName, _description, _impact) */\n      dup2\n      mstore\n      0x20\n      add\n        /* \"contracts/PatentBots.sol\":2208:2220  _description */\n      dup5\n        /* \"contracts/PatentBots.sol\":2174:2230  CommercialActivity(_activityName, _description, _impact) */\n      dup2\n      mstore\n      0x20\n      add\n        /* \"contracts/PatentBots.sol\":2222:2229  _impact */\n      dup4\n        /* \"contracts/PatentBots.sol\":2174:2230  CommercialActivity(_activityName, _description, _impact) */\n      dup2\n      mstore\n      pop\n        /* \"contracts/PatentBots.sol\":2130:2231  commercializationActivities[_patentId].push(CommercialActivity(_activityName, _description, _impact)) */\n      swap1\n      dup1\n      0x01\n      dup2\n      sload\n      add\n      dup1\n      dup3\n      sstore\n      dup1\n      swap2\n      pop\n      pop\n      0x01\n      swap1\n      sub\n      swap1\n      0x00\n      mstore\n      keccak256(0x00, 0x20)\n      swap1\n      0x03\n      mul\n      add\n      0x00\n      swap1\n      swap2\n      swap1\n      swap2\n      swap1\n      swap2\n      pop\n      0x00\n      dup3\n      add\n      mload\n      dup2\n      0x00\n      add\n      swap1\n      dup2\n      tag_99\n      swap2\n      swap1\n      tag_100\n      jump\t// in\n    tag_99:\n      pop\n      0x20\n      dup3\n      add\n      mload\n      dup2\n      0x01\n      add\n      swap1\n      dup2\n      tag_101\n      swap2\n      swap1\n      tag_100\n      jump\t// in\n    tag_101:\n      pop\n      0x40\n      dup3\n      add\n      mload\n      dup2\n      0x02\n      add\n      sstore\n      pop\n      pop\n        /* \"contracts/PatentBots.sol\":1899:2239  function logActivity(uint256 _patentId, string memory _activityName, string memory _description, uint256 _impact) public {... */\n      pop\n      pop\n      pop\n      pop\n      jump\t// out\n        /* \"contracts/PatentBots.sol\":1524:1891  function payRoyalties(uint256 _licenseId, uint256 _amount) public payable {... */\n    tag_44:\n        /* \"contracts/PatentBots.sol\":1631:1639  licenses */\n      0x01\n        /* \"contracts/PatentBots.sol\":1631:1651  licenses[_licenseId] */\n      0x00\n        /* \"contracts/PatentBots.sol\":1640:1650  _licenseId */\n      dup4\n        /* \"contracts/PatentBots.sol\":1631:1651  licenses[_licenseId] */\n      dup2\n      mstore\n      0x20\n      add\n      swap1\n      dup2\n      mstore\n      0x20\n      add\n      0x00\n      keccak256\n        /* \"contracts/PatentBots.sol\":1631:1660  licenses[_licenseId].licensee */\n      0x01\n      add\n      0x00\n      swap1\n      sload\n      swap1\n      0x0100\n      exp\n      swap1\n      div\n      0xffffffffffffffffffffffffffffffffffffffff\n      and\n        /* \"contracts/PatentBots.sol\":1617:1660  msg.sender == licenses[_licenseId].licensee */\n      0xffffffffffffffffffffffffffffffffffffffff\n      and\n        /* \"contracts/PatentBots.sol\":1617:1627  msg.sender */\n      caller\n        /* \"contracts/PatentBots.sol\":1617:1660  msg.sender == licenses[_licenseId].licensee */\n      0xffffffffffffffffffffffffffffffffffffffff\n      and\n      eq\n        /* \"contracts/PatentBots.sol\":1609:1697  require(msg.sender == licenses[_licenseId].licensee, \"Only licensee can pay royalties.\") */\n      tag_103\n      jumpi\n      mload(0x40)\n      0x08c379a000000000000000000000000000000000000000000000000000000000\n      dup2\n      mstore\n      0x04\n      add\n      tag_104\n      swap1\n      tag_105\n      jump\t// in\n    tag_104:\n      mload(0x40)\n      dup1\n      swap2\n      sub\n      swap1\n      revert\n    tag_103:\n        /* \"contracts/PatentBots.sol\":1708:1731  License storage license */\n      0x00\n        /* \"contracts/PatentBots.sol\":1734:1742  licenses */\n      0x01\n        /* \"contracts/PatentBots.sol\":1734:1754  licenses[_licenseId] */\n      0x00\n        /* \"contracts/PatentBots.sol\":1743:1753  _licenseId */\n      dup5\n        /* \"contracts/PatentBots.sol\":1734:1754  licenses[_licenseId] */\n      dup2\n      mstore\n      0x20\n      add\n      swap1\n      dup2\n      mstore\n      0x20\n      add\n      0x00\n      keccak256\n        /* \"contracts/PatentBots.sol\":1708:1754  License storage license = licenses[_licenseId] */\n      swap1\n      pop\n        /* \"contracts/PatentBots.sol\":1765:1787  uint256 royaltyPayment */\n      0x00\n        /* \"contracts/PatentBots.sol\":1830:1833  100 */\n      0x64\n        /* \"contracts/PatentBots.sol\":1801:1808  license */\n      dup3\n        /* \"contracts/PatentBots.sol\":1801:1826  license.royaltyPercentage */\n      0x02\n      add\n      sload\n        /* \"contracts/PatentBots.sol\":1791:1798  _amount */\n      dup5\n        /* \"contracts/PatentBots.sol\":1791:1826  _amount * license.royaltyPercentage */\n      tag_106\n      swap2\n      swap1\n      tag_107\n      jump\t// in\n    tag_106:\n        /* \"contracts/PatentBots.sol\":1790:1833  (_amount * license.royaltyPercentage) / 100 */\n      tag_108\n      swap2\n      swap1\n      tag_109\n      jump\t// in\n    tag_108:\n        /* \"contracts/PatentBots.sol\":1765:1833  uint256 royaltyPayment = (_amount * license.royaltyPercentage) / 100 */\n      swap1\n      pop\n        /* \"contracts/PatentBots.sol\":1869:1883  royaltyPayment */\n      dup1\n        /* \"contracts/PatentBots.sol\":1844:1851  license */\n      dup3\n        /* \"contracts/PatentBots.sol\":1844:1865  license.royaltiesPaid */\n      0x03\n      add\n      0x00\n        /* \"contracts/PatentBots.sol\":1844:1883  license.royaltiesPaid += royaltyPayment */\n      dup3\n      dup3\n      sload\n      tag_110\n      swap2\n      swap1\n      tag_92\n      jump\t// in\n    tag_110:\n      swap3\n      pop\n      pop\n      dup2\n      swap1\n      sstore\n      pop\n        /* \"contracts/PatentBots.sol\":1598:1891  {... */\n      pop\n      pop\n        /* \"contracts/PatentBots.sol\":1524:1891  function payRoyalties(uint256 _licenseId, uint256 _amount) public payable {... */\n      pop\n      pop\n      jump\t// out\n        /* \"contracts/PatentBots.sol\":923:953  uint256 public patentCount = 0 */\n    tag_47:\n      sload(0x03)\n      dup2\n      jump\t// out\n        /* \"contracts/PatentBots.sol\":1203:1516  function addLicense(uint256 _patentId, uint256 _royaltyPercentage, address _licensee) public {... */\n    tag_53:\n        /* \"contracts/PatentBots.sol\":1343:1353  msg.sender */\n      caller\n        /* \"contracts/PatentBots.sol\":1315:1353  patents[_patentId].owner == msg.sender */\n      0xffffffffffffffffffffffffffffffffffffffff\n      and\n        /* \"contracts/PatentBots.sol\":1315:1322  patents */\n      0x00\n        /* \"contracts/PatentBots.sol\":1315:1333  patents[_patentId] */\n      dup1\n        /* \"contracts/PatentBots.sol\":1323:1332  _patentId */\n      dup6\n        /* \"contracts/PatentBots.sol\":1315:1333  patents[_patentId] */\n      dup2\n      mstore\n      0x20\n      add\n      swap1\n      dup2\n      mstore\n      0x20\n      add\n      0x00\n      keccak256\n        /* \"contracts/PatentBots.sol\":1315:1339  patents[_patentId].owner */\n      0x02\n      add\n      0x00\n      swap1\n      sload\n      swap1\n      0x0100\n      exp\n      swap1\n      div\n      0xffffffffffffffffffffffffffffffffffffffff\n      and\n        /* \"contracts/PatentBots.sol\":1315:1353  patents[_patentId].owner == msg.sender */\n      0xffffffffffffffffffffffffffffffffffffffff\n      and\n      eq\n        /* \"contracts/PatentBots.sol\":1307:1392  require(patents[_patentId].owner == msg.sender, \"Only patent owner can add license.\") */\n      tag_112\n      jumpi\n      mload(0x40)\n      0x08c379a000000000000000000000000000000000000000000000000000000000\n      dup2\n      mstore\n      0x04\n      add\n      tag_113\n      swap1\n      tag_114\n      jump\t// in\n    tag_113:\n      mload(0x40)\n      dup1\n      swap2\n      sub\n      swap1\n      revert\n    tag_112:\n        /* \"contracts/PatentBots.sol\":1403:1415  licenseCount */\n      0x04\n      0x00\n        /* \"contracts/PatentBots.sol\":1403:1417  licenseCount++ */\n      dup2\n      sload\n      dup1\n      swap3\n      swap2\n      swap1\n      tag_115\n      swap1\n      tag_116\n      jump\t// in\n    tag_115:\n      swap2\n      swap1\n      pop\n      sstore\n      pop\n        /* \"contracts/PatentBots.sol\":1453:1508  License(licenseCount, _licensee, _royaltyPercentage, 0) */\n      mload(0x40)\n      dup1\n      0x80\n      add\n      0x40\n      mstore\n      dup1\n        /* \"contracts/PatentBots.sol\":1461:1473  licenseCount */\n      sload(0x04)\n        /* \"contracts/PatentBots.sol\":1453:1508  License(licenseCount, _licensee, _royaltyPercentage, 0) */\n      dup2\n      mstore\n      0x20\n      add\n        /* \"contracts/PatentBots.sol\":1475:1484  _licensee */\n      dup3\n        /* \"contracts/PatentBots.sol\":1453:1508  License(licenseCount, _licensee, _royaltyPercentage, 0) */\n      0xffffffffffffffffffffffffffffffffffffffff\n      and\n      dup2\n      mstore\n      0x20\n      add\n        /* \"contracts/PatentBots.sol\":1486:1504  _royaltyPercentage */\n      dup4\n        /* \"contracts/PatentBots.sol\":1453:1508  License(licenseCount, _licensee, _royaltyPercentage, 0) */\n      dup2\n      mstore\n      0x20\n      add\n        /* \"contracts/PatentBots.sol\":1506:1507  0 */\n      0x00\n        /* \"contracts/PatentBots.sol\":1453:1508  License(licenseCount, _licensee, _royaltyPercentage, 0) */\n      dup2\n      mstore\n      pop\n        /* \"contracts/PatentBots.sol\":1428:1436  licenses */\n      0x01\n        /* \"contracts/PatentBots.sol\":1428:1450  licenses[licenseCount] */\n      0x00\n        /* \"contracts/PatentBots.sol\":1437:1449  licenseCount */\n      sload(0x04)\n        /* \"contracts/PatentBots.sol\":1428:1450  licenses[licenseCount] */\n      dup2\n      mstore\n      0x20\n      add\n      swap1\n      dup2\n      mstore\n      0x20\n      add\n      0x00\n      keccak256\n        /* \"contracts/PatentBots.sol\":1428:1508  licenses[licenseCount] = License(licenseCount, _licensee, _royaltyPercentage, 0) */\n      0x00\n      dup3\n      add\n      mload\n      dup2\n      0x00\n      add\n      sstore\n      0x20\n      dup3\n      add\n      mload\n      dup2\n      0x01\n      add\n      exp(0x0100, 0x00)\n      dup2\n      sload\n      dup2\n      0xffffffffffffffffffffffffffffffffffffffff\n      mul\n      not\n      and\n      swap1\n      dup4\n      0xffffffffffffffffffffffffffffffffffffffff\n      and\n      mul\n      or\n      swap1\n      sstore\n      pop\n      0x40\n      dup3\n      add\n      mload\n      dup2\n      0x02\n      add\n      sstore\n      0x60\n      dup3\n      add\n      mload\n      dup2\n      0x03\n      add\n      sstore\n      swap1\n      pop\n      pop\n        /* \"contracts/PatentBots.sol\":1203:1516  function addLicense(uint256 _patentId, uint256 _royaltyPercentage, address _licensee) public {... */\n      pop\n      pop\n      pop\n      jump\t// out\n        /* \"contracts/PatentBots.sol\":1000:1195  function addPatent(string memory _patentName, uint256 _baseValue) public {... */\n    tag_58:\n        /* \"contracts/PatentBots.sol\":1084:1095  patentCount */\n      0x03\n      0x00\n        /* \"contracts/PatentBots.sol\":1084:1097  patentCount++ */\n      dup2\n      sload\n      dup1\n      swap3\n      swap2\n      swap1\n      tag_118\n      swap1\n      tag_116\n      jump\t// in\n    tag_118:\n      swap2\n      swap1\n      pop\n      sstore\n      pop\n        /* \"contracts/PatentBots.sol\":1131:1187  Patent(patentCount, _patentName, msg.sender, _baseValue) */\n      mload(0x40)\n      dup1\n      0x80\n      add\n      0x40\n      mstore\n      dup1\n        /* \"contracts/PatentBots.sol\":1138:1149  patentCount */\n      sload(0x03)\n        /* \"contracts/PatentBots.sol\":1131:1187  Patent(patentCount, _patentName, msg.sender, _baseValue) */\n      dup2\n      mstore\n      0x20\n      add\n        /* \"contracts/PatentBots.sol\":1151:1162  _patentName */\n      dup4\n        /* \"contracts/PatentBots.sol\":1131:1187  Patent(patentCount, _patentName, msg.sender, _baseValue) */\n      dup2\n      mstore\n      0x20\n      add\n        /* \"contracts/PatentBots.sol\":1164:1174  msg.sender */\n      caller\n        /* \"contracts/PatentBots.sol\":1131:1187  Patent(patentCount, _patentName, msg.sender, _baseValue) */\n      0xffffffffffffffffffffffffffffffffffffffff\n      and\n      dup2\n      mstore\n      0x20\n      add\n        /* \"contracts/PatentBots.sol\":1176:1186  _baseValue */\n      dup3\n        /* \"contracts/PatentBots.sol\":1131:1187  Patent(patentCount, _patentName, msg.sender, _baseValue) */\n      dup2\n      mstore\n      pop\n        /* \"contracts/PatentBots.sol\":1108:1115  patents */\n      0x00\n        /* \"contracts/PatentBots.sol\":1108:1128  patents[patentCount] */\n      dup1\n        /* \"contracts/PatentBots.sol\":1116:1127  patentCount */\n      sload(0x03)\n        /* \"contracts/PatentBots.sol\":1108:1128  patents[patentCount] */\n      dup2\n      mstore\n      0x20\n      add\n      swap1\n      dup2\n      mstore\n      0x20\n      add\n      0x00\n      keccak256\n        /* \"contracts/PatentBots.sol\":1108:1187  patents[patentCount] = Patent(patentCount, _patentName, msg.sender, _baseValue) */\n      0x00\n      dup3\n      add\n      mload\n      dup2\n      0x00\n      add\n      sstore\n      0x20\n      dup3\n      add\n      mload\n      dup2\n      0x01\n      add\n      swap1\n      dup2\n      tag_119\n      swap2\n      swap1\n      tag_100\n      jump\t// in\n    tag_119:\n      pop\n      0x40\n      dup3\n      add\n      mload\n      dup2\n      0x02\n      add\n      exp(0x0100, 0x00)\n      dup2\n      sload\n      dup2\n      0xffffffffffffffffffffffffffffffffffffffff\n      mul\n      not\n      and\n      swap1\n      dup4\n      0xffffffffffffffffffffffffffffffffffffffff\n      and\n      mul\n      or\n      swap1\n      sstore\n      pop\n      0x60\n      dup3\n      add\n      mload\n      dup2\n      0x03\n      add\n      sstore\n      swap1\n      pop\n      pop\n        /* \"contracts/PatentBots.sol\":1000:1195  function addPatent(string memory _patentName, uint256 _baseValue) public {... */\n      pop\n      pop\n      jump\t// out\n        /* \"contracts/PatentBots.sol\":650:691  mapping(uint256 => Patent) public patents */\n    tag_62:\n      mstore(0x20, 0x00)\n      dup1\n      0x00\n      mstore\n      keccak256(0x00, 0x40)\n      0x00\n      swap2\n      pop\n      swap1\n      pop\n      dup1\n      0x00\n      add\n      sload\n      swap1\n      dup1\n      0x01\n      add\n      dup1\n      sload\n      tag_120\n      swap1\n      tag_68\n      jump\t// in\n    tag_120:\n      dup1\n      0x1f\n      add\n      0x20\n      dup1\n      swap2\n      div\n      mul\n      0x20\n      add\n      mload(0x40)\n      swap1\n      dup2\n      add\n      0x40\n      mstore\n      dup1\n      swap3\n      swap2\n      swap1\n      dup2\n      dup2\n      mstore\n      0x20\n      add\n      dup3\n      dup1\n      sload\n      tag_121\n      swap1\n      tag_68\n      jump\t// in\n    tag_121:\n      dup1\n      iszero\n      tag_122\n      jumpi\n      dup1\n      0x1f\n      lt\n      tag_123\n      jumpi\n      0x0100\n      dup1\n      dup4\n      sload\n      div\n      mul\n      dup4\n      mstore\n      swap2\n      0x20\n      add\n      swap2\n      jump(tag_122)\n    tag_123:\n      dup3\n      add\n      swap2\n      swap1\n      0x00\n      mstore\n      keccak256(0x00, 0x20)\n      swap1\n    tag_124:\n      dup2\n      sload\n      dup2\n      mstore\n      swap1\n      0x01\n      add\n      swap1\n      0x20\n      add\n      dup1\n      dup4\n      gt\n      tag_124\n      jumpi\n      dup3\n      swap1\n      sub\n      0x1f\n      and\n      dup3\n      add\n      swap2\n    tag_122:\n      pop\n      pop\n      pop\n      pop\n      pop\n      swap1\n      dup1\n      0x02\n      add\n      0x00\n      swap1\n      sload\n      swap1\n      0x0100\n      exp\n      swap1\n      div\n      0xffffffffffffffffffffffffffffffffffffffff\n      and\n      swap1\n      dup1\n      0x03\n      add\n      sload\n      swap1\n      pop\n      dup5\n      jump\t// out\n        /* \"#utility.yul\":7:82   */\n    tag_125:\n        /* \"#utility.yul\":40:46   */\n      0x00\n        /* \"#utility.yul\":73:75   */\n      0x40\n        /* \"#utility.yul\":67:76   */\n      mload\n        /* \"#utility.yul\":57:76   */\n      swap1\n      pop\n        /* \"#utility.yul\":7:82   */\n      swap1\n      jump\t// out\n        /* \"#utility.yul\":88:205   */\n    tag_126:\n        /* \"#utility.yul\":197:198   */\n      0x00\n        /* \"#utility.yul\":194:195   */\n      dup1\n        /* \"#utility.yul\":187:199   */\n      revert\n        /* \"#utility.yul\":211:328   */\n    tag_127:\n        /* \"#utility.yul\":320:321   */\n      0x00\n        /* \"#utility.yul\":317:318   */\n      dup1\n        /* \"#utility.yul\":310:322   */\n      revert\n        /* \"#utility.yul\":334:411   */\n    tag_128:\n        /* \"#utility.yul\":371:378   */\n      0x00\n        /* \"#utility.yul\":400:405   */\n      dup2\n        /* \"#utility.yul\":389:405   */\n      swap1\n      pop\n        /* \"#utility.yul\":334:411   */\n      swap2\n      swap1\n      pop\n      jump\t// out\n        /* \"#utility.yul\":417:539   */\n    tag_129:\n        /* \"#utility.yul\":490:514   */\n      tag_181\n        /* \"#utility.yul\":508:513   */\n      dup2\n        /* \"#utility.yul\":490:514   */\n      tag_128\n      jump\t// in\n    tag_181:\n        /* \"#utility.yul\":483:488   */\n      dup2\n        /* \"#utility.yul\":480:515   */\n      eq\n        /* \"#utility.yul\":470:533   */\n      tag_182\n      jumpi\n        /* \"#utility.yul\":529:530   */\n      0x00\n        /* \"#utility.yul\":526:527   */\n      dup1\n        /* \"#utility.yul\":519:531   */\n      revert\n        /* \"#utility.yul\":470:533   */\n    tag_182:\n        /* \"#utility.yul\":417:539   */\n      pop\n      jump\t// out\n        /* \"#utility.yul\":545:684   */\n    tag_130:\n        /* \"#utility.yul\":591:596   */\n      0x00\n        /* \"#utility.yul\":629:635   */\n      dup2\n        /* \"#utility.yul\":616:636   */\n      calldataload\n        /* \"#utility.yul\":607:636   */\n      swap1\n      pop\n        /* \"#utility.yul\":645:678   */\n      tag_184\n        /* \"#utility.yul\":672:677   */\n      dup2\n        /* \"#utility.yul\":645:678   */\n      tag_129\n      jump\t// in\n    tag_184:\n        /* \"#utility.yul\":545:684   */\n      swap3\n      swap2\n      pop\n      pop\n      jump\t// out\n        /* \"#utility.yul\":690:1164   */\n    tag_16:\n        /* \"#utility.yul\":758:764   */\n      0x00\n        /* \"#utility.yul\":766:772   */\n      dup1\n        /* \"#utility.yul\":815:817   */\n      0x40\n        /* \"#utility.yul\":803:812   */\n      dup4\n        /* \"#utility.yul\":794:801   */\n      dup6\n        /* \"#utility.yul\":790:813   */\n      sub\n        /* \"#utility.yul\":786:818   */\n      slt\n        /* \"#utility.yul\":783:902   */\n      iszero\n      tag_186\n      jumpi\n        /* \"#utility.yul\":821:900   */\n      tag_187\n      tag_126\n      jump\t// in\n    tag_187:\n        /* \"#utility.yul\":783:902   */\n    tag_186:\n        /* \"#utility.yul\":941:942   */\n      0x00\n        /* \"#utility.yul\":966:1019   */\n      tag_188\n        /* \"#utility.yul\":1011:1018   */\n      dup6\n        /* \"#utility.yul\":1002:1008   */\n      dup3\n        /* \"#utility.yul\":991:1000   */\n      dup7\n        /* \"#utility.yul\":987:1009   */\n      add\n        /* \"#utility.yul\":966:1019   */\n      tag_130\n      jump\t// in\n    tag_188:\n        /* \"#utility.yul\":956:1019   */\n      swap3\n      pop\n        /* \"#utility.yul\":912:1029   */\n      pop\n        /* \"#utility.yul\":1068:1070   */\n      0x20\n        /* \"#utility.yul\":1094:1147   */\n      tag_189\n        /* \"#utility.yul\":1139:1146   */\n      dup6\n        /* \"#utility.yul\":1130:1136   */\n      dup3\n        /* \"#utility.yul\":1119:1128   */\n      dup7\n        /* \"#utility.yul\":1115:1137   */\n      add\n        /* \"#utility.yul\":1094:1147   */\n      tag_130\n      jump\t// in\n    tag_189:\n        /* \"#utility.yul\":1084:1147   */\n      swap2\n      pop\n        /* \"#utility.yul\":1039:1157   */\n      pop\n        /* \"#utility.yul\":690:1164   */\n      swap3\n      pop\n      swap3\n      swap1\n      pop\n      jump\t// out\n        /* \"#utility.yul\":1170:1269   */\n    tag_131:\n        /* \"#utility.yul\":1222:1228   */\n      0x00\n        /* \"#utility.yul\":1256:1261   */\n      dup2\n        /* \"#utility.yul\":1250:1262   */\n      mload\n        /* \"#utility.yul\":1240:1262   */\n      swap1\n      pop\n        /* \"#utility.yul\":1170:1269   */\n      swap2\n      swap1\n      pop\n      jump\t// out\n        /* \"#utility.yul\":1275:1444   */\n    tag_132:\n        /* \"#utility.yul\":1359:1370   */\n      0x00\n        /* \"#utility.yul\":1393:1399   */\n      dup3\n        /* \"#utility.yul\":1388:1391   */\n      dup3\n        /* \"#utility.yul\":1381:1400   */\n      mstore\n        /* \"#utility.yul\":1433:1437   */\n      0x20\n        /* \"#utility.yul\":1428:1431   */\n      dup3\n        /* \"#utility.yul\":1424:1438   */\n      add\n        /* \"#utility.yul\":1409:1438   */\n      swap1\n      pop\n        /* \"#utility.yul\":1275:1444   */\n      swap3\n      swap2\n      pop\n      pop\n      jump\t// out\n        /* \"#utility.yul\":1450:1589   */\n    tag_133:\n        /* \"#utility.yul\":1539:1545   */\n      dup3\n        /* \"#utility.yul\":1534:1537   */\n      dup2\n        /* \"#utility.yul\":1529:1532   */\n      dup4\n        /* \"#utility.yul\":1523:1546   */\n      mcopy\n        /* \"#utility.yul\":1580:1581   */\n      0x00\n        /* \"#utility.yul\":1571:1577   */\n      dup4\n        /* \"#utility.yul\":1566:1569   */\n      dup4\n        /* \"#utility.yul\":1562:1578   */\n      add\n        /* \"#utility.yul\":1555:1582   */\n      mstore\n        /* \"#utility.yul\":1450:1589   */\n      pop\n      pop\n      pop\n      jump\t// out\n        /* \"#utility.yul\":1595:1697   */\n    tag_134:\n        /* \"#utility.yul\":1636:1642   */\n      0x00\n        /* \"#utility.yul\":1687:1689   */\n      0x1f\n        /* \"#utility.yul\":1683:1690   */\n      not\n        /* \"#utility.yul\":1678:1680   */\n      0x1f\n        /* \"#utility.yul\":1671:1676   */\n      dup4\n        /* \"#utility.yul\":1667:1681   */\n      add\n        /* \"#utility.yul\":1663:1691   */\n      and\n        /* \"#utility.yul\":1653:1691   */\n      swap1\n      pop\n        /* \"#utility.yul\":1595:1697   */\n      swap2\n      swap1\n      pop\n      jump\t// out\n        /* \"#utility.yul\":1703:2080   */\n    tag_135:\n        /* \"#utility.yul\":1791:1794   */\n      0x00\n        /* \"#utility.yul\":1819:1858   */\n      tag_195\n        /* \"#utility.yul\":1852:1857   */\n      dup3\n        /* \"#utility.yul\":1819:1858   */\n      tag_131\n      jump\t// in\n    tag_195:\n        /* \"#utility.yul\":1874:1945   */\n      tag_196\n        /* \"#utility.yul\":1938:1944   */\n      dup2\n        /* \"#utility.yul\":1933:1936   */\n      dup6\n        /* \"#utility.yul\":1874:1945   */\n      tag_132\n      jump\t// in\n    tag_196:\n        /* \"#utility.yul\":1867:1945   */\n      swap4\n      pop\n        /* \"#utility.yul\":1954:2019   */\n      tag_197\n        /* \"#utility.yul\":2012:2018   */\n      dup2\n        /* \"#utility.yul\":2007:2010   */\n      dup6\n        /* \"#utility.yul\":2000:2004   */\n      0x20\n        /* \"#utility.yul\":1993:1998   */\n      dup7\n        /* \"#utility.yul\":1989:2005   */\n      add\n        /* \"#utility.yul\":1954:2019   */\n      tag_133\n      jump\t// in\n    tag_197:\n        /* \"#utility.yul\":2044:2073   */\n      tag_198\n        /* \"#utility.yul\":2066:2072   */\n      dup2\n        /* \"#utility.yul\":2044:2073   */\n      tag_134\n      jump\t// in\n    tag_198:\n        /* \"#utility.yul\":2039:2042   */\n      dup5\n        /* \"#utility.yul\":2035:2074   */\n      add\n        /* \"#utility.yul\":2028:2074   */\n      swap2\n      pop\n        /* \"#utility.yul\":1795:2080   */\n      pop\n        /* \"#utility.yul\":1703:2080   */\n      swap3\n      swap2\n      pop\n      pop\n      jump\t// out\n        /* \"#utility.yul\":2086:2204   */\n    tag_136:\n        /* \"#utility.yul\":2173:2197   */\n      tag_200\n        /* \"#utility.yul\":2191:2196   */\n      dup2\n        /* \"#utility.yul\":2173:2197   */\n      tag_128\n      jump\t// in\n    tag_200:\n        /* \"#utility.yul\":2168:2171   */\n      dup3\n        /* \"#utility.yul\":2161:2198   */\n      mstore\n        /* \"#utility.yul\":2086:2204   */\n      pop\n      pop\n      jump\t// out\n        /* \"#utility.yul\":2210:2834   */\n    tag_19:\n        /* \"#utility.yul\":2399:2403   */\n      0x00\n        /* \"#utility.yul\":2437:2439   */\n      0x60\n        /* \"#utility.yul\":2426:2435   */\n      dup3\n        /* \"#utility.yul\":2422:2440   */\n      add\n        /* \"#utility.yul\":2414:2440   */\n      swap1\n      pop\n        /* \"#utility.yul\":2486:2495   */\n      dup2\n        /* \"#utility.yul\":2480:2484   */\n      dup2\n        /* \"#utility.yul\":2476:2496   */\n      sub\n        /* \"#utility.yul\":2472:2473   */\n      0x00\n        /* \"#utility.yul\":2461:2470   */\n      dup4\n        /* \"#utility.yul\":2457:2474   */\n      add\n        /* \"#utility.yul\":2450:2497   */\n      mstore\n        /* \"#utility.yul\":2514:2592   */\n      tag_202\n        /* \"#utility.yul\":2587:2591   */\n      dup2\n        /* \"#utility.yul\":2578:2584   */\n      dup7\n        /* \"#utility.yul\":2514:2592   */\n      tag_135\n      jump\t// in\n    tag_202:\n        /* \"#utility.yul\":2506:2592   */\n      swap1\n      pop\n        /* \"#utility.yul\":2639:2648   */\n      dup2\n        /* \"#utility.yul\":2633:2637   */\n      dup2\n        /* \"#utility.yul\":2629:2649   */\n      sub\n        /* \"#utility.yul\":2624:2626   */\n      0x20\n        /* \"#utility.yul\":2613:2622   */\n      dup4\n        /* \"#utility.yul\":2609:2627   */\n      add\n        /* \"#utility.yul\":2602:2650   */\n      mstore\n        /* \"#utility.yul\":2667:2745   */\n      tag_203\n        /* \"#utility.yul\":2740:2744   */\n      dup2\n        /* \"#utility.yul\":2731:2737   */\n      dup6\n        /* \"#utility.yul\":2667:2745   */\n      tag_135\n      jump\t// in\n    tag_203:\n        /* \"#utility.yul\":2659:2745   */\n      swap1\n      pop\n        /* \"#utility.yul\":2755:2827   */\n      tag_204\n        /* \"#utility.yul\":2823:2825   */\n      0x40\n        /* \"#utility.yul\":2812:2821   */\n      dup4\n        /* \"#utility.yul\":2808:2826   */\n      add\n        /* \"#utility.yul\":2799:2805   */\n      dup5\n        /* \"#utility.yul\":2755:2827   */\n      tag_136\n      jump\t// in\n    tag_204:\n        /* \"#utility.yul\":2210:2834   */\n      swap5\n      swap4\n      pop\n      pop\n      pop\n      pop\n      jump\t// out\n        /* \"#utility.yul\":2840:3169   */\n    tag_23:\n        /* \"#utility.yul\":2899:2905   */\n      0x00\n        /* \"#utility.yul\":2948:2950   */\n      0x20\n        /* \"#utility.yul\":2936:2945   */\n      dup3\n        /* \"#utility.yul\":2927:2934   */\n      dup5\n        /* \"#utility.yul\":2923:2946   */\n      sub\n        /* \"#utility.yul\":2919:2951   */\n      slt\n        /* \"#utility.yul\":2916:3035   */\n      iszero\n      tag_206\n      jumpi\n        /* \"#utility.yul\":2954:3033   */\n      tag_207\n      tag_126\n      jump\t// in\n    tag_207:\n        /* \"#utility.yul\":2916:3035   */\n    tag_206:\n        /* \"#utility.yul\":3074:3075   */\n      0x00\n        /* \"#utility.yul\":3099:3152   */\n      tag_208\n        /* \"#utility.yul\":3144:3151   */\n      dup5\n        /* \"#utility.yul\":3135:3141   */\n      dup3\n        /* \"#utility.yul\":3124:3133   */\n      dup6\n        /* \"#utility.yul\":3120:3142   */\n      add\n        /* \"#utility.yul\":3099:3152   */\n      tag_130\n      jump\t// in\n    tag_208:\n        /* \"#utility.yul\":3089:3152   */\n      swap2\n      pop\n        /* \"#utility.yul\":3045:3162   */\n      pop\n        /* \"#utility.yul\":2840:3169   */\n      swap3\n      swap2\n      pop\n      pop\n      jump\t// out\n        /* \"#utility.yul\":3175:3397   */\n    tag_26:\n        /* \"#utility.yul\":3268:3272   */\n      0x00\n        /* \"#utility.yul\":3306:3308   */\n      0x20\n        /* \"#utility.yul\":3295:3304   */\n      dup3\n        /* \"#utility.yul\":3291:3309   */\n      add\n        /* \"#utility.yul\":3283:3309   */\n      swap1\n      pop\n        /* \"#utility.yul\":3319:3390   */\n      tag_210\n        /* \"#utility.yul\":3387:3388   */\n      0x00\n        /* \"#utility.yul\":3376:3385   */\n      dup4\n        /* \"#utility.yul\":3372:3389   */\n      add\n        /* \"#utility.yul\":3363:3369   */\n      dup5\n        /* \"#utility.yul\":3319:3390   */\n      tag_136\n      jump\t// in\n    tag_210:\n        /* \"#utility.yul\":3175:3397   */\n      swap3\n      swap2\n      pop\n      pop\n      jump\t// out\n        /* \"#utility.yul\":3403:3529   */\n    tag_137:\n        /* \"#utility.yul\":3440:3447   */\n      0x00\n        /* \"#utility.yul\":3480:3522   */\n      0xffffffffffffffffffffffffffffffffffffffff\n        /* \"#utility.yul\":3473:3478   */\n      dup3\n        /* \"#utility.yul\":3469:3523   */\n      and\n        /* \"#utility.yul\":3458:3523   */\n      swap1\n      pop\n        /* \"#utility.yul\":3403:3529   */\n      swap2\n      swap1\n      pop\n      jump\t// out\n        /* \"#utility.yul\":3535:3631   */\n    tag_138:\n        /* \"#utility.yul\":3572:3579   */\n      0x00\n        /* \"#utility.yul\":3601:3625   */\n      tag_213\n        /* \"#utility.yul\":3619:3624   */\n      dup3\n        /* \"#utility.yul\":3601:3625   */\n      tag_137\n      jump\t// in\n    tag_213:\n        /* \"#utility.yul\":3590:3625   */\n      swap1\n      pop\n        /* \"#utility.yul\":3535:3631   */\n      swap2\n      swap1\n      pop\n      jump\t// out\n        /* \"#utility.yul\":3637:3755   */\n    tag_139:\n        /* \"#utility.yul\":3724:3748   */\n      tag_215\n        /* \"#utility.yul\":3742:3747   */\n      dup2\n        /* \"#utility.yul\":3724:3748   */\n      tag_138\n      jump\t// in\n    tag_215:\n        /* \"#utility.yul\":3719:3722   */\n      dup3\n        /* \"#utility.yul\":3712:3749   */\n      mstore\n        /* \"#utility.yul\":3637:3755   */\n      pop\n      pop\n      jump\t// out\n        /* \"#utility.yul\":3761:4314   */\n    tag_36:\n        /* \"#utility.yul\":3938:3942   */\n      0x00\n        /* \"#utility.yul\":3976:3979   */\n      0x80\n        /* \"#utility.yul\":3965:3974   */\n      dup3\n        /* \"#utility.yul\":3961:3980   */\n      add\n        /* \"#utility.yul\":3953:3980   */\n      swap1\n      pop\n        /* \"#utility.yul\":3990:4061   */\n      tag_217\n        /* \"#utility.yul\":4058:4059   */\n      0x00\n        /* \"#utility.yul\":4047:4056   */\n      dup4\n        /* \"#utility.yul\":4043:4060   */\n      add\n        /* \"#utility.yul\":4034:4040   */\n      dup8\n        /* \"#utility.yul\":3990:4061   */\n      tag_136\n      jump\t// in\n    tag_217:\n        /* \"#utility.yul\":4071:4143   */\n      tag_218\n        /* \"#utility.yul\":4139:4141   */\n      0x20\n        /* \"#utility.yul\":4128:4137   */\n      dup4\n        /* \"#utility.yul\":4124:4142   */\n      add\n        /* \"#utility.yul\":4115:4121   */\n      dup7\n        /* \"#utility.yul\":4071:4143   */\n      tag_139\n      jump\t// in\n    tag_218:\n        /* \"#utility.yul\":4153:4225   */\n      tag_219\n        /* \"#utility.yul\":4221:4223   */\n      0x40\n        /* \"#utility.yul\":4210:4219   */\n      dup4\n        /* \"#utility.yul\":4206:4224   */\n      add\n        /* \"#utility.yul\":4197:4203   */\n      dup6\n        /* \"#utility.yul\":4153:4225   */\n      tag_136\n      jump\t// in\n    tag_219:\n        /* \"#utility.yul\":4235:4307   */\n      tag_220\n        /* \"#utility.yul\":4303:4305   */\n      0x60\n        /* \"#utility.yul\":4292:4301   */\n      dup4\n        /* \"#utility.yul\":4288:4306   */\n      add\n        /* \"#utility.yul\":4279:4285   */\n      dup5\n        /* \"#utility.yul\":4235:4307   */\n      tag_136\n      jump\t// in\n    tag_220:\n        /* \"#utility.yul\":3761:4314   */\n      swap6\n      swap5\n      pop\n      pop\n      pop\n      pop\n      pop\n      jump\t// out\n        /* \"#utility.yul\":4320:4437   */\n    tag_140:\n        /* \"#utility.yul\":4429:4430   */\n      0x00\n        /* \"#utility.yul\":4426:4427   */\n      dup1\n        /* \"#utility.yul\":4419:4431   */\n      revert\n        /* \"#utility.yul\":4443:4560   */\n    tag_141:\n        /* \"#utility.yul\":4552:4553   */\n      0x00\n        /* \"#utility.yul\":4549:4550   */\n      dup1\n        /* \"#utility.yul\":4542:4554   */\n      revert\n        /* \"#utility.yul\":4566:4746   */\n    tag_142:\n        /* \"#utility.yul\":4614:4691   */\n      0x4e487b7100000000000000000000000000000000000000000000000000000000\n        /* \"#utility.yul\":4611:4612   */\n      0x00\n        /* \"#utility.yul\":4604:4692   */\n      mstore\n        /* \"#utility.yul\":4711:4715   */\n      0x41\n        /* \"#utility.yul\":4708:4709   */\n      0x04\n        /* \"#utility.yul\":4701:4716   */\n      mstore\n        /* \"#utility.yul\":4735:4739   */\n      0x24\n        /* \"#utility.yul\":4732:4733   */\n      0x00\n        /* \"#utility.yul\":4725:4740   */\n      revert\n        /* \"#utility.yul\":4752:5033   */\n    tag_143:\n        /* \"#utility.yul\":4835:4862   */\n      tag_225\n        /* \"#utility.yul\":4857:4861   */\n      dup3\n        /* \"#utility.yul\":4835:4862   */\n      tag_134\n      jump\t// in\n    tag_225:\n        /* \"#utility.yul\":4827:4833   */\n      dup2\n        /* \"#utility.yul\":4823:4863   */\n      add\n        /* \"#utility.yul\":4965:4971   */\n      dup2\n        /* \"#utility.yul\":4953:4963   */\n      dup2\n        /* \"#utility.yul\":4950:4972   */\n      lt\n        /* \"#utility.yul\":4929:4947   */\n      0xffffffffffffffff\n        /* \"#utility.yul\":4917:4927   */\n      dup3\n        /* \"#utility.yul\":4914:4948   */\n      gt\n        /* \"#utility.yul\":4911:4973   */\n      or\n        /* \"#utility.yul\":4908:4996   */\n      iszero\n      tag_226\n      jumpi\n        /* \"#utility.yul\":4976:4994   */\n      tag_227\n      tag_142\n      jump\t// in\n    tag_227:\n        /* \"#utility.yul\":4908:4996   */\n    tag_226:\n        /* \"#utility.yul\":5016:5026   */\n      dup1\n        /* \"#utility.yul\":5012:5014   */\n      0x40\n        /* \"#utility.yul\":5005:5027   */\n      mstore\n        /* \"#utility.yul\":4795:5033   */\n      pop\n        /* \"#utility.yul\":4752:5033   */\n      pop\n      pop\n      jump\t// out\n        /* \"#utility.yul\":5039:5168   */\n    tag_144:\n        /* \"#utility.yul\":5073:5079   */\n      0x00\n        /* \"#utility.yul\":5100:5120   */\n      tag_229\n      tag_125\n      jump\t// in\n    tag_229:\n        /* \"#utility.yul\":5090:5120   */\n      swap1\n      pop\n        /* \"#utility.yul\":5129:5162   */\n      tag_230\n        /* \"#utility.yul\":5157:5161   */\n      dup3\n        /* \"#utility.yul\":5149:5155   */\n      dup3\n        /* \"#utility.yul\":5129:5162   */\n      tag_143\n      jump\t// in\n    tag_230:\n        /* \"#utility.yul\":5039:5168   */\n      swap2\n      swap1\n      pop\n      jump\t// out\n        /* \"#utility.yul\":5174:5482   */\n    tag_145:\n        /* \"#utility.yul\":5236:5240   */\n      0x00\n        /* \"#utility.yul\":5326:5344   */\n      0xffffffffffffffff\n        /* \"#utility.yul\":5318:5324   */\n      dup3\n        /* \"#utility.yul\":5315:5345   */\n      gt\n        /* \"#utility.yul\":5312:5368   */\n      iszero\n      tag_232\n      jumpi\n        /* \"#utility.yul\":5348:5366   */\n      tag_233\n      tag_142\n      jump\t// in\n    tag_233:\n        /* \"#utility.yul\":5312:5368   */\n    tag_232:\n        /* \"#utility.yul\":5386:5415   */\n      tag_234\n        /* \"#utility.yul\":5408:5414   */\n      dup3\n        /* \"#utility.yul\":5386:5415   */\n      tag_134\n      jump\t// in\n    tag_234:\n        /* \"#utility.yul\":5378:5415   */\n      swap1\n      pop\n        /* \"#utility.yul\":5470:5474   */\n      0x20\n        /* \"#utility.yul\":5464:5468   */\n      dup2\n        /* \"#utility.yul\":5460:5475   */\n      add\n        /* \"#utility.yul\":5452:5475   */\n      swap1\n      pop\n        /* \"#utility.yul\":5174:5482   */\n      swap2\n      swap1\n      pop\n      jump\t// out\n        /* \"#utility.yul\":5488:5636   */\n    tag_146:\n        /* \"#utility.yul\":5586:5592   */\n      dup3\n        /* \"#utility.yul\":5581:5584   */\n      dup2\n        /* \"#utility.yul\":5576:5579   */\n      dup4\n        /* \"#utility.yul\":5563:5593   */\n      calldatacopy\n        /* \"#utility.yul\":5627:5628   */\n      0x00\n        /* \"#utility.yul\":5618:5624   */\n      dup4\n        /* \"#utility.yul\":5613:5616   */\n      dup4\n        /* \"#utility.yul\":5609:5625   */\n      add\n        /* \"#utility.yul\":5602:5629   */\n      mstore\n        /* \"#utility.yul\":5488:5636   */\n      pop\n      pop\n      pop\n      jump\t// out\n        /* \"#utility.yul\":5642:6067   */\n    tag_147:\n        /* \"#utility.yul\":5720:5725   */\n      0x00\n        /* \"#utility.yul\":5745:5811   */\n      tag_237\n        /* \"#utility.yul\":5761:5810   */\n      tag_238\n        /* \"#utility.yul\":5803:5809   */\n      dup5\n        /* \"#utility.yul\":5761:5810   */\n      tag_145\n      jump\t// in\n    tag_238:\n        /* \"#utility.yul\":5745:5811   */\n      tag_144\n      jump\t// in\n    tag_237:\n        /* \"#utility.yul\":5736:5811   */\n      swap1\n      pop\n        /* \"#utility.yul\":5834:5840   */\n      dup3\n        /* \"#utility.yul\":5827:5832   */\n      dup2\n        /* \"#utility.yul\":5820:5841   */\n      mstore\n        /* \"#utility.yul\":5872:5876   */\n      0x20\n        /* \"#utility.yul\":5865:5870   */\n      dup2\n        /* \"#utility.yul\":5861:5877   */\n      add\n        /* \"#utility.yul\":5910:5913   */\n      dup5\n        /* \"#utility.yul\":5901:5907   */\n      dup5\n        /* \"#utility.yul\":5896:5899   */\n      dup5\n        /* \"#utility.yul\":5892:5908   */\n      add\n        /* \"#utility.yul\":5889:5914   */\n      gt\n        /* \"#utility.yul\":5886:5998   */\n      iszero\n      tag_239\n      jumpi\n        /* \"#utility.yul\":5917:5996   */\n      tag_240\n      tag_141\n      jump\t// in\n    tag_240:\n        /* \"#utility.yul\":5886:5998   */\n    tag_239:\n        /* \"#utility.yul\":6007:6061   */\n      tag_241\n        /* \"#utility.yul\":6054:6060   */\n      dup5\n        /* \"#utility.yul\":6049:6052   */\n      dup3\n        /* \"#utility.yul\":6044:6047   */\n      dup6\n        /* \"#utility.yul\":6007:6061   */\n      tag_146\n      jump\t// in\n    tag_241:\n        /* \"#utility.yul\":5726:6067   */\n      pop\n        /* \"#utility.yul\":5642:6067   */\n      swap4\n      swap3\n      pop\n      pop\n      pop\n      jump\t// out\n        /* \"#utility.yul\":6087:6427   */\n    tag_148:\n        /* \"#utility.yul\":6143:6148   */\n      0x00\n        /* \"#utility.yul\":6192:6195   */\n      dup3\n        /* \"#utility.yul\":6185:6189   */\n      0x1f\n        /* \"#utility.yul\":6177:6183   */\n      dup4\n        /* \"#utility.yul\":6173:6190   */\n      add\n        /* \"#utility.yul\":6169:6196   */\n      slt\n        /* \"#utility.yul\":6159:6281   */\n      tag_243\n      jumpi\n        /* \"#utility.yul\":6200:6279   */\n      tag_244\n      tag_140\n      jump\t// in\n    tag_244:\n        /* \"#utility.yul\":6159:6281   */\n    tag_243:\n        /* \"#utility.yul\":6317:6323   */\n      dup2\n        /* \"#utility.yul\":6304:6324   */\n      calldataload\n        /* \"#utility.yul\":6342:6421   */\n      tag_245\n        /* \"#utility.yul\":6417:6420   */\n      dup5\n        /* \"#utility.yul\":6409:6415   */\n      dup3\n        /* \"#utility.yul\":6402:6406   */\n      0x20\n        /* \"#utility.yul\":6394:6400   */\n      dup7\n        /* \"#utility.yul\":6390:6407   */\n      add\n        /* \"#utility.yul\":6342:6421   */\n      tag_147\n      jump\t// in\n    tag_245:\n        /* \"#utility.yul\":6333:6421   */\n      swap2\n      pop\n        /* \"#utility.yul\":6149:6427   */\n      pop\n        /* \"#utility.yul\":6087:6427   */\n      swap3\n      swap2\n      pop\n      pop\n      jump\t// out\n        /* \"#utility.yul\":6433:7558   */\n    tag_40:\n        /* \"#utility.yul\":6539:6545   */\n      0x00\n        /* \"#utility.yul\":6547:6553   */\n      dup1\n        /* \"#utility.yul\":6555:6561   */\n      0x00\n        /* \"#utility.yul\":6563:6569   */\n      dup1\n        /* \"#utility.yul\":6612:6615   */\n      0x80\n        /* \"#utility.yul\":6600:6609   */\n      dup6\n        /* \"#utility.yul\":6591:6598   */\n      dup8\n        /* \"#utility.yul\":6587:6610   */\n      sub\n        /* \"#utility.yul\":6583:6616   */\n      slt\n        /* \"#utility.yul\":6580:6700   */\n      iszero\n      tag_247\n      jumpi\n        /* \"#utility.yul\":6619:6698   */\n      tag_248\n      tag_126\n      jump\t// in\n    tag_248:\n        /* \"#utility.yul\":6580:6700   */\n    tag_247:\n        /* \"#utility.yul\":6739:6740   */\n      0x00\n        /* \"#utility.yul\":6764:6817   */\n      tag_249\n        /* \"#utility.yul\":6809:6816   */\n      dup8\n        /* \"#utility.yul\":6800:6806   */\n      dup3\n        /* \"#utility.yul\":6789:6798   */\n      dup9\n        /* \"#utility.yul\":6785:6807   */\n      add\n        /* \"#utility.yul\":6764:6817   */\n      tag_130\n      jump\t// in\n    tag_249:\n        /* \"#utility.yul\":6754:6817   */\n      swap5\n      pop\n        /* \"#utility.yul\":6710:6827   */\n      pop\n        /* \"#utility.yul\":6894:6896   */\n      0x20\n        /* \"#utility.yul\":6883:6892   */\n      dup6\n        /* \"#utility.yul\":6879:6897   */\n      add\n        /* \"#utility.yul\":6866:6898   */\n      calldataload\n        /* \"#utility.yul\":6925:6943   */\n      0xffffffffffffffff\n        /* \"#utility.yul\":6917:6923   */\n      dup2\n        /* \"#utility.yul\":6914:6944   */\n      gt\n        /* \"#utility.yul\":6911:7028   */\n      iszero\n      tag_250\n      jumpi\n        /* \"#utility.yul\":6947:7026   */\n      tag_251\n      tag_127\n      jump\t// in\n    tag_251:\n        /* \"#utility.yul\":6911:7028   */\n    tag_250:\n        /* \"#utility.yul\":7052:7115   */\n      tag_252\n        /* \"#utility.yul\":7107:7114   */\n      dup8\n        /* \"#utility.yul\":7098:7104   */\n      dup3\n        /* \"#utility.yul\":7087:7096   */\n      dup9\n        /* \"#utility.yul\":7083:7105   */\n      add\n        /* \"#utility.yul\":7052:7115   */\n      tag_148\n      jump\t// in\n    tag_252:\n        /* \"#utility.yul\":7042:7115   */\n      swap4\n      pop\n        /* \"#utility.yul\":6837:7125   */\n      pop\n        /* \"#utility.yul\":7192:7194   */\n      0x40\n        /* \"#utility.yul\":7181:7190   */\n      dup6\n        /* \"#utility.yul\":7177:7195   */\n      add\n        /* \"#utility.yul\":7164:7196   */\n      calldataload\n        /* \"#utility.yul\":7223:7241   */\n      0xffffffffffffffff\n        /* \"#utility.yul\":7215:7221   */\n      dup2\n        /* \"#utility.yul\":7212:7242   */\n      gt\n        /* \"#utility.yul\":7209:7326   */\n      iszero\n      tag_253\n      jumpi\n        /* \"#utility.yul\":7245:7324   */\n      tag_254\n      tag_127\n      jump\t// in\n    tag_254:\n        /* \"#utility.yul\":7209:7326   */\n    tag_253:\n        /* \"#utility.yul\":7350:7413   */\n      tag_255\n        /* \"#utility.yul\":7405:7412   */\n      dup8\n        /* \"#utility.yul\":7396:7402   */\n      dup3\n        /* \"#utility.yul\":7385:7394   */\n      dup9\n        /* \"#utility.yul\":7381:7403   */\n      add\n        /* \"#utility.yul\":7350:7413   */\n      tag_148\n      jump\t// in\n    tag_255:\n        /* \"#utility.yul\":7340:7413   */\n      swap3\n      pop\n        /* \"#utility.yul\":7135:7423   */\n      pop\n        /* \"#utility.yul\":7462:7464   */\n      0x60\n        /* \"#utility.yul\":7488:7541   */\n      tag_256\n        /* \"#utility.yul\":7533:7540   */\n      dup8\n        /* \"#utility.yul\":7524:7530   */\n      dup3\n        /* \"#utility.yul\":7513:7522   */\n      dup9\n        /* \"#utility.yul\":7509:7531   */\n      add\n        /* \"#utility.yul\":7488:7541   */\n      tag_130\n      jump\t// in\n    tag_256:\n        /* \"#utility.yul\":7478:7541   */\n      swap2\n      pop\n        /* \"#utility.yul\":7433:7551   */\n      pop\n        /* \"#utility.yul\":6433:7558   */\n      swap3\n      swap6\n      swap2\n      swap5\n      pop\n      swap3\n      pop\n      jump\t// out\n        /* \"#utility.yul\":7564:7686   */\n    tag_149:\n        /* \"#utility.yul\":7637:7661   */\n      tag_258\n        /* \"#utility.yul\":7655:7660   */\n      dup2\n        /* \"#utility.yul\":7637:7661   */\n      tag_138\n      jump\t// in\n    tag_258:\n        /* \"#utility.yul\":7630:7635   */\n      dup2\n        /* \"#utility.yul\":7627:7662   */\n      eq\n        /* \"#utility.yul\":7617:7680   */\n      tag_259\n      jumpi\n        /* \"#utility.yul\":7676:7677   */\n      0x00\n        /* \"#utility.yul\":7673:7674   */\n      dup1\n        /* \"#utility.yul\":7666:7678   */\n      revert\n        /* \"#utility.yul\":7617:7680   */\n    tag_259:\n        /* \"#utility.yul\":7564:7686   */\n      pop\n      jump\t// out\n        /* \"#utility.yul\":7692:7831   */\n    tag_150:\n        /* \"#utility.yul\":7738:7743   */\n      0x00\n        /* \"#utility.yul\":7776:7782   */\n      dup2\n        /* \"#utility.yul\":7763:7783   */\n      calldataload\n        /* \"#utility.yul\":7754:7783   */\n      swap1\n      pop\n        /* \"#utility.yul\":7792:7825   */\n      tag_261\n        /* \"#utility.yul\":7819:7824   */\n      dup2\n        /* \"#utility.yul\":7792:7825   */\n      tag_149\n      jump\t// in\n    tag_261:\n        /* \"#utility.yul\":7692:7831   */\n      swap3\n      swap2\n      pop\n      pop\n      jump\t// out\n        /* \"#utility.yul\":7837:8456   */\n    tag_52:\n        /* \"#utility.yul\":7914:7920   */\n      0x00\n        /* \"#utility.yul\":7922:7928   */\n      dup1\n        /* \"#utility.yul\":7930:7936   */\n      0x00\n        /* \"#utility.yul\":7979:7981   */\n      0x60\n        /* \"#utility.yul\":7967:7976   */\n      dup5\n        /* \"#utility.yul\":7958:7965   */\n      dup7\n        /* \"#utility.yul\":7954:7977   */\n      sub\n        /* \"#utility.yul\":7950:7982   */\n      slt\n        /* \"#utility.yul\":7947:8066   */\n      iszero\n      tag_263\n      jumpi\n        /* \"#utility.yul\":7985:8064   */\n      tag_264\n      tag_126\n      jump\t// in\n    tag_264:\n        /* \"#utility.yul\":7947:8066   */\n    tag_263:\n        /* \"#utility.yul\":8105:8106   */\n      0x00\n        /* \"#utility.yul\":8130:8183   */\n      tag_265\n        /* \"#utility.yul\":8175:8182   */\n      dup7\n        /* \"#utility.yul\":8166:8172   */\n      dup3\n        /* \"#utility.yul\":8155:8164   */\n      dup8\n        /* \"#utility.yul\":8151:8173   */\n      add\n        /* \"#utility.yul\":8130:8183   */\n      tag_130\n      jump\t// in\n    tag_265:\n        /* \"#utility.yul\":8120:8183   */\n      swap4\n      pop\n        /* \"#utility.yul\":8076:8193   */\n      pop\n        /* \"#utility.yul\":8232:8234   */\n      0x20\n        /* \"#utility.yul\":8258:8311   */\n      tag_266\n        /* \"#utility.yul\":8303:8310   */\n      dup7\n        /* \"#utility.yul\":8294:8300   */\n      dup3\n        /* \"#utility.yul\":8283:8292   */\n      dup8\n        /* \"#utility.yul\":8279:8301   */\n      add\n        /* \"#utility.yul\":8258:8311   */\n      tag_130\n      jump\t// in\n    tag_266:\n        /* \"#utility.yul\":8248:8311   */\n      swap3\n      pop\n        /* \"#utility.yul\":8203:8321   */\n      pop\n        /* \"#utility.yul\":8360:8362   */\n      0x40\n        /* \"#utility.yul\":8386:8439   */\n      tag_267\n        /* \"#utility.yul\":8431:8438   */\n      dup7\n        /* \"#utility.yul\":8422:8428   */\n      dup3\n        /* \"#utility.yul\":8411:8420   */\n      dup8\n        /* \"#utility.yul\":8407:8429   */\n      add\n        /* \"#utility.yul\":8386:8439   */\n      tag_150\n      jump\t// in\n    tag_267:\n        /* \"#utility.yul\":8376:8439   */\n      swap2\n      pop\n        /* \"#utility.yul\":8331:8449   */\n      pop\n        /* \"#utility.yul\":7837:8456   */\n      swap3\n      pop\n      swap3\n      pop\n      swap3\n      jump\t// out\n        /* \"#utility.yul\":8462:9116   */\n    tag_57:\n        /* \"#utility.yul\":8540:8546   */\n      0x00\n        /* \"#utility.yul\":8548:8554   */\n      dup1\n        /* \"#utility.yul\":8597:8599   */\n      0x40\n        /* \"#utility.yul\":8585:8594   */\n      dup4\n        /* \"#utility.yul\":8576:8583   */\n      dup6\n        /* \"#utility.yul\":8572:8595   */\n      sub\n        /* \"#utility.yul\":8568:8600   */\n      slt\n        /* \"#utility.yul\":8565:8684   */\n      iszero\n      tag_269\n      jumpi\n        /* \"#utility.yul\":8603:8682   */\n      tag_270\n      tag_126\n      jump\t// in\n    tag_270:\n        /* \"#utility.yul\":8565:8684   */\n    tag_269:\n        /* \"#utility.yul\":8751:8752   */\n      0x00\n        /* \"#utility.yul\":8740:8749   */\n      dup4\n        /* \"#utility.yul\":8736:8753   */\n      add\n        /* \"#utility.yul\":8723:8754   */\n      calldataload\n        /* \"#utility.yul\":8781:8799   */\n      0xffffffffffffffff\n        /* \"#utility.yul\":8773:8779   */\n      dup2\n        /* \"#utility.yul\":8770:8800   */\n      gt\n        /* \"#utility.yul\":8767:8884   */\n      iszero\n      tag_271\n      jumpi\n        /* \"#utility.yul\":8803:8882   */\n      tag_272\n      tag_127\n      jump\t// in\n    tag_272:\n        /* \"#utility.yul\":8767:8884   */\n    tag_271:\n        /* \"#utility.yul\":8908:8971   */\n      tag_273\n        /* \"#utility.yul\":8963:8970   */\n      dup6\n        /* \"#utility.yul\":8954:8960   */\n      dup3\n        /* \"#utility.yul\":8943:8952   */\n      dup7\n        /* \"#utility.yul\":8939:8961   */\n      add\n        /* \"#utility.yul\":8908:8971   */\n      tag_148\n      jump\t// in\n    tag_273:\n        /* \"#utility.yul\":8898:8971   */\n      swap3\n      pop\n        /* \"#utility.yul\":8694:8981   */\n      pop\n        /* \"#utility.yul\":9020:9022   */\n      0x20\n        /* \"#utility.yul\":9046:9099   */\n      tag_274\n        /* \"#utility.yul\":9091:9098   */\n      dup6\n        /* \"#utility.yul\":9082:9088   */\n      dup3\n        /* \"#utility.yul\":9071:9080   */\n      dup7\n        /* \"#utility.yul\":9067:9089   */\n      add\n        /* \"#utility.yul\":9046:9099   */\n      tag_130\n      jump\t// in\n    tag_274:\n        /* \"#utility.yul\":9036:9099   */\n      swap2\n      pop\n        /* \"#utility.yul\":8991:9109   */\n      pop\n        /* \"#utility.yul\":8462:9116   */\n      swap3\n      pop\n      swap3\n      swap1\n      pop\n      jump\t// out\n        /* \"#utility.yul\":9122:9766   */\n    tag_64:\n        /* \"#utility.yul\":9319:9323   */\n      0x00\n        /* \"#utility.yul\":9357:9360   */\n      0x80\n        /* \"#utility.yul\":9346:9355   */\n      dup3\n        /* \"#utility.yul\":9342:9361   */\n      add\n        /* \"#utility.yul\":9334:9361   */\n      swap1\n      pop\n        /* \"#utility.yul\":9371:9442   */\n      tag_276\n        /* \"#utility.yul\":9439:9440   */\n      0x00\n        /* \"#utility.yul\":9428:9437   */\n      dup4\n        /* \"#utility.yul\":9424:9441   */\n      add\n        /* \"#utility.yul\":9415:9421   */\n      dup8\n        /* \"#utility.yul\":9371:9442   */\n      tag_136\n      jump\t// in\n    tag_276:\n        /* \"#utility.yul\":9489:9498   */\n      dup2\n        /* \"#utility.yul\":9483:9487   */\n      dup2\n        /* \"#utility.yul\":9479:9499   */\n      sub\n        /* \"#utility.yul\":9474:9476   */\n      0x20\n        /* \"#utility.yul\":9463:9472   */\n      dup4\n        /* \"#utility.yul\":9459:9477   */\n      add\n        /* \"#utility.yul\":9452:9500   */\n      mstore\n        /* \"#utility.yul\":9517:9595   */\n      tag_277\n        /* \"#utility.yul\":9590:9594   */\n      dup2\n        /* \"#utility.yul\":9581:9587   */\n      dup7\n        /* \"#utility.yul\":9517:9595   */\n      tag_135\n      jump\t// in\n    tag_277:\n        /* \"#utility.yul\":9509:9595   */\n      swap1\n      pop\n        /* \"#utility.yul\":9605:9677   */\n      tag_278\n        /* \"#utility.yul\":9673:9675   */\n      0x40\n        /* \"#utility.yul\":9662:9671   */\n      dup4\n        /* \"#utility.yul\":9658:9676   */\n      add\n        /* \"#utility.yul\":9649:9655   */\n      dup6\n        /* \"#utility.yul\":9605:9677   */\n      tag_139\n      jump\t// in\n    tag_278:\n        /* \"#utility.yul\":9687:9759   */\n      tag_279\n        /* \"#utility.yul\":9755:9757   */\n      0x60\n        /* \"#utility.yul\":9744:9753   */\n      dup4\n        /* \"#utility.yul\":9740:9758   */\n      add\n        /* \"#utility.yul\":9731:9737   */\n      dup5\n        /* \"#utility.yul\":9687:9759   */\n      tag_136\n      jump\t// in\n    tag_279:\n        /* \"#utility.yul\":9122:9766   */\n      swap6\n      swap5\n      pop\n      pop\n      pop\n      pop\n      pop\n      jump\t// out\n        /* \"#utility.yul\":9772:9952   */\n    tag_151:\n        /* \"#utility.yul\":9820:9897   */\n      0x4e487b7100000000000000000000000000000000000000000000000000000000\n        /* \"#utility.yul\":9817:9818   */\n      0x00\n        /* \"#utility.yul\":9810:9898   */\n      mstore\n        /* \"#utility.yul\":9917:9921   */\n      0x22\n        /* \"#utility.yul\":9914:9915   */\n      0x04\n        /* \"#utility.yul\":9907:9922   */\n      mstore\n        /* \"#utility.yul\":9941:9945   */\n      0x24\n        /* \"#utility.yul\":9938:9939   */\n      0x00\n        /* \"#utility.yul\":9931:9946   */\n      revert\n        /* \"#utility.yul\":9958:10278   */\n    tag_68:\n        /* \"#utility.yul\":10002:10008   */\n      0x00\n        /* \"#utility.yul\":10039:10040   */\n      0x02\n        /* \"#utility.yul\":10033:10037   */\n      dup3\n        /* \"#utility.yul\":10029:10041   */\n      div\n        /* \"#utility.yul\":10019:10041   */\n      swap1\n      pop\n        /* \"#utility.yul\":10086:10087   */\n      0x01\n        /* \"#utility.yul\":10080:10084   */\n      dup3\n        /* \"#utility.yul\":10076:10088   */\n      and\n        /* \"#utility.yul\":10107:10125   */\n      dup1\n        /* \"#utility.yul\":10097:10178   */\n      tag_282\n      jumpi\n        /* \"#utility.yul\":10163:10167   */\n      0x7f\n        /* \"#utility.yul\":10155:10161   */\n      dup3\n        /* \"#utility.yul\":10151:10168   */\n      and\n        /* \"#utility.yul\":10141:10168   */\n      swap2\n      pop\n        /* \"#utility.yul\":10097:10178   */\n    tag_282:\n        /* \"#utility.yul\":10225:10227   */\n      0x20\n        /* \"#utility.yul\":10217:10223   */\n      dup3\n        /* \"#utility.yul\":10214:10228   */\n      lt\n        /* \"#utility.yul\":10194:10212   */\n      dup2\n        /* \"#utility.yul\":10191:10229   */\n      sub\n        /* \"#utility.yul\":10188:10272   */\n      tag_283\n      jumpi\n        /* \"#utility.yul\":10244:10262   */\n      tag_284\n      tag_151\n      jump\t// in\n    tag_284:\n        /* \"#utility.yul\":10188:10272   */\n    tag_283:\n        /* \"#utility.yul\":10009:10278   */\n      pop\n        /* \"#utility.yul\":9958:10278   */\n      swap2\n      swap1\n      pop\n      jump\t// out\n        /* \"#utility.yul\":10284:10464   */\n    tag_89:\n        /* \"#utility.yul\":10332:10409   */\n      0x4e487b7100000000000000000000000000000000000000000000000000000000\n        /* \"#utility.yul\":10329:10330   */\n      0x00\n        /* \"#utility.yul\":10322:10410   */\n      mstore\n        /* \"#utility.yul\":10429:10433   */\n      0x32\n        /* \"#utility.yul\":10426:10427   */\n      0x04\n        /* \"#utility.yul\":10419:10434   */\n      mstore\n        /* \"#utility.yul\":10453:10457   */\n      0x24\n        /* \"#utility.yul\":10450:10451   */\n      0x00\n        /* \"#utility.yul\":10443:10458   */\n      revert\n        /* \"#utility.yul\":10470:10650   */\n    tag_152:\n        /* \"#utility.yul\":10518:10595   */\n      0x4e487b7100000000000000000000000000000000000000000000000000000000\n        /* \"#utility.yul\":10515:10516   */\n      0x00\n        /* \"#utility.yul\":10508:10596   */\n      mstore\n        /* \"#utility.yul\":10615:10619   */\n      0x11\n        /* \"#utility.yul\":10612:10613   */\n      0x04\n        /* \"#utility.yul\":10605:10620   */\n      mstore\n        /* \"#utility.yul\":10639:10643   */\n      0x24\n        /* \"#utility.yul\":10636:10637   */\n      0x00\n        /* \"#utility.yul\":10629:10644   */\n      revert\n        /* \"#utility.yul\":10656:10847   */\n    tag_92:\n        /* \"#utility.yul\":10696:10699   */\n      0x00\n        /* \"#utility.yul\":10715:10735   */\n      tag_288\n        /* \"#utility.yul\":10733:10734   */\n      dup3\n        /* \"#utility.yul\":10715:10735   */\n      tag_128\n      jump\t// in\n    tag_288:\n        /* \"#utility.yul\":10710:10735   */\n      swap2\n      pop\n        /* \"#utility.yul\":10749:10769   */\n      tag_289\n        /* \"#utility.yul\":10767:10768   */\n      dup4\n        /* \"#utility.yul\":10749:10769   */\n      tag_128\n      jump\t// in\n    tag_289:\n        /* \"#utility.yul\":10744:10769   */\n      swap3\n      pop\n        /* \"#utility.yul\":10792:10793   */\n      dup3\n        /* \"#utility.yul\":10789:10790   */\n      dup3\n        /* \"#utility.yul\":10785:10794   */\n      add\n        /* \"#utility.yul\":10778:10794   */\n      swap1\n      pop\n        /* \"#utility.yul\":10813:10816   */\n      dup1\n        /* \"#utility.yul\":10810:10811   */\n      dup3\n        /* \"#utility.yul\":10807:10817   */\n      gt\n        /* \"#utility.yul\":10804:10840   */\n      iszero\n      tag_290\n      jumpi\n        /* \"#utility.yul\":10820:10838   */\n      tag_291\n      tag_152\n      jump\t// in\n    tag_291:\n        /* \"#utility.yul\":10804:10840   */\n    tag_290:\n        /* \"#utility.yul\":10656:10847   */\n      swap3\n      swap2\n      pop\n      pop\n      jump\t// out\n        /* \"#utility.yul\":10853:11077   */\n    tag_153:\n        /* \"#utility.yul\":10993:11027   */\n      0x4f6e6c7920706174656e74206f776e65722063616e206c6f6720616374697669\n        /* \"#utility.yul\":10989:10990   */\n      0x00\n        /* \"#utility.yul\":10981:10987   */\n      dup3\n        /* \"#utility.yul\":10977:10991   */\n      add\n        /* \"#utility.yul\":10970:11028   */\n      mstore\n        /* \"#utility.yul\":11062:11069   */\n      0x746965732e000000000000000000000000000000000000000000000000000000\n        /* \"#utility.yul\":11057:11059   */\n      0x20\n        /* \"#utility.yul\":11049:11055   */\n      dup3\n        /* \"#utility.yul\":11045:11060   */\n      add\n        /* \"#utility.yul\":11038:11070   */\n      mstore\n        /* \"#utility.yul\":10853:11077   */\n      pop\n      jump\t// out\n        /* \"#utility.yul\":11083:11449   */\n    tag_154:\n        /* \"#utility.yul\":11225:11228   */\n      0x00\n        /* \"#utility.yul\":11246:11313   */\n      tag_294\n        /* \"#utility.yul\":11310:11312   */\n      0x25\n        /* \"#utility.yul\":11305:11308   */\n      dup4\n        /* \"#utility.yul\":11246:11313   */\n      tag_132\n      jump\t// in\n    tag_294:\n        /* \"#utility.yul\":11239:11313   */\n      swap2\n      pop\n        /* \"#utility.yul\":11322:11415   */\n      tag_295\n        /* \"#utility.yul\":11411:11414   */\n      dup3\n        /* \"#utility.yul\":11322:11415   */\n      tag_153\n      jump\t// in\n    tag_295:\n        /* \"#utility.yul\":11440:11442   */\n      0x40\n        /* \"#utility.yul\":11435:11438   */\n      dup3\n        /* \"#utility.yul\":11431:11443   */\n      add\n        /* \"#utility.yul\":11424:11443   */\n      swap1\n      pop\n        /* \"#utility.yul\":11083:11449   */\n      swap2\n      swap1\n      pop\n      jump\t// out\n        /* \"#utility.yul\":11455:11874   */\n    tag_97:\n        /* \"#utility.yul\":11621:11625   */\n      0x00\n        /* \"#utility.yul\":11659:11661   */\n      0x20\n        /* \"#utility.yul\":11648:11657   */\n      dup3\n        /* \"#utility.yul\":11644:11662   */\n      add\n        /* \"#utility.yul\":11636:11662   */\n      swap1\n      pop\n        /* \"#utility.yul\":11708:11717   */\n      dup2\n        /* \"#utility.yul\":11702:11706   */\n      dup2\n        /* \"#utility.yul\":11698:11718   */\n      sub\n        /* \"#utility.yul\":11694:11695   */\n      0x00\n        /* \"#utility.yul\":11683:11692   */\n      dup4\n        /* \"#utility.yul\":11679:11696   */\n      add\n        /* \"#utility.yul\":11672:11719   */\n      mstore\n        /* \"#utility.yul\":11736:11867   */\n      tag_297\n        /* \"#utility.yul\":11862:11866   */\n      dup2\n        /* \"#utility.yul\":11736:11867   */\n      tag_154\n      jump\t// in\n    tag_297:\n        /* \"#utility.yul\":11728:11867   */\n      swap1\n      pop\n        /* \"#utility.yul\":11455:11874   */\n      swap2\n      swap1\n      pop\n      jump\t// out\n        /* \"#utility.yul\":11880:12021   */\n    tag_155:\n        /* \"#utility.yul\":11929:11933   */\n      0x00\n        /* \"#utility.yul\":11952:11955   */\n      dup2\n        /* \"#utility.yul\":11944:11955   */\n      swap1\n      pop\n        /* \"#utility.yul\":11975:11978   */\n      dup2\n        /* \"#utility.yul\":11972:11973   */\n      0x00\n        /* \"#utility.yul\":11965:11979   */\n      mstore\n        /* \"#utility.yul\":12009:12013   */\n      0x20\n        /* \"#utility.yul\":12006:12007   */\n      0x00\n        /* \"#utility.yul\":11996:12014   */\n      keccak256\n        /* \"#utility.yul\":11988:12014   */\n      swap1\n      pop\n        /* \"#utility.yul\":11880:12021   */\n      swap2\n      swap1\n      pop\n      jump\t// out\n        /* \"#utility.yul\":12027:12120   */\n    tag_156:\n        /* \"#utility.yul\":12064:12070   */\n      0x00\n        /* \"#utility.yul\":12111:12113   */\n      0x20\n        /* \"#utility.yul\":12106:12108   */\n      0x1f\n        /* \"#utility.yul\":12099:12104   */\n      dup4\n        /* \"#utility.yul\":12095:12109   */\n      add\n        /* \"#utility.yul\":12091:12114   */\n      div\n        /* \"#utility.yul\":12081:12114   */\n      swap1\n      pop\n        /* \"#utility.yul\":12027:12120   */\n      swap2\n      swap1\n      pop\n      jump\t// out\n        /* \"#utility.yul\":12126:12233   */\n    tag_157:\n        /* \"#utility.yul\":12170:12178   */\n      0x00\n        /* \"#utility.yul\":12220:12225   */\n      dup3\n        /* \"#utility.yul\":12214:12218   */\n      dup3\n        /* \"#utility.yul\":12210:12226   */\n      shl\n        /* \"#utility.yul\":12189:12226   */\n      swap1\n      pop\n        /* \"#utility.yul\":12126:12233   */\n      swap3\n      swap2\n      pop\n      pop\n      jump\t// out\n        /* \"#utility.yul\":12239:12632   */\n    tag_158:\n        /* \"#utility.yul\":12308:12314   */\n      0x00\n        /* \"#utility.yul\":12358:12359   */\n      0x08\n        /* \"#utility.yul\":12346:12356   */\n      dup4\n        /* \"#utility.yul\":12342:12360   */\n      mul\n        /* \"#utility.yul\":12381:12478   */\n      tag_302\n        /* \"#utility.yul\":12411:12477   */\n      0xffffffffffffffffffffffffffffffffffffffffffffffffffffffffffffffff\n        /* \"#utility.yul\":12400:12409   */\n      dup3\n        /* \"#utility.yul\":12381:12478   */\n      tag_157\n      jump\t// in\n    tag_302:\n        /* \"#utility.yul\":12499:12538   */\n      tag_303\n        /* \"#utility.yul\":12529:12537   */\n      dup7\n        /* \"#utility.yul\":12518:12527   */\n      dup4\n        /* \"#utility.yul\":12499:12538   */\n      tag_157\n      jump\t// in\n    tag_303:\n        /* \"#utility.yul\":12487:12538   */\n      swap6\n      pop\n        /* \"#utility.yul\":12571:12575   */\n      dup1\n        /* \"#utility.yul\":12567:12576   */\n      not\n        /* \"#utility.yul\":12560:12565   */\n      dup5\n        /* \"#utility.yul\":12556:12577   */\n      and\n        /* \"#utility.yul\":12547:12577   */\n      swap4\n      pop\n        /* \"#utility.yul\":12620:12624   */\n      dup1\n        /* \"#utility.yul\":12610:12618   */\n      dup7\n        /* \"#utility.yul\":12606:12625   */\n      and\n        /* \"#utility.yul\":12599:12604   */\n      dup5\n        /* \"#utility.yul\":12596:12626   */\n      or\n        /* \"#utility.yul\":12586:12626   */\n      swap3\n      pop\n        /* \"#utility.yul\":12315:12632   */\n      pop\n      pop\n        /* \"#utility.yul\":12239:12632   */\n      swap4\n      swap3\n      pop\n      pop\n      pop\n      jump\t// out\n        /* \"#utility.yul\":12638:12698   */\n    tag_159:\n        /* \"#utility.yul\":12666:12669   */\n      0x00\n        /* \"#utility.yul\":12687:12692   */\n      dup2\n        /* \"#utility.yul\":12680:12692   */\n      swap1\n      pop\n        /* \"#utility.yul\":12638:12698   */\n      swap2\n      swap1\n      pop\n      jump\t// out\n        /* \"#utility.yul\":12704:12846   */\n    tag_160:\n        /* \"#utility.yul\":12754:12763   */\n      0x00\n        /* \"#utility.yul\":12787:12840   */\n      tag_306\n        /* \"#utility.yul\":12805:12839   */\n      tag_307\n        /* \"#utility.yul\":12814:12838   */\n      tag_308\n        /* \"#utility.yul\":12832:12837   */\n      dup5\n        /* \"#utility.yul\":12814:12838   */\n      tag_128\n      jump\t// in\n    tag_308:\n        /* \"#utility.yul\":12805:12839   */\n      tag_159\n      jump\t// in\n    tag_307:\n        /* \"#utility.yul\":12787:12840   */\n      tag_128\n      jump\t// in\n    tag_306:\n        /* \"#utility.yul\":12774:12840   */\n      swap1\n      pop\n        /* \"#utility.yul\":12704:12846   */\n      swap2\n      swap1\n      pop\n      jump\t// out\n        /* \"#utility.yul\":12852:12927   */\n    tag_161:\n        /* \"#utility.yul\":12895:12898   */\n      0x00\n        /* \"#utility.yul\":12916:12921   */\n      dup2\n        /* \"#utility.yul\":12909:12921   */\n      swap1\n      pop\n        /* \"#utility.yul\":12852:12927   */\n      swap2\n      swap1\n      pop\n      jump\t// out\n        /* \"#utility.yul\":12933:13202   */\n    tag_162:\n        /* \"#utility.yul\":13043:13082   */\n      tag_311\n        /* \"#utility.yul\":13074:13081   */\n      dup4\n        /* \"#utility.yul\":13043:13082   */\n      tag_160\n      jump\t// in\n    tag_311:\n        /* \"#utility.yul\":13104:13195   */\n      tag_312\n        /* \"#utility.yul\":13153:13194   */\n      tag_313\n        /* \"#utility.yul\":13177:13193   */\n      dup3\n        /* \"#utility.yul\":13153:13194   */\n      tag_161\n      jump\t// in\n    tag_313:\n        /* \"#utility.yul\":13145:13151   */\n      dup5\n        /* \"#utility.yul\":13138:13142   */\n      dup5\n        /* \"#utility.yul\":13132:13143   */\n      sload\n        /* \"#utility.yul\":13104:13195   */\n      tag_158\n      jump\t// in\n    tag_312:\n        /* \"#utility.yul\":13098:13102   */\n      dup3\n        /* \"#utility.yul\":13091:13196   */\n      sstore\n        /* \"#utility.yul\":13009:13202   */\n      pop\n        /* \"#utility.yul\":12933:13202   */\n      pop\n      pop\n      pop\n      jump\t// out\n        /* \"#utility.yul\":13208:13281   */\n    tag_163:\n        /* \"#utility.yul\":13253:13256   */\n      0x00\n        /* \"#utility.yul\":13208:13281   */\n      swap1\n      jump\t// out\n        /* \"#utility.yul\":13287:13476   */\n    tag_164:\n        /* \"#utility.yul\":13364:13396   */\n      tag_316\n      tag_163\n      jump\t// in\n    tag_316:\n        /* \"#utility.yul\":13405:13470   */\n      tag_317\n        /* \"#utility.yul\":13463:13469   */\n      dup2\n        /* \"#utility.yul\":13455:13461   */\n      dup5\n        /* \"#utility.yul\":13449:13453   */\n      dup5\n        /* \"#utility.yul\":13405:13470   */\n      tag_162\n      jump\t// in\n    tag_317:\n        /* \"#utility.yul\":13340:13476   */\n      pop\n        /* \"#utility.yul\":13287:13476   */\n      pop\n      pop\n      jump\t// out\n        /* \"#utility.yul\":13482:13668   */\n    tag_165:\n        /* \"#utility.yul\":13542:13662   */\n    tag_319:\n        /* \"#utility.yul\":13559:13562   */\n      dup2\n        /* \"#utility.yul\":13552:13557   */\n      dup2\n        /* \"#utility.yul\":13549:13563   */\n      lt\n        /* \"#utility.yul\":13542:13662   */\n      iszero\n      tag_321\n      jumpi\n        /* \"#utility.yul\":13613:13652   */\n      tag_322\n        /* \"#utility.yul\":13650:13651   */\n      0x00\n        /* \"#utility.yul\":13643:13648   */\n      dup3\n        /* \"#utility.yul\":13613:13652   */\n      tag_164\n      jump\t// in\n    tag_322:\n        /* \"#utility.yul\":13586:13587   */\n      0x01\n        /* \"#utility.yul\":13579:13584   */\n      dup2\n        /* \"#utility.yul\":13575:13588   */\n      add\n        /* \"#utility.yul\":13566:13588   */\n      swap1\n      pop\n        /* \"#utility.yul\":13542:13662   */\n      jump(tag_319)\n    tag_321:\n        /* \"#utility.yul\":13482:13668   */\n      pop\n      pop\n      jump\t// out\n        /* \"#utility.yul\":13674:14217   */\n    tag_166:\n        /* \"#utility.yul\":13775:13777   */\n      0x1f\n        /* \"#utility.yul\":13770:13773   */\n      dup3\n        /* \"#utility.yul\":13767:13778   */\n      gt\n        /* \"#utility.yul\":13764:14210   */\n      iszero\n      tag_324\n      jumpi\n        /* \"#utility.yul\":13809:13847   */\n      tag_325\n        /* \"#utility.yul\":13841:13846   */\n      dup2\n        /* \"#utility.yul\":13809:13847   */\n      tag_155\n      jump\t// in\n    tag_325:\n        /* \"#utility.yul\":13893:13922   */\n      tag_326\n        /* \"#utility.yul\":13911:13921   */\n      dup5\n        /* \"#utility.yul\":13893:13922   */\n      tag_156\n      jump\t// in\n    tag_326:\n        /* \"#utility.yul\":13883:13891   */\n      dup2\n        /* \"#utility.yul\":13879:13923   */\n      add\n        /* \"#utility.yul\":14076:14078   */\n      0x20\n        /* \"#utility.yul\":14064:14074   */\n      dup6\n        /* \"#utility.yul\":14061:14079   */\n      lt\n        /* \"#utility.yul\":14058:14107   */\n      iszero\n      tag_327\n      jumpi\n        /* \"#utility.yul\":14097:14105   */\n      dup2\n        /* \"#utility.yul\":14082:14105   */\n      swap1\n      pop\n        /* \"#utility.yul\":14058:14107   */\n    tag_327:\n        /* \"#utility.yul\":14120:14200   */\n      tag_328\n        /* \"#utility.yul\":14176:14198   */\n      tag_329\n        /* \"#utility.yul\":14194:14197   */\n      dup6\n        /* \"#utility.yul\":14176:14198   */\n      tag_156\n      jump\t// in\n    tag_329:\n        /* \"#utility.yul\":14166:14174   */\n      dup4\n        /* \"#utility.yul\":14162:14199   */\n      add\n        /* \"#utility.yul\":14149:14160   */\n      dup3\n        /* \"#utility.yul\":14120:14200   */\n      tag_165\n      jump\t// in\n    tag_328:\n        /* \"#utility.yul\":13779:14210   */\n      pop\n      pop\n        /* \"#utility.yul\":13764:14210   */\n    tag_324:\n        /* \"#utility.yul\":13674:14217   */\n      pop\n      pop\n      pop\n      jump\t// out\n        /* \"#utility.yul\":14223:14340   */\n    tag_167:\n        /* \"#utility.yul\":14277:14285   */\n      0x00\n        /* \"#utility.yul\":14327:14332   */\n      dup3\n        /* \"#utility.yul\":14321:14325   */\n      dup3\n        /* \"#utility.yul\":14317:14333   */\n      shr\n        /* \"#utility.yul\":14296:14333   */\n      swap1\n      pop\n        /* \"#utility.yul\":14223:14340   */\n      swap3\n      swap2\n      pop\n      pop\n      jump\t// out\n        /* \"#utility.yul\":14346:14515   */\n    tag_168:\n        /* \"#utility.yul\":14390:14396   */\n      0x00\n        /* \"#utility.yul\":14423:14474   */\n      tag_332\n        /* \"#utility.yul\":14471:14472   */\n      0x00\n        /* \"#utility.yul\":14467:14473   */\n      not\n        /* \"#utility.yul\":14459:14464   */\n      dup5\n        /* \"#utility.yul\":14456:14457   */\n      0x08\n        /* \"#utility.yul\":14452:14465   */\n      mul\n        /* \"#utility.yul\":14423:14474   */\n      tag_167\n      jump\t// in\n    tag_332:\n        /* \"#utility.yul\":14419:14475   */\n      not\n        /* \"#utility.yul\":14504:14508   */\n      dup1\n        /* \"#utility.yul\":14498:14502   */\n      dup4\n        /* \"#utility.yul\":14494:14509   */\n      and\n        /* \"#utility.yul\":14484:14509   */\n      swap2\n      pop\n        /* \"#utility.yul\":14397:14515   */\n      pop\n        /* \"#utility.yul\":14346:14515   */\n      swap3\n      swap2\n      pop\n      pop\n      jump\t// out\n        /* \"#utility.yul\":14520:14815   */\n    tag_169:\n        /* \"#utility.yul\":14596:14600   */\n      0x00\n        /* \"#utility.yul\":14742:14771   */\n      tag_334\n        /* \"#utility.yul\":14767:14770   */\n      dup4\n        /* \"#utility.yul\":14761:14765   */\n      dup4\n        /* \"#utility.yul\":14742:14771   */\n      tag_168\n      jump\t// in\n    tag_334:\n        /* \"#utility.yul\":14734:14771   */\n      swap2\n      pop\n        /* \"#utility.yul\":14804:14807   */\n      dup3\n        /* \"#utility.yul\":14801:14802   */\n      0x02\n        /* \"#utility.yul\":14797:14808   */\n      mul\n        /* \"#utility.yul\":14791:14795   */\n      dup3\n        /* \"#utility.yul\":14788:14809   */\n      or\n        /* \"#utility.yul\":14780:14809   */\n      swap1\n      pop\n        /* \"#utility.yul\":14520:14815   */\n      swap3\n      swap2\n      pop\n      pop\n      jump\t// out\n        /* \"#utility.yul\":14820:16215   */\n    tag_100:\n        /* \"#utility.yul\":14937:14974   */\n      tag_336\n        /* \"#utility.yul\":14970:14973   */\n      dup3\n        /* \"#utility.yul\":14937:14974   */\n      tag_131\n      jump\t// in\n    tag_336:\n        /* \"#utility.yul\":15039:15057   */\n      0xffffffffffffffff\n        /* \"#utility.yul\":15031:15037   */\n      dup2\n        /* \"#utility.yul\":15028:15058   */\n      gt\n        /* \"#utility.yul\":15025:15081   */\n      iszero\n      tag_337\n      jumpi\n        /* \"#utility.yul\":15061:15079   */\n      tag_338\n      tag_142\n      jump\t// in\n    tag_338:\n        /* \"#utility.yul\":15025:15081   */\n    tag_337:\n        /* \"#utility.yul\":15105:15143   */\n      tag_339\n        /* \"#utility.yul\":15137:15141   */\n      dup3\n        /* \"#utility.yul\":15131:15142   */\n      sload\n        /* \"#utility.yul\":15105:15143   */\n      tag_68\n      jump\t// in\n    tag_339:\n        /* \"#utility.yul\":15190:15257   */\n      tag_340\n        /* \"#utility.yul\":15250:15256   */\n      dup3\n        /* \"#utility.yul\":15242:15248   */\n      dup3\n        /* \"#utility.yul\":15236:15240   */\n      dup6\n        /* \"#utility.yul\":15190:15257   */\n      tag_166\n      jump\t// in\n    tag_340:\n        /* \"#utility.yul\":15284:15285   */\n      0x00\n        /* \"#utility.yul\":15308:15312   */\n      0x20\n        /* \"#utility.yul\":15295:15312   */\n      swap1\n      pop\n        /* \"#utility.yul\":15340:15342   */\n      0x1f\n        /* \"#utility.yul\":15332:15338   */\n      dup4\n        /* \"#utility.yul\":15329:15343   */\n      gt\n        /* \"#utility.yul\":15357:15358   */\n      0x01\n        /* \"#utility.yul\":15352:15970   */\n      dup2\n      eq\n      tag_342\n      jumpi\n        /* \"#utility.yul\":16014:16015   */\n      0x00\n        /* \"#utility.yul\":16031:16037   */\n      dup5\n        /* \"#utility.yul\":16028:16105   */\n      iszero\n      tag_343\n      jumpi\n        /* \"#utility.yul\":16080:16089   */\n      dup3\n        /* \"#utility.yul\":16075:16078   */\n      dup8\n        /* \"#utility.yul\":16071:16090   */\n      add\n        /* \"#utility.yul\":16065:16091   */\n      mload\n        /* \"#utility.yul\":16056:16091   */\n      swap1\n      pop\n        /* \"#utility.yul\":16028:16105   */\n    tag_343:\n        /* \"#utility.yul\":16131:16198   */\n      tag_344\n        /* \"#utility.yul\":16191:16197   */\n      dup6\n        /* \"#utility.yul\":16184:16189   */\n      dup3\n        /* \"#utility.yul\":16131:16198   */\n      tag_169\n      jump\t// in\n    tag_344:\n        /* \"#utility.yul\":16125:16129   */\n      dup7\n        /* \"#utility.yul\":16118:16199   */\n      sstore\n        /* \"#utility.yul\":15987:16209   */\n      pop\n        /* \"#utility.yul\":15322:16209   */\n      jump(tag_341)\n        /* \"#utility.yul\":15352:15970   */\n    tag_342:\n        /* \"#utility.yul\":15404:15408   */\n      0x1f\n        /* \"#utility.yul\":15400:15409   */\n      not\n        /* \"#utility.yul\":15392:15398   */\n      dup5\n        /* \"#utility.yul\":15388:15410   */\n      and\n        /* \"#utility.yul\":15438:15475   */\n      tag_345\n        /* \"#utility.yul\":15470:15474   */\n      dup7\n        /* \"#utility.yul\":15438:15475   */\n      tag_155\n      jump\t// in\n    tag_345:\n        /* \"#utility.yul\":15497:15498   */\n      0x00\n        /* \"#utility.yul\":15511:15719   */\n    tag_346:\n        /* \"#utility.yul\":15525:15532   */\n      dup3\n        /* \"#utility.yul\":15522:15523   */\n      dup2\n        /* \"#utility.yul\":15519:15533   */\n      lt\n        /* \"#utility.yul\":15511:15719   */\n      iszero\n      tag_348\n      jumpi\n        /* \"#utility.yul\":15604:15613   */\n      dup5\n        /* \"#utility.yul\":15599:15602   */\n      dup10\n        /* \"#utility.yul\":15595:15614   */\n      add\n        /* \"#utility.yul\":15589:15615   */\n      mload\n        /* \"#utility.yul\":15581:15587   */\n      dup3\n        /* \"#utility.yul\":15574:15616   */\n      sstore\n        /* \"#utility.yul\":15655:15656   */\n      0x01\n        /* \"#utility.yul\":15647:15653   */\n      dup3\n        /* \"#utility.yul\":15643:15657   */\n      add\n        /* \"#utility.yul\":15633:15657   */\n      swap2\n      pop\n        /* \"#utility.yul\":15702:15704   */\n      0x20\n        /* \"#utility.yul\":15691:15700   */\n      dup6\n        /* \"#utility.yul\":15687:15705   */\n      add\n        /* \"#utility.yul\":15674:15705   */\n      swap5\n      pop\n        /* \"#utility.yul\":15548:15552   */\n      0x20\n        /* \"#utility.yul\":15545:15546   */\n      dup2\n        /* \"#utility.yul\":15541:15553   */\n      add\n        /* \"#utility.yul\":15536:15553   */\n      swap1\n      pop\n        /* \"#utility.yul\":15511:15719   */\n      jump(tag_346)\n    tag_348:\n        /* \"#utility.yul\":15747:15753   */\n      dup7\n        /* \"#utility.yul\":15738:15745   */\n      dup4\n        /* \"#utility.yul\":15735:15754   */\n      lt\n        /* \"#utility.yul\":15732:15911   */\n      iszero\n      tag_349\n      jumpi\n        /* \"#utility.yul\":15805:15814   */\n      dup5\n        /* \"#utility.yul\":15800:15803   */\n      dup10\n        /* \"#utility.yul\":15796:15815   */\n      add\n        /* \"#utility.yul\":15790:15816   */\n      mload\n        /* \"#utility.yul\":15848:15896   */\n      tag_350\n        /* \"#utility.yul\":15890:15894   */\n      0x1f\n        /* \"#utility.yul\":15882:15888   */\n      dup10\n        /* \"#utility.yul\":15878:15895   */\n      and\n        /* \"#utility.yul\":15867:15876   */\n      dup3\n        /* \"#utility.yul\":15848:15896   */\n      tag_168\n      jump\t// in\n    tag_350:\n        /* \"#utility.yul\":15840:15846   */\n      dup4\n        /* \"#utility.yul\":15833:15897   */\n      sstore\n        /* \"#utility.yul\":15755:15911   */\n      pop\n        /* \"#utility.yul\":15732:15911   */\n    tag_349:\n        /* \"#utility.yul\":15957:15958   */\n      0x01\n        /* \"#utility.yul\":15953:15954   */\n      0x02\n        /* \"#utility.yul\":15945:15951   */\n      dup9\n        /* \"#utility.yul\":15941:15955   */\n      mul\n        /* \"#utility.yul\":15937:15959   */\n      add\n        /* \"#utility.yul\":15931:15935   */\n      dup9\n        /* \"#utility.yul\":15924:15960   */\n      sstore\n        /* \"#utility.yul\":15359:15970   */\n      pop\n      pop\n      pop\n        /* \"#utility.yul\":15322:16209   */\n    tag_341:\n      pop\n        /* \"#utility.yul\":14912:16215   */\n      pop\n      pop\n      pop\n        /* \"#utility.yul\":14820:16215   */\n      pop\n      pop\n      jump\t// out\n        /* \"#utility.yul\":16221:16403   */\n    tag_170:\n        /* \"#utility.yul\":16361:16395   */\n      0x4f6e6c79206c6963656e7365652063616e2070617920726f79616c746965732e\n        /* \"#utility.yul\":16357:16358   */\n      0x00\n        /* \"#utility.yul\":16349:16355   */\n      dup3\n        /* \"#utility.yul\":16345:16359   */\n      add\n        /* \"#utility.yul\":16338:16396   */\n      mstore\n        /* \"#utility.yul\":16221:16403   */\n      pop\n      jump\t// out\n        /* \"#utility.yul\":16409:16775   */\n    tag_171:\n        /* \"#utility.yul\":16551:16554   */\n      0x00\n        /* \"#utility.yul\":16572:16639   */\n      tag_353\n        /* \"#utility.yul\":16636:16638   */\n      0x20\n        /* \"#utility.yul\":16631:16634   */\n      dup4\n        /* \"#utility.yul\":16572:16639   */\n      tag_132\n      jump\t// in\n    tag_353:\n        /* \"#utility.yul\":16565:16639   */\n      swap2\n      pop\n        /* \"#utility.yul\":16648:16741   */\n      tag_354\n        /* \"#utility.yul\":16737:16740   */\n      dup3\n        /* \"#utility.yul\":16648:16741   */\n      tag_170\n      jump\t// in\n    tag_354:\n        /* \"#utility.yul\":16766:16768   */\n      0x20\n        /* \"#utility.yul\":16761:16764   */\n      dup3\n        /* \"#utility.yul\":16757:16769   */\n      add\n        /* \"#utility.yul\":16750:16769   */\n      swap1\n      pop\n        /* \"#utility.yul\":16409:16775   */\n      swap2\n      swap1\n      pop\n      jump\t// out\n        /* \"#utility.yul\":16781:17200   */\n    tag_105:\n        /* \"#utility.yul\":16947:16951   */\n      0x00\n        /* \"#utility.yul\":16985:16987   */\n      0x20\n        /* \"#utility.yul\":16974:16983   */\n      dup3\n        /* \"#utility.yul\":16970:16988   */\n      add\n        /* \"#utility.yul\":16962:16988   */\n      swap1\n      pop\n        /* \"#utility.yul\":17034:17043   */\n      dup2\n        /* \"#utility.yul\":17028:17032   */\n      dup2\n        /* \"#utility.yul\":17024:17044   */\n      sub\n        /* \"#utility.yul\":17020:17021   */\n      0x00\n        /* \"#utility.yul\":17009:17018   */\n      dup4\n        /* \"#utility.yul\":17005:17022   */\n      add\n        /* \"#utility.yul\":16998:17045   */\n      mstore\n        /* \"#utility.yul\":17062:17193   */\n      tag_356\n        /* \"#utility.yul\":17188:17192   */\n      dup2\n        /* \"#utility.yul\":17062:17193   */\n      tag_171\n      jump\t// in\n    tag_356:\n        /* \"#utility.yul\":17054:17193   */\n      swap1\n      pop\n        /* \"#utility.yul\":16781:17200   */\n      swap2\n      swap1\n      pop\n      jump\t// out\n        /* \"#utility.yul\":17206:17616   */\n    tag_107:\n        /* \"#utility.yul\":17246:17253   */\n      0x00\n        /* \"#utility.yul\":17269:17289   */\n      tag_358\n        /* \"#utility.yul\":17287:17288   */\n      dup3\n        /* \"#utility.yul\":17269:17289   */\n      tag_128\n      jump\t// in\n    tag_358:\n        /* \"#utility.yul\":17264:17289   */\n      swap2\n      pop\n        /* \"#utility.yul\":17303:17323   */\n      tag_359\n        /* \"#utility.yul\":17321:17322   */\n      dup4\n        /* \"#utility.yul\":17303:17323   */\n      tag_128\n      jump\t// in\n    tag_359:\n        /* \"#utility.yul\":17298:17323   */\n      swap3\n      pop\n        /* \"#utility.yul\":17358:17359   */\n      dup3\n        /* \"#utility.yul\":17355:17356   */\n      dup3\n        /* \"#utility.yul\":17351:17360   */\n      mul\n        /* \"#utility.yul\":17380:17410   */\n      tag_360\n        /* \"#utility.yul\":17398:17409   */\n      dup2\n        /* \"#utility.yul\":17380:17410   */\n      tag_128\n      jump\t// in\n    tag_360:\n        /* \"#utility.yul\":17369:17410   */\n      swap2\n      pop\n        /* \"#utility.yul\":17559:17560   */\n      dup3\n        /* \"#utility.yul\":17550:17557   */\n      dup3\n        /* \"#utility.yul\":17546:17561   */\n      div\n        /* \"#utility.yul\":17543:17544   */\n      dup5\n        /* \"#utility.yul\":17540:17562   */\n      eq\n        /* \"#utility.yul\":17520:17521   */\n      dup4\n        /* \"#utility.yul\":17513:17522   */\n      iszero\n        /* \"#utility.yul\":17493:17576   */\n      or\n        /* \"#utility.yul\":17470:17609   */\n      tag_361\n      jumpi\n        /* \"#utility.yul\":17589:17607   */\n      tag_362\n      tag_152\n      jump\t// in\n    tag_362:\n        /* \"#utility.yul\":17470:17609   */\n    tag_361:\n        /* \"#utility.yul\":17254:17616   */\n      pop\n        /* \"#utility.yul\":17206:17616   */\n      swap3\n      swap2\n      pop\n      pop\n      jump\t// out\n        /* \"#utility.yul\":17622:17802   */\n    tag_172:\n        /* \"#utility.yul\":17670:17747   */\n      0x4e487b7100000000000000000000000000000000000000000000000000000000\n        /* \"#utility.yul\":17667:17668   */\n      0x00\n        /* \"#utility.yul\":17660:17748   */\n      mstore\n        /* \"#utility.yul\":17767:17771   */\n      0x12\n        /* \"#utility.yul\":17764:17765   */\n      0x04\n        /* \"#utility.yul\":17757:17772   */\n      mstore\n        /* \"#utility.yul\":17791:17795   */\n      0x24\n        /* \"#utility.yul\":17788:17789   */\n      0x00\n        /* \"#utility.yul\":17781:17796   */\n      revert\n        /* \"#utility.yul\":17808:17993   */\n    tag_109:\n        /* \"#utility.yul\":17848:17849   */\n      0x00\n        /* \"#utility.yul\":17865:17885   */\n      tag_365\n        /* \"#utility.yul\":17883:17884   */\n      dup3\n        /* \"#utility.yul\":17865:17885   */\n      tag_128\n      jump\t// in\n    tag_365:\n        /* \"#utility.yul\":17860:17885   */\n      swap2\n      pop\n        /* \"#utility.yul\":17899:17919   */\n      tag_366\n        /* \"#utility.yul\":17917:17918   */\n      dup4\n        /* \"#utility.yul\":17899:17919   */\n      tag_128\n      jump\t// in\n    tag_366:\n        /* \"#utility.yul\":17894:17919   */\n      swap3\n      pop\n        /* \"#utility.yul\":17938:17939   */\n      dup3\n        /* \"#utility.yul\":17928:17963   */\n      tag_367\n      jumpi\n        /* \"#utility.yul\":17943:17961   */\n      tag_368\n      tag_172\n      jump\t// in\n    tag_368:\n        /* \"#utility.yul\":17928:17963   */\n    tag_367:\n        /* \"#utility.yul\":17985:17986   */\n      dup3\n        /* \"#utility.yul\":17982:17983   */\n      dup3\n        /* \"#utility.yul\":17978:17987   */\n      div\n        /* \"#utility.yul\":17973:17987   */\n      swap1\n      pop\n        /* \"#utility.yul\":17808:17993   */\n      swap3\n      swap2\n      pop\n      pop\n      jump\t// out\n        /* \"#utility.yul\":17999:18220   */\n    tag_173:\n        /* \"#utility.yul\":18139:18173   */\n      0x4f6e6c7920706174656e74206f776e65722063616e20616464206c6963656e73\n        /* \"#utility.yul\":18135:18136   */\n      0x00\n        /* \"#utility.yul\":18127:18133   */\n      dup3\n        /* \"#utility.yul\":18123:18137   */\n      add\n        /* \"#utility.yul\":18116:18174   */\n      mstore\n        /* \"#utility.yul\":18208:18212   */\n      0x652e000000000000000000000000000000000000000000000000000000000000\n        /* \"#utility.yul\":18203:18205   */\n      0x20\n        /* \"#utility.yul\":18195:18201   */\n      dup3\n        /* \"#utility.yul\":18191:18206   */\n      add\n        /* \"#utility.yul\":18184:18213   */\n      mstore\n        /* \"#utility.yul\":17999:18220   */\n      pop\n      jump\t// out\n        /* \"#utility.yul\":18226:18592   */\n    tag_174:\n        /* \"#utility.yul\":18368:18371   */\n      0x00\n        /* \"#utility.yul\":18389:18456   */\n      tag_371\n        /* \"#utility.yul\":18453:18455   */\n      0x22\n        /* \"#utility.yul\":18448:18451   */\n      dup4\n        /* \"#utility.yul\":18389:18456   */\n      tag_132\n      jump\t// in\n    tag_371:\n        /* \"#utility.yul\":18382:18456   */\n      swap2\n      pop\n        /* \"#utility.yul\":18465:18558   */\n      tag_372\n        /* \"#utility.yul\":18554:18557   */\n      dup3\n        /* \"#utility.yul\":18465:18558   */\n      tag_173\n      jump\t// in\n    tag_372:\n        /* \"#utility.yul\":18583:18585   */\n      0x40\n        /* \"#utility.yul\":18578:18581   */\n      dup3\n        /* \"#utility.yul\":18574:18586   */\n      add\n        /* \"#utility.yul\":18567:18586   */\n      swap1\n      pop\n        /* \"#utility.yul\":18226:18592   */\n      swap2\n      swap1\n      pop\n      jump\t// out\n        /* \"#utility.yul\":18598:19017   */\n    tag_114:\n        /* \"#utility.yul\":18764:18768   */\n      0x00\n        /* \"#utility.yul\":18802:18804   */\n      0x20\n        /* \"#utility.yul\":18791:18800   */\n      dup3\n        /* \"#utility.yul\":18787:18805   */\n      add\n        /* \"#utility.yul\":18779:18805   */\n      swap1\n      pop\n        /* \"#utility.yul\":18851:18860   */\n      dup2\n        /* \"#utility.yul\":18845:18849   */\n      dup2\n        /* \"#utility.yul\":18841:18861   */\n      sub\n        /* \"#utility.yul\":18837:18838   */\n      0x00\n        /* \"#utility.yul\":18826:18835   */\n      dup4\n        /* \"#utility.yul\":18822:18839   */\n      add\n        /* \"#utility.yul\":18815:18862   */\n      mstore\n        /* \"#utility.yul\":18879:19010   */\n      tag_374\n        /* \"#utility.yul\":19005:19009   */\n      dup2\n        /* \"#utility.yul\":18879:19010   */\n      tag_174\n      jump\t// in\n    tag_374:\n        /* \"#utility.yul\":18871:19010   */\n      swap1\n      pop\n        /* \"#utility.yul\":18598:19017   */\n      swap2\n      swap1\n      pop\n      jump\t// out\n        /* \"#utility.yul\":19023:19256   */\n    tag_116:\n        /* \"#utility.yul\":19062:19065   */\n      0x00\n        /* \"#utility.yul\":19085:19109   */\n      tag_376\n        /* \"#utility.yul\":19103:19108   */\n      dup3\n        /* \"#utility.yul\":19085:19109   */\n      tag_128\n      jump\t// in\n    tag_376:\n        /* \"#utility.yul\":19076:19109   */\n      swap2\n      pop\n        /* \"#utility.yul\":19131:19197   */\n      0xffffffffffffffffffffffffffffffffffffffffffffffffffffffffffffffff\n        /* \"#utility.yul\":19124:19129   */\n      dup3\n        /* \"#utility.yul\":19121:19198   */\n      sub\n        /* \"#utility.yul\":19118:19221   */\n      tag_377\n      jumpi\n        /* \"#utility.yul\":19201:19219   */\n      tag_378\n      tag_152\n      jump\t// in\n    tag_378:\n        /* \"#utility.yul\":19118:19221   */\n    tag_377:\n        /* \"#utility.yul\":19248:19249   */\n      0x01\n        /* \"#utility.yul\":19241:19246   */\n      dup3\n        /* \"#utility.yul\":19237:19250   */\n      add\n        /* \"#utility.yul\":19230:19250   */\n      swap1\n      pop\n        /* \"#utility.yul\":19023:19256   */\n      swap2\n      swap1\n      pop\n      jump\t// out\n\n    auxdata: 0xa26469706673582212207cd847aa990bcb9eb52a19b28b2979844ce9d3d937198f918f6e2b29fdce0ceb64736f6c634300081a0033\n}\n",
				"bytecode": {
					"linkReferences": {},
					"object": "60806040525f6003555f6004553480156016575f80fd5b506115cf806100245f395ff3fe608060405260043610610090575f3560e01c8063a5fe8a4d11610058578063a5fe8a4d1461019f578063b084c841146101bb578063c19cb3aa146101e5578063cbe8da8d1461020d578063f422bc681461023557610090565b806316924dea146100945780631a5b9ed4146100d25780632fbccc271461010e5780633379084514610138578063a023780514610177575b5f80fd5b34801561009f575f80fd5b506100ba60048036038101906100b59190610b2e565b610274565b6040516100c993929190610beb565b60405180910390f35b3480156100dd575f80fd5b506100f860048036038101906100f39190610c2e565b6103c0565b6040516101059190610c59565b60405180910390f35b348015610119575f80fd5b5061012261055d565b60405161012f9190610c59565b60405180910390f35b348015610143575f80fd5b5061015e60048036038101906101599190610c2e565b610563565b60405161016e9493929190610cb1565b60405180910390f35b348015610182575f80fd5b5061019d60048036038101906101989190610e20565b6105ae565b005b6101b960048036038101906101b49190610b2e565b6106dc565b005b3480156101c6575f80fd5b506101cf6107d0565b6040516101dc9190610c59565b60405180910390f35b3480156101f0575f80fd5b5061020b60048036038101906102069190610ee6565b6107d6565b005b348015610218575f80fd5b50610233600480360381019061022e9190610f36565b610943565b005b348015610240575f80fd5b5061025b60048036038101906102569190610c2e565b610a1a565b60405161026b9493929190610f90565b60405180910390f35b6002602052815f5260405f20818154811061028d575f80fd5b905f5260205f2090600302015f9150915050805f0180546102ad90611007565b80601f01602080910402602001604051908101604052809291908181526020018280546102d990611007565b80156103245780601f106102fb57610100808354040283529160200191610324565b820191905f5260205f20905b81548152906001019060200180831161030757829003601f168201915b50505050509080600101805461033990611007565b80601f016020809104026020016040519081016040528092919081815260200182805461036590611007565b80156103b05780601f10610387576101008083540402835291602001916103b0565b820191905f5260205f20905b81548152906001019060200180831161039357829003601f168201915b5050505050908060020154905083565b5f805f808481526020019081526020015f206040518060800160405290815f82015481526020016001820180546103f690611007565b80601f016020809104026020016040519081016040528092919081815260200182805461042290611007565b801561046d5780601f106104445761010080835404028352916020019161046d565b820191905f5260205f20905b81548152906001019060200180831161045057829003601f168201915b50505050508152602001600282015f9054906101000a900473ffffffffffffffffffffffffffffffffffffffff1673ffffffffffffffffffffffffffffffffffffffff1673ffffffffffffffffffffffffffffffffffffffff16815260200160038201548152505090505f805b60025f8681526020019081526020015f20805490508110156105435760025f8681526020019081526020015f20818154811061051957610518611037565b5b905f5260205f20906003020160020154826105349190611091565b915080806001019150506104da565b508082606001516105549190611091565b92505050919050565b60045481565b6001602052805f5260405f205f91509050805f015490806001015f9054906101000a900473ffffffffffffffffffffffffffffffffffffffff16908060020154908060030154905084565b3373ffffffffffffffffffffffffffffffffffffffff165f808681526020019081526020015f206002015f9054906101000a900473ffffffffffffffffffffffffffffffffffffffff1673ffffffffffffffffffffffffffffffffffffffff161461064e576040517f08c379a000000000000000000000000000000000000000000000000000000000815260040161064590611134565b60405180910390fd5b60025f8581526020019081526020015f20604051806060016040528085815260200184815260200183815250908060018154018082558091505060019003905f5260205f2090600302015f909190919091505f820151815f0190816106b391906112ef565b5060208201518160010190816106c991906112ef565b5060408201518160020155505050505050565b60015f8381526020019081526020015f206001015f9054906101000a900473ffffffffffffffffffffffffffffffffffffffff1673ffffffffffffffffffffffffffffffffffffffff163373ffffffffffffffffffffffffffffffffffffffff161461077d576040517f08c379a000000000000000000000000000000000000000000000000000000000815260040161077490611408565b60405180910390fd5b5f60015f8481526020019081526020015f2090505f60648260020154846107a49190611426565b6107ae9190611494565b905080826003015f8282546107c39190611091565b9250508190555050505050565b60035481565b3373ffffffffffffffffffffffffffffffffffffffff165f808581526020019081526020015f206002015f9054906101000a900473ffffffffffffffffffffffffffffffffffffffff1673ffffffffffffffffffffffffffffffffffffffff1614610876576040517f08c379a000000000000000000000000000000000000000000000000000000000815260040161086d90611534565b60405180910390fd5b60045f81548092919061088890611552565b9190505550604051806080016040528060045481526020018273ffffffffffffffffffffffffffffffffffffffff1681526020018381526020015f81525060015f60045481526020019081526020015f205f820151815f01556020820151816001015f6101000a81548173ffffffffffffffffffffffffffffffffffffffff021916908373ffffffffffffffffffffffffffffffffffffffff1602179055506040820151816002015560608201518160030155905050505050565b60035f81548092919061095590611552565b9190505550604051806080016040528060035481526020018381526020013373ffffffffffffffffffffffffffffffffffffffff168152602001828152505f8060035481526020019081526020015f205f820151815f015560208201518160010190816109c291906112ef565b506040820151816002015f6101000a81548173ffffffffffffffffffffffffffffffffffffffff021916908373ffffffffffffffffffffffffffffffffffffffff160217905550606082015181600301559050505050565b5f602052805f5260405f205f91509050805f015490806001018054610a3e90611007565b80601f0160208091040260200160405190810160405280929190818152602001828054610a6a90611007565b8015610ab55780601f10610a8c57610100808354040283529160200191610ab5565b820191905f5260205f20905b815481529060010190602001808311610a9857829003601f168201915b505050505090806002015f9054906101000a900473ffffffffffffffffffffffffffffffffffffffff16908060030154905084565b5f604051905090565b5f80fd5b5f80fd5b5f819050919050565b610b0d81610afb565b8114610b17575f80fd5b50565b5f81359050610b2881610b04565b92915050565b5f8060408385031215610b4457610b43610af3565b5b5f610b5185828601610b1a565b9250506020610b6285828601610b1a565b9150509250929050565b5f81519050919050565b5f82825260208201905092915050565b8281835e5f83830152505050565b5f601f19601f8301169050919050565b5f610bae82610b6c565b610bb88185610b76565b9350610bc8818560208601610b86565b610bd181610b94565b840191505092915050565b610be581610afb565b82525050565b5f6060820190508181035f830152610c038186610ba4565b90508181036020830152610c178185610ba4565b9050610c266040830184610bdc565b949350505050565b5f60208284031215610c4357610c42610af3565b5b5f610c5084828501610b1a565b91505092915050565b5f602082019050610c6c5f830184610bdc565b92915050565b5f73ffffffffffffffffffffffffffffffffffffffff82169050919050565b5f610c9b82610c72565b9050919050565b610cab81610c91565b82525050565b5f608082019050610cc45f830187610bdc565b610cd16020830186610ca2565b610cde6040830185610bdc565b610ceb6060830184610bdc565b95945050505050565b5f80fd5b5f80fd5b7f4e487b71000000000000000000000000000000000000000000000000000000005f52604160045260245ffd5b610d3282610b94565b810181811067ffffffffffffffff82111715610d5157610d50610cfc565b5b80604052505050565b5f610d63610aea565b9050610d6f8282610d29565b919050565b5f67ffffffffffffffff821115610d8e57610d8d610cfc565b5b610d9782610b94565b9050602081019050919050565b828183375f83830152505050565b5f610dc4610dbf84610d74565b610d5a565b905082815260208101848484011115610de057610ddf610cf8565b5b610deb848285610da4565b509392505050565b5f82601f830112610e0757610e06610cf4565b5b8135610e17848260208601610db2565b91505092915050565b5f805f8060808587031215610e3857610e37610af3565b5b5f610e4587828801610b1a565b945050602085013567ffffffffffffffff811115610e6657610e65610af7565b5b610e7287828801610df3565b935050604085013567ffffffffffffffff811115610e9357610e92610af7565b5b610e9f87828801610df3565b9250506060610eb087828801610b1a565b91505092959194509250565b610ec581610c91565b8114610ecf575f80fd5b50565b5f81359050610ee081610ebc565b92915050565b5f805f60608486031215610efd57610efc610af3565b5b5f610f0a86828701610b1a565b9350506020610f1b86828701610b1a565b9250506040610f2c86828701610ed2565b9150509250925092565b5f8060408385031215610f4c57610f4b610af3565b5b5f83013567ffffffffffffffff811115610f6957610f68610af7565b5b610f7585828601610df3565b9250506020610f8685828601610b1a565b9150509250929050565b5f608082019050610fa35f830187610bdc565b8181036020830152610fb58186610ba4565b9050610fc46040830185610ca2565b610fd16060830184610bdc565b95945050505050565b7f4e487b71000000000000000000000000000000000000000000000000000000005f52602260045260245ffd5b5f600282049050600182168061101e57607f821691505b60208210810361103157611030610fda565b5b50919050565b7f4e487b71000000000000000000000000000000000000000000000000000000005f52603260045260245ffd5b7f4e487b71000000000000000000000000000000000000000000000000000000005f52601160045260245ffd5b5f61109b82610afb565b91506110a683610afb565b92508282019050808211156110be576110bd611064565b5b92915050565b7f4f6e6c7920706174656e74206f776e65722063616e206c6f67206163746976695f8201527f746965732e000000000000000000000000000000000000000000000000000000602082015250565b5f61111e602583610b76565b9150611129826110c4565b604082019050919050565b5f6020820190508181035f83015261114b81611112565b9050919050565b5f819050815f5260205f209050919050565b5f6020601f8301049050919050565b5f82821b905092915050565b5f600883026111ae7fffffffffffffffffffffffffffffffffffffffffffffffffffffffffffffffff82611173565b6111b88683611173565b95508019841693508086168417925050509392505050565b5f819050919050565b5f6111f36111ee6111e984610afb565b6111d0565b610afb565b9050919050565b5f819050919050565b61120c836111d9565b611220611218826111fa565b84845461117f565b825550505050565b5f90565b611234611228565b61123f818484611203565b505050565b5b81811015611262576112575f8261122c565b600181019050611245565b5050565b601f8211156112a75761127881611152565b61128184611164565b81016020851015611290578190505b6112a461129c85611164565b830182611244565b50505b505050565b5f82821c905092915050565b5f6112c75f19846008026112ac565b1980831691505092915050565b5f6112df83836112b8565b9150826002028217905092915050565b6112f882610b6c565b67ffffffffffffffff81111561131157611310610cfc565b5b61131b8254611007565b611326828285611266565b5f60209050601f831160018114611357575f8415611345578287015190505b61134f85826112d4565b8655506113b6565b601f19841661136586611152565b5f5b8281101561138c57848901518255600182019150602085019450602081019050611367565b868310156113a957848901516113a5601f8916826112b8565b8355505b6001600288020188555050505b505050505050565b7f4f6e6c79206c6963656e7365652063616e2070617920726f79616c746965732e5f82015250565b5f6113f2602083610b76565b91506113fd826113be565b602082019050919050565b5f6020820190508181035f83015261141f816113e6565b9050919050565b5f61143082610afb565b915061143b83610afb565b925082820261144981610afb565b915082820484148315176114605761145f611064565b5b5092915050565b7f4e487b71000000000000000000000000000000000000000000000000000000005f52601260045260245ffd5b5f61149e82610afb565b91506114a983610afb565b9250826114b9576114b8611467565b5b828204905092915050565b7f4f6e6c7920706174656e74206f776e65722063616e20616464206c6963656e735f8201527f652e000000000000000000000000000000000000000000000000000000000000602082015250565b5f61151e602283610b76565b9150611529826114c4565b604082019050919050565b5f6020820190508181035f83015261154b81611512565b9050919050565b5f61155c82610afb565b91507fffffffffffffffffffffffffffffffffffffffffffffffffffffffffffffffff820361158e5761158d611064565b5b60018201905091905056fea26469706673582212207cd847aa990bcb9eb52a19b28b2979844ce9d3d937198f918f6e2b29fdce0ceb64736f6c634300081a0033",
					"opcodes": "PUSH1 0x80 PUSH1 0x40 MSTORE PUSH0 PUSH1 0x3 SSTORE PUSH0 PUSH1 0x4 SSTORE CALLVALUE DUP1 ISZERO PUSH1 0x16 JUMPI PUSH0 DUP1 REVERT JUMPDEST POP PUSH2 0x15CF DUP1 PUSH2 0x24 PUSH0 CODECOPY PUSH0 RETURN INVALID PUSH1 0x80 PUSH1 0x40 MSTORE PUSH1 0x4 CALLDATASIZE LT PUSH2 0x90 JUMPI PUSH0 CALLDATALOAD PUSH1 0xE0 SHR DUP1 PUSH4 0xA5FE8A4D GT PUSH2 0x58 JUMPI DUP1 PUSH4 0xA5FE8A4D EQ PUSH2 0x19F JUMPI DUP1 PUSH4 0xB084C841 EQ PUSH2 0x1BB JUMPI DUP1 PUSH4 0xC19CB3AA EQ PUSH2 0x1E5 JUMPI DUP1 PUSH4 0xCBE8DA8D EQ PUSH2 0x20D JUMPI DUP1 PUSH4 0xF422BC68 EQ PUSH2 0x235 JUMPI PUSH2 0x90 JUMP JUMPDEST DUP1 PUSH4 0x16924DEA EQ PUSH2 0x94 JUMPI DUP1 PUSH4 0x1A5B9ED4 EQ PUSH2 0xD2 JUMPI DUP1 PUSH4 0x2FBCCC27 EQ PUSH2 0x10E JUMPI DUP1 PUSH4 0x33790845 EQ PUSH2 0x138 JUMPI DUP1 PUSH4 0xA0237805 EQ PUSH2 0x177 JUMPI JUMPDEST PUSH0 DUP1 REVERT JUMPDEST CALLVALUE DUP1 ISZERO PUSH2 0x9F JUMPI PUSH0 DUP1 REVERT JUMPDEST POP PUSH2 0xBA PUSH1 0x4 DUP1 CALLDATASIZE SUB DUP2 ADD SWAP1 PUSH2 0xB5 SWAP2 SWAP1 PUSH2 0xB2E JUMP JUMPDEST PUSH2 0x274 JUMP JUMPDEST PUSH1 0x40 MLOAD PUSH2 0xC9 SWAP4 SWAP3 SWAP2 SWAP1 PUSH2 0xBEB JUMP JUMPDEST PUSH1 0x40 MLOAD DUP1 SWAP2 SUB SWAP1 RETURN JUMPDEST CALLVALUE DUP1 ISZERO PUSH2 0xDD JUMPI PUSH0 DUP1 REVERT JUMPDEST POP PUSH2 0xF8 PUSH1 0x4 DUP1 CALLDATASIZE SUB DUP2 ADD SWAP1 PUSH2 0xF3 SWAP2 SWAP1 PUSH2 0xC2E JUMP JUMPDEST PUSH2 0x3C0 JUMP JUMPDEST PUSH1 0x40 MLOAD PUSH2 0x105 SWAP2 SWAP1 PUSH2 0xC59 JUMP JUMPDEST PUSH1 0x40 MLOAD DUP1 SWAP2 SUB SWAP1 RETURN JUMPDEST CALLVALUE DUP1 ISZERO PUSH2 0x119 JUMPI PUSH0 DUP1 REVERT JUMPDEST POP PUSH2 0x122 PUSH2 0x55D JUMP JUMPDEST PUSH1 0x40 MLOAD PUSH2 0x12F SWAP2 SWAP1 PUSH2 0xC59 JUMP JUMPDEST PUSH1 0x40 MLOAD DUP1 SWAP2 SUB SWAP1 RETURN JUMPDEST CALLVALUE DUP1 ISZERO PUSH2 0x143 JUMPI PUSH0 DUP1 REVERT JUMPDEST POP PUSH2 0x15E PUSH1 0x4 DUP1 CALLDATASIZE SUB DUP2 ADD SWAP1 PUSH2 0x159 SWAP2 SWAP1 PUSH2 0xC2E JUMP JUMPDEST PUSH2 0x563 JUMP JUMPDEST PUSH1 0x40 MLOAD PUSH2 0x16E SWAP5 SWAP4 SWAP3 SWAP2 SWAP1 PUSH2 0xCB1 JUMP JUMPDEST PUSH1 0x40 MLOAD DUP1 SWAP2 SUB SWAP1 RETURN JUMPDEST CALLVALUE DUP1 ISZERO PUSH2 0x182 JUMPI PUSH0 DUP1 REVERT JUMPDEST POP PUSH2 0x19D PUSH1 0x4 DUP1 CALLDATASIZE SUB DUP2 ADD SWAP1 PUSH2 0x198 SWAP2 SWAP1 PUSH2 0xE20 JUMP JUMPDEST PUSH2 0x5AE JUMP JUMPDEST STOP JUMPDEST PUSH2 0x1B9 PUSH1 0x4 DUP1 CALLDATASIZE SUB DUP2 ADD SWAP1 PUSH2 0x1B4 SWAP2 SWAP1 PUSH2 0xB2E JUMP JUMPDEST PUSH2 0x6DC JUMP JUMPDEST STOP JUMPDEST CALLVALUE DUP1 ISZERO PUSH2 0x1C6 JUMPI PUSH0 DUP1 REVERT JUMPDEST POP PUSH2 0x1CF PUSH2 0x7D0 JUMP JUMPDEST PUSH1 0x40 MLOAD PUSH2 0x1DC SWAP2 SWAP1 PUSH2 0xC59 JUMP JUMPDEST PUSH1 0x40 MLOAD DUP1 SWAP2 SUB SWAP1 RETURN JUMPDEST CALLVALUE DUP1 ISZERO PUSH2 0x1F0 JUMPI PUSH0 DUP1 REVERT JUMPDEST POP PUSH2 0x20B PUSH1 0x4 DUP1 CALLDATASIZE SUB DUP2 ADD SWAP1 PUSH2 0x206 SWAP2 SWAP1 PUSH2 0xEE6 JUMP JUMPDEST PUSH2 0x7D6 JUMP JUMPDEST STOP JUMPDEST CALLVALUE DUP1 ISZERO PUSH2 0x218 JUMPI PUSH0 DUP1 REVERT JUMPDEST POP PUSH2 0x233 PUSH1 0x4 DUP1 CALLDATASIZE SUB DUP2 ADD SWAP1 PUSH2 0x22E SWAP2 SWAP1 PUSH2 0xF36 JUMP JUMPDEST PUSH2 0x943 JUMP JUMPDEST STOP JUMPDEST CALLVALUE DUP1 ISZERO PUSH2 0x240 JUMPI PUSH0 DUP1 REVERT JUMPDEST POP PUSH2 0x25B PUSH1 0x4 DUP1 CALLDATASIZE SUB DUP2 ADD SWAP1 PUSH2 0x256 SWAP2 SWAP1 PUSH2 0xC2E JUMP JUMPDEST PUSH2 0xA1A JUMP JUMPDEST PUSH1 0x40 MLOAD PUSH2 0x26B SWAP5 SWAP4 SWAP3 SWAP2 SWAP1 PUSH2 0xF90 JUMP JUMPDEST PUSH1 0x40 MLOAD DUP1 SWAP2 SUB SWAP1 RETURN JUMPDEST PUSH1 0x2 PUSH1 0x20 MSTORE DUP2 PUSH0 MSTORE PUSH1 0x40 PUSH0 KECCAK256 DUP2 DUP2 SLOAD DUP2 LT PUSH2 0x28D JUMPI PUSH0 DUP1 REVERT JUMPDEST SWAP1 PUSH0 MSTORE PUSH1 0x20 PUSH0 KECCAK256 SWAP1 PUSH1 0x3 MUL ADD PUSH0 SWAP2 POP SWAP2 POP POP DUP1 PUSH0 ADD DUP1 SLOAD PUSH2 0x2AD SWAP1 PUSH2 0x1007 JUMP JUMPDEST DUP1 PUSH1 0x1F ADD PUSH1 0x20 DUP1 SWAP2 DIV MUL PUSH1 0x20 ADD PUSH1 0x40 MLOAD SWAP1 DUP2 ADD PUSH1 0x40 MSTORE DUP1 SWAP3 SWAP2 SWAP1 DUP2 DUP2 MSTORE PUSH1 0x20 ADD DUP3 DUP1 SLOAD PUSH2 0x2D9 SWAP1 PUSH2 0x1007 JUMP JUMPDEST DUP1 ISZERO PUSH2 0x324 JUMPI DUP1 PUSH1 0x1F LT PUSH2 0x2FB JUMPI PUSH2 0x100 DUP1 DUP4 SLOAD DIV MUL DUP4 MSTORE SWAP2 PUSH1 0x20 ADD SWAP2 PUSH2 0x324 JUMP JUMPDEST DUP3 ADD SWAP2 SWAP1 PUSH0 MSTORE PUSH1 0x20 PUSH0 KECCAK256 SWAP1 JUMPDEST DUP2 SLOAD DUP2 MSTORE SWAP1 PUSH1 0x1 ADD SWAP1 PUSH1 0x20 ADD DUP1 DUP4 GT PUSH2 0x307 JUMPI DUP3 SWAP1 SUB PUSH1 0x1F AND DUP3 ADD SWAP2 JUMPDEST POP POP POP POP POP SWAP1 DUP1 PUSH1 0x1 ADD DUP1 SLOAD PUSH2 0x339 SWAP1 PUSH2 0x1007 JUMP JUMPDEST DUP1 PUSH1 0x1F ADD PUSH1 0x20 DUP1 SWAP2 DIV MUL PUSH1 0x20 ADD PUSH1 0x40 MLOAD SWAP1 DUP2 ADD PUSH1 0x40 MSTORE DUP1 SWAP3 SWAP2 SWAP1 DUP2 DUP2 MSTORE PUSH1 0x20 ADD DUP3 DUP1 SLOAD PUSH2 0x365 SWAP1 PUSH2 0x1007 JUMP JUMPDEST DUP1 ISZERO PUSH2 0x3B0 JUMPI DUP1 PUSH1 0x1F LT PUSH2 0x387 JUMPI PUSH2 0x100 DUP1 DUP4 SLOAD DIV MUL DUP4 MSTORE SWAP2 PUSH1 0x20 ADD SWAP2 PUSH2 0x3B0 JUMP JUMPDEST DUP3 ADD SWAP2 SWAP1 PUSH0 MSTORE PUSH1 0x20 PUSH0 KECCAK256 SWAP1 JUMPDEST DUP2 SLOAD DUP2 MSTORE SWAP1 PUSH1 0x1 ADD SWAP1 PUSH1 0x20 ADD DUP1 DUP4 GT PUSH2 0x393 JUMPI DUP3 SWAP1 SUB PUSH1 0x1F AND DUP3 ADD SWAP2 JUMPDEST POP POP POP POP POP SWAP1 DUP1 PUSH1 0x2 ADD SLOAD SWAP1 POP DUP4 JUMP JUMPDEST PUSH0 DUP1 PUSH0 DUP1 DUP5 DUP2 MSTORE PUSH1 0x20 ADD SWAP1 DUP2 MSTORE PUSH1 0x20 ADD PUSH0 KECCAK256 PUSH1 0x40 MLOAD DUP1 PUSH1 0x80 ADD PUSH1 0x40 MSTORE SWAP1 DUP2 PUSH0 DUP3 ADD SLOAD DUP2 MSTORE PUSH1 0x20 ADD PUSH1 0x1 DUP3 ADD DUP1 SLOAD PUSH2 0x3F6 SWAP1 PUSH2 0x1007 JUMP JUMPDEST DUP1 PUSH1 0x1F ADD PUSH1 0x20 DUP1 SWAP2 DIV MUL PUSH1 0x20 ADD PUSH1 0x40 MLOAD SWAP1 DUP2 ADD PUSH1 0x40 MSTORE DUP1 SWAP3 SWAP2 SWAP1 DUP2 DUP2 MSTORE PUSH1 0x20 ADD DUP3 DUP1 SLOAD PUSH2 0x422 SWAP1 PUSH2 0x1007 JUMP JUMPDEST DUP1 ISZERO PUSH2 0x46D JUMPI DUP1 PUSH1 0x1F LT PUSH2 0x444 JUMPI PUSH2 0x100 DUP1 DUP4 SLOAD DIV MUL DUP4 MSTORE SWAP2 PUSH1 0x20 ADD SWAP2 PUSH2 0x46D JUMP JUMPDEST DUP3 ADD SWAP2 SWAP1 PUSH0 MSTORE PUSH1 0x20 PUSH0 KECCAK256 SWAP1 JUMPDEST DUP2 SLOAD DUP2 MSTORE SWAP1 PUSH1 0x1 ADD SWAP1 PUSH1 0x20 ADD DUP1 DUP4 GT PUSH2 0x450 JUMPI DUP3 SWAP1 SUB PUSH1 0x1F AND DUP3 ADD SWAP2 JUMPDEST POP POP POP POP POP DUP2 MSTORE PUSH1 0x20 ADD PUSH1 0x2 DUP3 ADD PUSH0 SWAP1 SLOAD SWAP1 PUSH2 0x100 EXP SWAP1 DIV PUSH20 0xFFFFFFFFFFFFFFFFFFFFFFFFFFFFFFFFFFFFFFFF AND PUSH20 0xFFFFFFFFFFFFFFFFFFFFFFFFFFFFFFFFFFFFFFFF AND PUSH20 0xFFFFFFFFFFFFFFFFFFFFFFFFFFFFFFFFFFFFFFFF AND DUP2 MSTORE PUSH1 0x20 ADD PUSH1 0x3 DUP3 ADD SLOAD DUP2 MSTORE POP POP SWAP1 POP PUSH0 DUP1 JUMPDEST PUSH1 0x2 PUSH0 DUP7 DUP2 MSTORE PUSH1 0x20 ADD SWAP1 DUP2 MSTORE PUSH1 0x20 ADD PUSH0 KECCAK256 DUP1 SLOAD SWAP1 POP DUP2 LT ISZERO PUSH2 0x543 JUMPI PUSH1 0x2 PUSH0 DUP7 DUP2 MSTORE PUSH1 0x20 ADD SWAP1 DUP2 MSTORE PUSH1 0x20 ADD PUSH0 KECCAK256 DUP2 DUP2 SLOAD DUP2 LT PUSH2 0x519 JUMPI PUSH2 0x518 PUSH2 0x1037 JUMP JUMPDEST JUMPDEST SWAP1 PUSH0 MSTORE PUSH1 0x20 PUSH0 KECCAK256 SWAP1 PUSH1 0x3 MUL ADD PUSH1 0x2 ADD SLOAD DUP3 PUSH2 0x534 SWAP2 SWAP1 PUSH2 0x1091 JUMP JUMPDEST SWAP2 POP DUP1 DUP1 PUSH1 0x1 ADD SWAP2 POP POP PUSH2 0x4DA JUMP JUMPDEST POP DUP1 DUP3 PUSH1 0x60 ADD MLOAD PUSH2 0x554 SWAP2 SWAP1 PUSH2 0x1091 JUMP JUMPDEST SWAP3 POP POP POP SWAP2 SWAP1 POP JUMP JUMPDEST PUSH1 0x4 SLOAD DUP2 JUMP JUMPDEST PUSH1 0x1 PUSH1 0x20 MSTORE DUP1 PUSH0 MSTORE PUSH1 0x40 PUSH0 KECCAK256 PUSH0 SWAP2 POP SWAP1 POP DUP1 PUSH0 ADD SLOAD SWAP1 DUP1 PUSH1 0x1 ADD PUSH0 SWAP1 SLOAD SWAP1 PUSH2 0x100 EXP SWAP1 DIV PUSH20 0xFFFFFFFFFFFFFFFFFFFFFFFFFFFFFFFFFFFFFFFF AND SWAP1 DUP1 PUSH1 0x2 ADD SLOAD SWAP1 DUP1 PUSH1 0x3 ADD SLOAD SWAP1 POP DUP5 JUMP JUMPDEST CALLER PUSH20 0xFFFFFFFFFFFFFFFFFFFFFFFFFFFFFFFFFFFFFFFF AND PUSH0 DUP1 DUP7 DUP2 MSTORE PUSH1 0x20 ADD SWAP1 DUP2 MSTORE PUSH1 0x20 ADD PUSH0 KECCAK256 PUSH1 0x2 ADD PUSH0 SWAP1 SLOAD SWAP1 PUSH2 0x100 EXP SWAP1 DIV PUSH20 0xFFFFFFFFFFFFFFFFFFFFFFFFFFFFFFFFFFFFFFFF AND PUSH20 0xFFFFFFFFFFFFFFFFFFFFFFFFFFFFFFFFFFFFFFFF AND EQ PUSH2 0x64E JUMPI PUSH1 0x40 MLOAD PUSH32 0x8C379A000000000000000000000000000000000000000000000000000000000 DUP2 MSTORE PUSH1 0x4 ADD PUSH2 0x645 SWAP1 PUSH2 0x1134 JUMP JUMPDEST PUSH1 0x40 MLOAD DUP1 SWAP2 SUB SWAP1 REVERT JUMPDEST PUSH1 0x2 PUSH0 DUP6 DUP2 MSTORE PUSH1 0x20 ADD SWAP1 DUP2 MSTORE PUSH1 0x20 ADD PUSH0 KECCAK256 PUSH1 0x40 MLOAD DUP1 PUSH1 0x60 ADD PUSH1 0x40 MSTORE DUP1 DUP6 DUP2 MSTORE PUSH1 0x20 ADD DUP5 DUP2 MSTORE PUSH1 0x20 ADD DUP4 DUP2 MSTORE POP SWAP1 DUP1 PUSH1 0x1 DUP2 SLOAD ADD DUP1 DUP3 SSTORE DUP1 SWAP2 POP POP PUSH1 0x1 SWAP1 SUB SWAP1 PUSH0 MSTORE PUSH1 0x20 PUSH0 KECCAK256 SWAP1 PUSH1 0x3 MUL ADD PUSH0 SWAP1 SWAP2 SWAP1 SWAP2 SWAP1 SWAP2 POP PUSH0 DUP3 ADD MLOAD DUP2 PUSH0 ADD SWAP1 DUP2 PUSH2 0x6B3 SWAP2 SWAP1 PUSH2 0x12EF JUMP JUMPDEST POP PUSH1 0x20 DUP3 ADD MLOAD DUP2 PUSH1 0x1 ADD SWAP1 DUP2 PUSH2 0x6C9 SWAP2 SWAP1 PUSH2 0x12EF JUMP JUMPDEST POP PUSH1 0x40 DUP3 ADD MLOAD DUP2 PUSH1 0x2 ADD SSTORE POP POP POP POP POP POP JUMP JUMPDEST PUSH1 0x1 PUSH0 DUP4 DUP2 MSTORE PUSH1 0x20 ADD SWAP1 DUP2 MSTORE PUSH1 0x20 ADD PUSH0 KECCAK256 PUSH1 0x1 ADD PUSH0 SWAP1 SLOAD SWAP1 PUSH2 0x100 EXP SWAP1 DIV PUSH20 0xFFFFFFFFFFFFFFFFFFFFFFFFFFFFFFFFFFFFFFFF AND PUSH20 0xFFFFFFFFFFFFFFFFFFFFFFFFFFFFFFFFFFFFFFFF AND CALLER PUSH20 0xFFFFFFFFFFFFFFFFFFFFFFFFFFFFFFFFFFFFFFFF AND EQ PUSH2 0x77D JUMPI PUSH1 0x40 MLOAD PUSH32 0x8C379A000000000000000000000000000000000000000000000000000000000 DUP2 MSTORE PUSH1 0x4 ADD PUSH2 0x774 SWAP1 PUSH2 0x1408 JUMP JUMPDEST PUSH1 0x40 MLOAD DUP1 SWAP2 SUB SWAP1 REVERT JUMPDEST PUSH0 PUSH1 0x1 PUSH0 DUP5 DUP2 MSTORE PUSH1 0x20 ADD SWAP1 DUP2 MSTORE PUSH1 0x20 ADD PUSH0 KECCAK256 SWAP1 POP PUSH0 PUSH1 0x64 DUP3 PUSH1 0x2 ADD SLOAD DUP5 PUSH2 0x7A4 SWAP2 SWAP1 PUSH2 0x1426 JUMP JUMPDEST PUSH2 0x7AE SWAP2 SWAP1 PUSH2 0x1494 JUMP JUMPDEST SWAP1 POP DUP1 DUP3 PUSH1 0x3 ADD PUSH0 DUP3 DUP3 SLOAD PUSH2 0x7C3 SWAP2 SWAP1 PUSH2 0x1091 JUMP JUMPDEST SWAP3 POP POP DUP2 SWAP1 SSTORE POP POP POP POP POP JUMP JUMPDEST PUSH1 0x3 SLOAD DUP2 JUMP JUMPDEST CALLER PUSH20 0xFFFFFFFFFFFFFFFFFFFFFFFFFFFFFFFFFFFFFFFF AND PUSH0 DUP1 DUP6 DUP2 MSTORE PUSH1 0x20 ADD SWAP1 DUP2 MSTORE PUSH1 0x20 ADD PUSH0 KECCAK256 PUSH1 0x2 ADD PUSH0 SWAP1 SLOAD SWAP1 PUSH2 0x100 EXP SWAP1 DIV PUSH20 0xFFFFFFFFFFFFFFFFFFFFFFFFFFFFFFFFFFFFFFFF AND PUSH20 0xFFFFFFFFFFFFFFFFFFFFFFFFFFFFFFFFFFFFFFFF AND EQ PUSH2 0x876 JUMPI PUSH1 0x40 MLOAD PUSH32 0x8C379A000000000000000000000000000000000000000000000000000000000 DUP2 MSTORE PUSH1 0x4 ADD PUSH2 0x86D SWAP1 PUSH2 0x1534 JUMP JUMPDEST PUSH1 0x40 MLOAD DUP1 SWAP2 SUB SWAP1 REVERT JUMPDEST PUSH1 0x4 PUSH0 DUP2 SLOAD DUP1 SWAP3 SWAP2 SWAP1 PUSH2 0x888 SWAP1 PUSH2 0x1552 JUMP JUMPDEST SWAP2 SWAP1 POP SSTORE POP PUSH1 0x40 MLOAD DUP1 PUSH1 0x80 ADD PUSH1 0x40 MSTORE DUP1 PUSH1 0x4 SLOAD DUP2 MSTORE PUSH1 0x20 ADD DUP3 PUSH20 0xFFFFFFFFFFFFFFFFFFFFFFFFFFFFFFFFFFFFFFFF AND DUP2 MSTORE PUSH1 0x20 ADD DUP4 DUP2 MSTORE PUSH1 0x20 ADD PUSH0 DUP2 MSTORE POP PUSH1 0x1 PUSH0 PUSH1 0x4 SLOAD DUP2 MSTORE PUSH1 0x20 ADD SWAP1 DUP2 MSTORE PUSH1 0x20 ADD PUSH0 KECCAK256 PUSH0 DUP3 ADD MLOAD DUP2 PUSH0 ADD SSTORE PUSH1 0x20 DUP3 ADD MLOAD DUP2 PUSH1 0x1 ADD PUSH0 PUSH2 0x100 EXP DUP2 SLOAD DUP2 PUSH20 0xFFFFFFFFFFFFFFFFFFFFFFFFFFFFFFFFFFFFFFFF MUL NOT AND SWAP1 DUP4 PUSH20 0xFFFFFFFFFFFFFFFFFFFFFFFFFFFFFFFFFFFFFFFF AND MUL OR SWAP1 SSTORE POP PUSH1 0x40 DUP3 ADD MLOAD DUP2 PUSH1 0x2 ADD SSTORE PUSH1 0x60 DUP3 ADD MLOAD DUP2 PUSH1 0x3 ADD SSTORE SWAP1 POP POP POP POP POP JUMP JUMPDEST PUSH1 0x3 PUSH0 DUP2 SLOAD DUP1 SWAP3 SWAP2 SWAP1 PUSH2 0x955 SWAP1 PUSH2 0x1552 JUMP JUMPDEST SWAP2 SWAP1 POP SSTORE POP PUSH1 0x40 MLOAD DUP1 PUSH1 0x80 ADD PUSH1 0x40 MSTORE DUP1 PUSH1 0x3 SLOAD DUP2 MSTORE PUSH1 0x20 ADD DUP4 DUP2 MSTORE PUSH1 0x20 ADD CALLER PUSH20 0xFFFFFFFFFFFFFFFFFFFFFFFFFFFFFFFFFFFFFFFF AND DUP2 MSTORE PUSH1 0x20 ADD DUP3 DUP2 MSTORE POP PUSH0 DUP1 PUSH1 0x3 SLOAD DUP2 MSTORE PUSH1 0x20 ADD SWAP1 DUP2 MSTORE PUSH1 0x20 ADD PUSH0 KECCAK256 PUSH0 DUP3 ADD MLOAD DUP2 PUSH0 ADD SSTORE PUSH1 0x20 DUP3 ADD MLOAD DUP2 PUSH1 0x1 ADD SWAP1 DUP2 PUSH2 0x9C2 SWAP2 SWAP1 PUSH2 0x12EF JUMP JUMPDEST POP PUSH1 0x40 DUP3 ADD MLOAD DUP2 PUSH1 0x2 ADD PUSH0 PUSH2 0x100 EXP DUP2 SLOAD DUP2 PUSH20 0xFFFFFFFFFFFFFFFFFFFFFFFFFFFFFFFFFFFFFFFF MUL NOT AND SWAP1 DUP4 PUSH20 0xFFFFFFFFFFFFFFFFFFFFFFFFFFFFFFFFFFFFFFFF AND MUL OR SWAP1 SSTORE POP PUSH1 0x60 DUP3 ADD MLOAD DUP2 PUSH1 0x3 ADD SSTORE SWAP1 POP POP POP POP JUMP JUMPDEST PUSH0 PUSH1 0x20 MSTORE DUP1 PUSH0 MSTORE PUSH1 0x40 PUSH0 KECCAK256 PUSH0 SWAP2 POP SWAP1 POP DUP1 PUSH0 ADD SLOAD SWAP1 DUP1 PUSH1 0x1 ADD DUP1 SLOAD PUSH2 0xA3E SWAP1 PUSH2 0x1007 JUMP JUMPDEST DUP1 PUSH1 0x1F ADD PUSH1 0x20 DUP1 SWAP2 DIV MUL PUSH1 0x20 ADD PUSH1 0x40 MLOAD SWAP1 DUP2 ADD PUSH1 0x40 MSTORE DUP1 SWAP3 SWAP2 SWAP1 DUP2 DUP2 MSTORE PUSH1 0x20 ADD DUP3 DUP1 SLOAD PUSH2 0xA6A SWAP1 PUSH2 0x1007 JUMP JUMPDEST DUP1 ISZERO PUSH2 0xAB5 JUMPI DUP1 PUSH1 0x1F LT PUSH2 0xA8C JUMPI PUSH2 0x100 DUP1 DUP4 SLOAD DIV MUL DUP4 MSTORE SWAP2 PUSH1 0x20 ADD SWAP2 PUSH2 0xAB5 JUMP JUMPDEST DUP3 ADD SWAP2 SWAP1 PUSH0 MSTORE PUSH1 0x20 PUSH0 KECCAK256 SWAP1 JUMPDEST DUP2 SLOAD DUP2 MSTORE SWAP1 PUSH1 0x1 ADD SWAP1 PUSH1 0x20 ADD DUP1 DUP4 GT PUSH2 0xA98 JUMPI DUP3 SWAP1 SUB PUSH1 0x1F AND DUP3 ADD SWAP2 JUMPDEST POP POP POP POP POP SWAP1 DUP1 PUSH1 0x2 ADD PUSH0 SWAP1 SLOAD SWAP1 PUSH2 0x100 EXP SWAP1 DIV PUSH20 0xFFFFFFFFFFFFFFFFFFFFFFFFFFFFFFFFFFFFFFFF AND SWAP1 DUP1 PUSH1 0x3 ADD SLOAD SWAP1 POP DUP5 JUMP JUMPDEST PUSH0 PUSH1 0x40 MLOAD SWAP1 POP SWAP1 JUMP JUMPDEST PUSH0 DUP1 REVERT JUMPDEST PUSH0 DUP1 REVERT JUMPDEST PUSH0 DUP2 SWAP1 POP SWAP2 SWAP1 POP JUMP JUMPDEST PUSH2 0xB0D DUP2 PUSH2 0xAFB JUMP JUMPDEST DUP2 EQ PUSH2 0xB17 JUMPI PUSH0 DUP1 REVERT JUMPDEST POP JUMP JUMPDEST PUSH0 DUP2 CALLDATALOAD SWAP1 POP PUSH2 0xB28 DUP2 PUSH2 0xB04 JUMP JUMPDEST SWAP3 SWAP2 POP POP JUMP JUMPDEST PUSH0 DUP1 PUSH1 0x40 DUP4 DUP6 SUB SLT ISZERO PUSH2 0xB44 JUMPI PUSH2 0xB43 PUSH2 0xAF3 JUMP JUMPDEST JUMPDEST PUSH0 PUSH2 0xB51 DUP6 DUP3 DUP7 ADD PUSH2 0xB1A JUMP JUMPDEST SWAP3 POP POP PUSH1 0x20 PUSH2 0xB62 DUP6 DUP3 DUP7 ADD PUSH2 0xB1A JUMP JUMPDEST SWAP2 POP POP SWAP3 POP SWAP3 SWAP1 POP JUMP JUMPDEST PUSH0 DUP2 MLOAD SWAP1 POP SWAP2 SWAP1 POP JUMP JUMPDEST PUSH0 DUP3 DUP3 MSTORE PUSH1 0x20 DUP3 ADD SWAP1 POP SWAP3 SWAP2 POP POP JUMP JUMPDEST DUP3 DUP2 DUP4 MCOPY PUSH0 DUP4 DUP4 ADD MSTORE POP POP POP JUMP JUMPDEST PUSH0 PUSH1 0x1F NOT PUSH1 0x1F DUP4 ADD AND SWAP1 POP SWAP2 SWAP1 POP JUMP JUMPDEST PUSH0 PUSH2 0xBAE DUP3 PUSH2 0xB6C JUMP JUMPDEST PUSH2 0xBB8 DUP2 DUP6 PUSH2 0xB76 JUMP JUMPDEST SWAP4 POP PUSH2 0xBC8 DUP2 DUP6 PUSH1 0x20 DUP7 ADD PUSH2 0xB86 JUMP JUMPDEST PUSH2 0xBD1 DUP2 PUSH2 0xB94 JUMP JUMPDEST DUP5 ADD SWAP2 POP POP SWAP3 SWAP2 POP POP JUMP JUMPDEST PUSH2 0xBE5 DUP2 PUSH2 0xAFB JUMP JUMPDEST DUP3 MSTORE POP POP JUMP JUMPDEST PUSH0 PUSH1 0x60 DUP3 ADD SWAP1 POP DUP2 DUP2 SUB PUSH0 DUP4 ADD MSTORE PUSH2 0xC03 DUP2 DUP7 PUSH2 0xBA4 JUMP JUMPDEST SWAP1 POP DUP2 DUP2 SUB PUSH1 0x20 DUP4 ADD MSTORE PUSH2 0xC17 DUP2 DUP6 PUSH2 0xBA4 JUMP JUMPDEST SWAP1 POP PUSH2 0xC26 PUSH1 0x40 DUP4 ADD DUP5 PUSH2 0xBDC JUMP JUMPDEST SWAP5 SWAP4 POP POP POP POP JUMP JUMPDEST PUSH0 PUSH1 0x20 DUP3 DUP5 SUB SLT ISZERO PUSH2 0xC43 JUMPI PUSH2 0xC42 PUSH2 0xAF3 JUMP JUMPDEST JUMPDEST PUSH0 PUSH2 0xC50 DUP5 DUP3 DUP6 ADD PUSH2 0xB1A JUMP JUMPDEST SWAP2 POP POP SWAP3 SWAP2 POP POP JUMP JUMPDEST PUSH0 PUSH1 0x20 DUP3 ADD SWAP1 POP PUSH2 0xC6C PUSH0 DUP4 ADD DUP5 PUSH2 0xBDC JUMP JUMPDEST SWAP3 SWAP2 POP POP JUMP JUMPDEST PUSH0 PUSH20 0xFFFFFFFFFFFFFFFFFFFFFFFFFFFFFFFFFFFFFFFF DUP3 AND SWAP1 POP SWAP2 SWAP1 POP JUMP JUMPDEST PUSH0 PUSH2 0xC9B DUP3 PUSH2 0xC72 JUMP JUMPDEST SWAP1 POP SWAP2 SWAP1 POP JUMP JUMPDEST PUSH2 0xCAB DUP2 PUSH2 0xC91 JUMP JUMPDEST DUP3 MSTORE POP POP JUMP JUMPDEST PUSH0 PUSH1 0x80 DUP3 ADD SWAP1 POP PUSH2 0xCC4 PUSH0 DUP4 ADD DUP8 PUSH2 0xBDC JUMP JUMPDEST PUSH2 0xCD1 PUSH1 0x20 DUP4 ADD DUP7 PUSH2 0xCA2 JUMP JUMPDEST PUSH2 0xCDE PUSH1 0x40 DUP4 ADD DUP6 PUSH2 0xBDC JUMP JUMPDEST PUSH2 0xCEB PUSH1 0x60 DUP4 ADD DUP5 PUSH2 0xBDC JUMP JUMPDEST SWAP6 SWAP5 POP POP POP POP POP JUMP JUMPDEST PUSH0 DUP1 REVERT JUMPDEST PUSH0 DUP1 REVERT JUMPDEST PUSH32 0x4E487B7100000000000000000000000000000000000000000000000000000000 PUSH0 MSTORE PUSH1 0x41 PUSH1 0x4 MSTORE PUSH1 0x24 PUSH0 REVERT JUMPDEST PUSH2 0xD32 DUP3 PUSH2 0xB94 JUMP JUMPDEST DUP2 ADD DUP2 DUP2 LT PUSH8 0xFFFFFFFFFFFFFFFF DUP3 GT OR ISZERO PUSH2 0xD51 JUMPI PUSH2 0xD50 PUSH2 0xCFC JUMP JUMPDEST JUMPDEST DUP1 PUSH1 0x40 MSTORE POP POP POP JUMP JUMPDEST PUSH0 PUSH2 0xD63 PUSH2 0xAEA JUMP JUMPDEST SWAP1 POP PUSH2 0xD6F DUP3 DUP3 PUSH2 0xD29 JUMP JUMPDEST SWAP2 SWAP1 POP JUMP JUMPDEST PUSH0 PUSH8 0xFFFFFFFFFFFFFFFF DUP3 GT ISZERO PUSH2 0xD8E JUMPI PUSH2 0xD8D PUSH2 0xCFC JUMP JUMPDEST JUMPDEST PUSH2 0xD97 DUP3 PUSH2 0xB94 JUMP JUMPDEST SWAP1 POP PUSH1 0x20 DUP2 ADD SWAP1 POP SWAP2 SWAP1 POP JUMP JUMPDEST DUP3 DUP2 DUP4 CALLDATACOPY PUSH0 DUP4 DUP4 ADD MSTORE POP POP POP JUMP JUMPDEST PUSH0 PUSH2 0xDC4 PUSH2 0xDBF DUP5 PUSH2 0xD74 JUMP JUMPDEST PUSH2 0xD5A JUMP JUMPDEST SWAP1 POP DUP3 DUP2 MSTORE PUSH1 0x20 DUP2 ADD DUP5 DUP5 DUP5 ADD GT ISZERO PUSH2 0xDE0 JUMPI PUSH2 0xDDF PUSH2 0xCF8 JUMP JUMPDEST JUMPDEST PUSH2 0xDEB DUP5 DUP3 DUP6 PUSH2 0xDA4 JUMP JUMPDEST POP SWAP4 SWAP3 POP POP POP JUMP JUMPDEST PUSH0 DUP3 PUSH1 0x1F DUP4 ADD SLT PUSH2 0xE07 JUMPI PUSH2 0xE06 PUSH2 0xCF4 JUMP JUMPDEST JUMPDEST DUP2 CALLDATALOAD PUSH2 0xE17 DUP5 DUP3 PUSH1 0x20 DUP7 ADD PUSH2 0xDB2 JUMP JUMPDEST SWAP2 POP POP SWAP3 SWAP2 POP POP JUMP JUMPDEST PUSH0 DUP1 PUSH0 DUP1 PUSH1 0x80 DUP6 DUP8 SUB SLT ISZERO PUSH2 0xE38 JUMPI PUSH2 0xE37 PUSH2 0xAF3 JUMP JUMPDEST JUMPDEST PUSH0 PUSH2 0xE45 DUP8 DUP3 DUP9 ADD PUSH2 0xB1A JUMP JUMPDEST SWAP5 POP POP PUSH1 0x20 DUP6 ADD CALLDATALOAD PUSH8 0xFFFFFFFFFFFFFFFF DUP2 GT ISZERO PUSH2 0xE66 JUMPI PUSH2 0xE65 PUSH2 0xAF7 JUMP JUMPDEST JUMPDEST PUSH2 0xE72 DUP8 DUP3 DUP9 ADD PUSH2 0xDF3 JUMP JUMPDEST SWAP4 POP POP PUSH1 0x40 DUP6 ADD CALLDATALOAD PUSH8 0xFFFFFFFFFFFFFFFF DUP2 GT ISZERO PUSH2 0xE93 JUMPI PUSH2 0xE92 PUSH2 0xAF7 JUMP JUMPDEST JUMPDEST PUSH2 0xE9F DUP8 DUP3 DUP9 ADD PUSH2 0xDF3 JUMP JUMPDEST SWAP3 POP POP PUSH1 0x60 PUSH2 0xEB0 DUP8 DUP3 DUP9 ADD PUSH2 0xB1A JUMP JUMPDEST SWAP2 POP POP SWAP3 SWAP6 SWAP2 SWAP5 POP SWAP3 POP JUMP JUMPDEST PUSH2 0xEC5 DUP2 PUSH2 0xC91 JUMP JUMPDEST DUP2 EQ PUSH2 0xECF JUMPI PUSH0 DUP1 REVERT JUMPDEST POP JUMP JUMPDEST PUSH0 DUP2 CALLDATALOAD SWAP1 POP PUSH2 0xEE0 DUP2 PUSH2 0xEBC JUMP JUMPDEST SWAP3 SWAP2 POP POP JUMP JUMPDEST PUSH0 DUP1 PUSH0 PUSH1 0x60 DUP5 DUP7 SUB SLT ISZERO PUSH2 0xEFD JUMPI PUSH2 0xEFC PUSH2 0xAF3 JUMP JUMPDEST JUMPDEST PUSH0 PUSH2 0xF0A DUP7 DUP3 DUP8 ADD PUSH2 0xB1A JUMP JUMPDEST SWAP4 POP POP PUSH1 0x20 PUSH2 0xF1B DUP7 DUP3 DUP8 ADD PUSH2 0xB1A JUMP JUMPDEST SWAP3 POP POP PUSH1 0x40 PUSH2 0xF2C DUP7 DUP3 DUP8 ADD PUSH2 0xED2 JUMP JUMPDEST SWAP2 POP POP SWAP3 POP SWAP3 POP SWAP3 JUMP JUMPDEST PUSH0 DUP1 PUSH1 0x40 DUP4 DUP6 SUB SLT ISZERO PUSH2 0xF4C JUMPI PUSH2 0xF4B PUSH2 0xAF3 JUMP JUMPDEST JUMPDEST PUSH0 DUP4 ADD CALLDATALOAD PUSH8 0xFFFFFFFFFFFFFFFF DUP2 GT ISZERO PUSH2 0xF69 JUMPI PUSH2 0xF68 PUSH2 0xAF7 JUMP JUMPDEST JUMPDEST PUSH2 0xF75 DUP6 DUP3 DUP7 ADD PUSH2 0xDF3 JUMP JUMPDEST SWAP3 POP POP PUSH1 0x20 PUSH2 0xF86 DUP6 DUP3 DUP7 ADD PUSH2 0xB1A JUMP JUMPDEST SWAP2 POP POP SWAP3 POP SWAP3 SWAP1 POP JUMP JUMPDEST PUSH0 PUSH1 0x80 DUP3 ADD SWAP1 POP PUSH2 0xFA3 PUSH0 DUP4 ADD DUP8 PUSH2 0xBDC JUMP JUMPDEST DUP2 DUP2 SUB PUSH1 0x20 DUP4 ADD MSTORE PUSH2 0xFB5 DUP2 DUP7 PUSH2 0xBA4 JUMP JUMPDEST SWAP1 POP PUSH2 0xFC4 PUSH1 0x40 DUP4 ADD DUP6 PUSH2 0xCA2 JUMP JUMPDEST PUSH2 0xFD1 PUSH1 0x60 DUP4 ADD DUP5 PUSH2 0xBDC JUMP JUMPDEST SWAP6 SWAP5 POP POP POP POP POP JUMP JUMPDEST PUSH32 0x4E487B7100000000000000000000000000000000000000000000000000000000 PUSH0 MSTORE PUSH1 0x22 PUSH1 0x4 MSTORE PUSH1 0x24 PUSH0 REVERT JUMPDEST PUSH0 PUSH1 0x2 DUP3 DIV SWAP1 POP PUSH1 0x1 DUP3 AND DUP1 PUSH2 0x101E JUMPI PUSH1 0x7F DUP3 AND SWAP2 POP JUMPDEST PUSH1 0x20 DUP3 LT DUP2 SUB PUSH2 0x1031 JUMPI PUSH2 0x1030 PUSH2 0xFDA JUMP JUMPDEST JUMPDEST POP SWAP2 SWAP1 POP JUMP JUMPDEST PUSH32 0x4E487B7100000000000000000000000000000000000000000000000000000000 PUSH0 MSTORE PUSH1 0x32 PUSH1 0x4 MSTORE PUSH1 0x24 PUSH0 REVERT JUMPDEST PUSH32 0x4E487B7100000000000000000000000000000000000000000000000000000000 PUSH0 MSTORE PUSH1 0x11 PUSH1 0x4 MSTORE PUSH1 0x24 PUSH0 REVERT JUMPDEST PUSH0 PUSH2 0x109B DUP3 PUSH2 0xAFB JUMP JUMPDEST SWAP2 POP PUSH2 0x10A6 DUP4 PUSH2 0xAFB JUMP JUMPDEST SWAP3 POP DUP3 DUP3 ADD SWAP1 POP DUP1 DUP3 GT ISZERO PUSH2 0x10BE JUMPI PUSH2 0x10BD PUSH2 0x1064 JUMP JUMPDEST JUMPDEST SWAP3 SWAP2 POP POP JUMP JUMPDEST PUSH32 0x4F6E6C7920706174656E74206F776E65722063616E206C6F6720616374697669 PUSH0 DUP3 ADD MSTORE PUSH32 0x746965732E000000000000000000000000000000000000000000000000000000 PUSH1 0x20 DUP3 ADD MSTORE POP JUMP JUMPDEST PUSH0 PUSH2 0x111E PUSH1 0x25 DUP4 PUSH2 0xB76 JUMP JUMPDEST SWAP2 POP PUSH2 0x1129 DUP3 PUSH2 0x10C4 JUMP JUMPDEST PUSH1 0x40 DUP3 ADD SWAP1 POP SWAP2 SWAP1 POP JUMP JUMPDEST PUSH0 PUSH1 0x20 DUP3 ADD SWAP1 POP DUP2 DUP2 SUB PUSH0 DUP4 ADD MSTORE PUSH2 0x114B DUP2 PUSH2 0x1112 JUMP JUMPDEST SWAP1 POP SWAP2 SWAP1 POP JUMP JUMPDEST PUSH0 DUP2 SWAP1 POP DUP2 PUSH0 MSTORE PUSH1 0x20 PUSH0 KECCAK256 SWAP1 POP SWAP2 SWAP1 POP JUMP JUMPDEST PUSH0 PUSH1 0x20 PUSH1 0x1F DUP4 ADD DIV SWAP1 POP SWAP2 SWAP1 POP JUMP JUMPDEST PUSH0 DUP3 DUP3 SHL SWAP1 POP SWAP3 SWAP2 POP POP JUMP JUMPDEST PUSH0 PUSH1 0x8 DUP4 MUL PUSH2 0x11AE PUSH32 0xFFFFFFFFFFFFFFFFFFFFFFFFFFFFFFFFFFFFFFFFFFFFFFFFFFFFFFFFFFFFFFFF DUP3 PUSH2 0x1173 JUMP JUMPDEST PUSH2 0x11B8 DUP7 DUP4 PUSH2 0x1173 JUMP JUMPDEST SWAP6 POP DUP1 NOT DUP5 AND SWAP4 POP DUP1 DUP7 AND DUP5 OR SWAP3 POP POP POP SWAP4 SWAP3 POP POP POP JUMP JUMPDEST PUSH0 DUP2 SWAP1 POP SWAP2 SWAP1 POP JUMP JUMPDEST PUSH0 PUSH2 0x11F3 PUSH2 0x11EE PUSH2 0x11E9 DUP5 PUSH2 0xAFB JUMP JUMPDEST PUSH2 0x11D0 JUMP JUMPDEST PUSH2 0xAFB JUMP JUMPDEST SWAP1 POP SWAP2 SWAP1 POP JUMP JUMPDEST PUSH0 DUP2 SWAP1 POP SWAP2 SWAP1 POP JUMP JUMPDEST PUSH2 0x120C DUP4 PUSH2 0x11D9 JUMP JUMPDEST PUSH2 0x1220 PUSH2 0x1218 DUP3 PUSH2 0x11FA JUMP JUMPDEST DUP5 DUP5 SLOAD PUSH2 0x117F JUMP JUMPDEST DUP3 SSTORE POP POP POP POP JUMP JUMPDEST PUSH0 SWAP1 JUMP JUMPDEST PUSH2 0x1234 PUSH2 0x1228 JUMP JUMPDEST PUSH2 0x123F DUP2 DUP5 DUP5 PUSH2 0x1203 JUMP JUMPDEST POP POP POP JUMP JUMPDEST JUMPDEST DUP2 DUP2 LT ISZERO PUSH2 0x1262 JUMPI PUSH2 0x1257 PUSH0 DUP3 PUSH2 0x122C JUMP JUMPDEST PUSH1 0x1 DUP2 ADD SWAP1 POP PUSH2 0x1245 JUMP JUMPDEST POP POP JUMP JUMPDEST PUSH1 0x1F DUP3 GT ISZERO PUSH2 0x12A7 JUMPI PUSH2 0x1278 DUP2 PUSH2 0x1152 JUMP JUMPDEST PUSH2 0x1281 DUP5 PUSH2 0x1164 JUMP JUMPDEST DUP2 ADD PUSH1 0x20 DUP6 LT ISZERO PUSH2 0x1290 JUMPI DUP2 SWAP1 POP JUMPDEST PUSH2 0x12A4 PUSH2 0x129C DUP6 PUSH2 0x1164 JUMP JUMPDEST DUP4 ADD DUP3 PUSH2 0x1244 JUMP JUMPDEST POP POP JUMPDEST POP POP POP JUMP JUMPDEST PUSH0 DUP3 DUP3 SHR SWAP1 POP SWAP3 SWAP2 POP POP JUMP JUMPDEST PUSH0 PUSH2 0x12C7 PUSH0 NOT DUP5 PUSH1 0x8 MUL PUSH2 0x12AC JUMP JUMPDEST NOT DUP1 DUP4 AND SWAP2 POP POP SWAP3 SWAP2 POP POP JUMP JUMPDEST PUSH0 PUSH2 0x12DF DUP4 DUP4 PUSH2 0x12B8 JUMP JUMPDEST SWAP2 POP DUP3 PUSH1 0x2 MUL DUP3 OR SWAP1 POP SWAP3 SWAP2 POP POP JUMP JUMPDEST PUSH2 0x12F8 DUP3 PUSH2 0xB6C JUMP JUMPDEST PUSH8 0xFFFFFFFFFFFFFFFF DUP2 GT ISZERO PUSH2 0x1311 JUMPI PUSH2 0x1310 PUSH2 0xCFC JUMP JUMPDEST JUMPDEST PUSH2 0x131B DUP3 SLOAD PUSH2 0x1007 JUMP JUMPDEST PUSH2 0x1326 DUP3 DUP3 DUP6 PUSH2 0x1266 JUMP JUMPDEST PUSH0 PUSH1 0x20 SWAP1 POP PUSH1 0x1F DUP4 GT PUSH1 0x1 DUP2 EQ PUSH2 0x1357 JUMPI PUSH0 DUP5 ISZERO PUSH2 0x1345 JUMPI DUP3 DUP8 ADD MLOAD SWAP1 POP JUMPDEST PUSH2 0x134F DUP6 DUP3 PUSH2 0x12D4 JUMP JUMPDEST DUP7 SSTORE POP PUSH2 0x13B6 JUMP JUMPDEST PUSH1 0x1F NOT DUP5 AND PUSH2 0x1365 DUP7 PUSH2 0x1152 JUMP JUMPDEST PUSH0 JUMPDEST DUP3 DUP2 LT ISZERO PUSH2 0x138C JUMPI DUP5 DUP10 ADD MLOAD DUP3 SSTORE PUSH1 0x1 DUP3 ADD SWAP2 POP PUSH1 0x20 DUP6 ADD SWAP5 POP PUSH1 0x20 DUP2 ADD SWAP1 POP PUSH2 0x1367 JUMP JUMPDEST DUP7 DUP4 LT ISZERO PUSH2 0x13A9 JUMPI DUP5 DUP10 ADD MLOAD PUSH2 0x13A5 PUSH1 0x1F DUP10 AND DUP3 PUSH2 0x12B8 JUMP JUMPDEST DUP4 SSTORE POP JUMPDEST PUSH1 0x1 PUSH1 0x2 DUP9 MUL ADD DUP9 SSTORE POP POP POP JUMPDEST POP POP POP POP POP POP JUMP JUMPDEST PUSH32 0x4F6E6C79206C6963656E7365652063616E2070617920726F79616C746965732E PUSH0 DUP3 ADD MSTORE POP JUMP JUMPDEST PUSH0 PUSH2 0x13F2 PUSH1 0x20 DUP4 PUSH2 0xB76 JUMP JUMPDEST SWAP2 POP PUSH2 0x13FD DUP3 PUSH2 0x13BE JUMP JUMPDEST PUSH1 0x20 DUP3 ADD SWAP1 POP SWAP2 SWAP1 POP JUMP JUMPDEST PUSH0 PUSH1 0x20 DUP3 ADD SWAP1 POP DUP2 DUP2 SUB PUSH0 DUP4 ADD MSTORE PUSH2 0x141F DUP2 PUSH2 0x13E6 JUMP JUMPDEST SWAP1 POP SWAP2 SWAP1 POP JUMP JUMPDEST PUSH0 PUSH2 0x1430 DUP3 PUSH2 0xAFB JUMP JUMPDEST SWAP2 POP PUSH2 0x143B DUP4 PUSH2 0xAFB JUMP JUMPDEST SWAP3 POP DUP3 DUP3 MUL PUSH2 0x1449 DUP2 PUSH2 0xAFB JUMP JUMPDEST SWAP2 POP DUP3 DUP3 DIV DUP5 EQ DUP4 ISZERO OR PUSH2 0x1460 JUMPI PUSH2 0x145F PUSH2 0x1064 JUMP JUMPDEST JUMPDEST POP SWAP3 SWAP2 POP POP JUMP JUMPDEST PUSH32 0x4E487B7100000000000000000000000000000000000000000000000000000000 PUSH0 MSTORE PUSH1 0x12 PUSH1 0x4 MSTORE PUSH1 0x24 PUSH0 REVERT JUMPDEST PUSH0 PUSH2 0x149E DUP3 PUSH2 0xAFB JUMP JUMPDEST SWAP2 POP PUSH2 0x14A9 DUP4 PUSH2 0xAFB JUMP JUMPDEST SWAP3 POP DUP3 PUSH2 0x14B9 JUMPI PUSH2 0x14B8 PUSH2 0x1467 JUMP JUMPDEST JUMPDEST DUP3 DUP3 DIV SWAP1 POP SWAP3 SWAP2 POP POP JUMP JUMPDEST PUSH32 0x4F6E6C7920706174656E74206F776E65722063616E20616464206C6963656E73 PUSH0 DUP3 ADD MSTORE PUSH32 0x652E000000000000000000000000000000000000000000000000000000000000 PUSH1 0x20 DUP3 ADD MSTORE POP JUMP JUMPDEST PUSH0 PUSH2 0x151E PUSH1 0x22 DUP4 PUSH2 0xB76 JUMP JUMPDEST SWAP2 POP PUSH2 0x1529 DUP3 PUSH2 0x14C4 JUMP JUMPDEST PUSH1 0x40 DUP3 ADD SWAP1 POP SWAP2 SWAP1 POP JUMP JUMPDEST PUSH0 PUSH1 0x20 DUP3 ADD SWAP1 POP DUP2 DUP2 SUB PUSH0 DUP4 ADD MSTORE PUSH2 0x154B DUP2 PUSH2 0x1512 JUMP JUMPDEST SWAP1 POP SWAP2 SWAP1 POP JUMP JUMPDEST PUSH0 PUSH2 0x155C DUP3 PUSH2 0xAFB JUMP JUMPDEST SWAP2 POP PUSH32 0xFFFFFFFFFFFFFFFFFFFFFFFFFFFFFFFFFFFFFFFFFFFFFFFFFFFFFFFFFFFFFFFF DUP3 SUB PUSH2 0x158E JUMPI PUSH2 0x158D PUSH2 0x1064 JUMP JUMPDEST JUMPDEST PUSH1 0x1 DUP3 ADD SWAP1 POP SWAP2 SWAP1 POP JUMP INVALID LOG2 PUSH5 0x6970667358 0x22 SLT KECCAK256 PUSH29 0xD847AA990BCB9EB52A19B28B2979844CE9D3D937198F918F6E2B29FDCE 0xC 0xEB PUSH5 0x736F6C6343 STOP ADDMOD BYTE STOP CALLER "
				},
				"gasEstimates": {
					"creation": {
						"codeDepositCost": "1116600",
						"executionCost": "11168",
						"totalCost": "1127768"
					},
					"external": {
						"addLicense(uint256,uint256,address)": "infinite",
						"addPatent(string,uint256)": "infinite",
						"calculatePatentValue(uint256)": "infinite",
						"commercializationActivities(uint256,uint256)": "infinite",
						"licenseCount()": "2470",
						"licenses(uint256)": "infinite",
						"logActivity(uint256,string,string,uint256)": "infinite",
						"patentCount()": "2447",
						"patents(uint256)": "infinite",
						"payRoyalties(uint256,uint256)": "infinite"
					}
				},
				"methodIdentifiers": {
					"addLicense(uint256,uint256,address)": "c19cb3aa",
					"addPatent(string,uint256)": "cbe8da8d",
					"calculatePatentValue(uint256)": "1a5b9ed4",
					"commercializationActivities(uint256,uint256)": "16924dea",
					"licenseCount()": "2fbccc27",
					"licenses(uint256)": "33790845",
					"logActivity(uint256,string,string,uint256)": "a0237805",
					"patentCount()": "b084c841",
					"patents(uint256)": "f422bc68",
					"payRoyalties(uint256,uint256)": "a5fe8a4d"
				}
			},
			"storageLayout": {
				"storage": [
					{
						"astId": 31,
						"contract": "contracts/PatentBots.sol:PatentBot",
						"label": "patents",
						"offset": 0,
						"slot": "0",
						"type": "t_mapping(t_uint256,t_struct(Patent)10_storage)"
					},
					{
						"astId": 36,
						"contract": "contracts/PatentBots.sol:PatentBot",
						"label": "licenses",
						"offset": 0,
						"slot": "1",
						"type": "t_mapping(t_uint256,t_struct(License)19_storage)"
					},
					{
						"astId": 42,
						"contract": "contracts/PatentBots.sol:PatentBot",
						"label": "commercializationActivities",
						"offset": 0,
						"slot": "2",
						"type": "t_mapping(t_uint256,t_array(t_struct(CommercialActivity)26_storage)dyn_storage)"
					},
					{
						"astId": 45,
						"contract": "contracts/PatentBots.sol:PatentBot",
						"label": "patentCount",
						"offset": 0,
						"slot": "3",
						"type": "t_uint256"
					},
					{
						"astId": 48,
						"contract": "contracts/PatentBots.sol:PatentBot",
						"label": "licenseCount",
						"offset": 0,
						"slot": "4",
						"type": "t_uint256"
					}
				],
				"types": {
					"t_address": {
						"encoding": "inplace",
						"label": "address",
						"numberOfBytes": "20"
					},
					"t_array(t_struct(CommercialActivity)26_storage)dyn_storage": {
						"base": "t_struct(CommercialActivity)26_storage",
						"encoding": "dynamic_array",
						"label": "struct PatentBot.CommercialActivity[]",
						"numberOfBytes": "32"
					},
					"t_mapping(t_uint256,t_array(t_struct(CommercialActivity)26_storage)dyn_storage)": {
						"encoding": "mapping",
						"key": "t_uint256",
						"label": "mapping(uint256 => struct PatentBot.CommercialActivity[])",
						"numberOfBytes": "32",
						"value": "t_array(t_struct(CommercialActivity)26_storage)dyn_storage"
					},
					"t_mapping(t_uint256,t_struct(License)19_storage)": {
						"encoding": "mapping",
						"key": "t_uint256",
						"label": "mapping(uint256 => struct PatentBot.License)",
						"numberOfBytes": "32",
						"value": "t_struct(License)19_storage"
					},
					"t_mapping(t_uint256,t_struct(Patent)10_storage)": {
						"encoding": "mapping",
						"key": "t_uint256",
						"label": "mapping(uint256 => struct PatentBot.Patent)",
						"numberOfBytes": "32",
						"value": "t_struct(Patent)10_storage"
					},
					"t_string_storage": {
						"encoding": "bytes",
						"label": "string",
						"numberOfBytes": "32"
					},
					"t_struct(CommercialActivity)26_storage": {
						"encoding": "inplace",
						"label": "struct PatentBot.CommercialActivity",
						"members": [
							{
								"astId": 21,
								"contract": "contracts/PatentBots.sol:PatentBot",
								"label": "activityName",
								"offset": 0,
								"slot": "0",
								"type": "t_string_storage"
							},
							{
								"astId": 23,
								"contract": "contracts/PatentBots.sol:PatentBot",
								"label": "description",
								"offset": 0,
								"slot": "1",
								"type": "t_string_storage"
							},
							{
								"astId": 25,
								"contract": "contracts/PatentBots.sol:PatentBot",
								"label": "impact",
								"offset": 0,
								"slot": "2",
								"type": "t_uint256"
							}
						],
						"numberOfBytes": "96"
					},
					"t_struct(License)19_storage": {
						"encoding": "inplace",
						"label": "struct PatentBot.License",
						"members": [
							{
								"astId": 12,
								"contract": "contracts/PatentBots.sol:PatentBot",
								"label": "licenseId",
								"offset": 0,
								"slot": "0",
								"type": "t_uint256"
							},
							{
								"astId": 14,
								"contract": "contracts/PatentBots.sol:PatentBot",
								"label": "licensee",
								"offset": 0,
								"slot": "1",
								"type": "t_address"
							},
							{
								"astId": 16,
								"contract": "contracts/PatentBots.sol:PatentBot",
								"label": "royaltyPercentage",
								"offset": 0,
								"slot": "2",
								"type": "t_uint256"
							},
							{
								"astId": 18,
								"contract": "contracts/PatentBots.sol:PatentBot",
								"label": "royaltiesPaid",
								"offset": 0,
								"slot": "3",
								"type": "t_uint256"
							}
						],
						"numberOfBytes": "128"
					},
					"t_struct(Patent)10_storage": {
						"encoding": "inplace",
						"label": "struct PatentBot.Patent",
						"members": [
							{
								"astId": 3,
								"contract": "contracts/PatentBots.sol:PatentBot",
								"label": "patentId",
								"offset": 0,
								"slot": "0",
								"type": "t_uint256"
							},
							{
								"astId": 5,
								"contract": "contracts/PatentBots.sol:PatentBot",
								"label": "patentName",
								"offset": 0,
								"slot": "1",
								"type": "t_string_storage"
							},
							{
								"astId": 7,
								"contract": "contracts/PatentBots.sol:PatentBot",
								"label": "owner",
								"offset": 0,
								"slot": "2",
								"type": "t_address"
							},
							{
								"astId": 9,
								"contract": "contracts/PatentBots.sol:PatentBot",
								"label": "baseValue",
								"offset": 0,
								"slot": "3",
								"type": "t_uint256"
							}
						],
						"numberOfBytes": "128"
					},
					"t_uint256": {
						"encoding": "inplace",
						"label": "uint256",
						"numberOfBytes": "32"
					}
				}
			},
			"userdoc": {
				"kind": "user",
				"methods": {},
				"version": 1
			}
		}
	}
}