{
	"contracts/LicenseManager.sol": {
		"LicenseManager": {
			"abi": [
				{
					"inputs": [
						{
							"internalType": "uint256",
							"name": "_patentId",
							"type": "uint256"
						},
						{
							"internalType": "uint256",
							"name": "_royaltyPercentage",
							"type": "uint256"
						},
						{
							"internalType": "address",
							"name": "_licensee",
							"type": "address"
						}
					],
					"name": "addLicense",
					"outputs": [],
					"stateMutability": "nonpayable",
					"type": "function"
				},
				{
					"inputs": [],
					"name": "licenseCount",
					"outputs": [
						{
							"internalType": "uint256",
							"name": "",
							"type": "uint256"
						}
					],
					"stateMutability": "view",
					"type": "function"
				},
				{
					"inputs": [
						{
							"internalType": "uint256",
							"name": "",
							"type": "uint256"
						}
					],
					"name": "licenses",
					"outputs": [
						{
							"internalType": "uint256",
							"name": "licenseId",
							"type": "uint256"
						},
						{
							"internalType": "uint256",
							"name": "patentId",
							"type": "uint256"
						},
						{
							"internalType": "address",
							"name": "licensee",
							"type": "address"
						},
						{
							"internalType": "uint256",
							"name": "royaltyPercentage",
							"type": "uint256"
						},
						{
							"internalType": "uint256",
							"name": "royaltiesPaid",
							"type": "uint256"
						}
					],
					"stateMutability": "view",
					"type": "function"
				},
				{
					"inputs": [
						{
							"internalType": "uint256",
							"name": "_licenseId",
							"type": "uint256"
						},
						{
							"internalType": "uint256",
							"name": "_amount",
							"type": "uint256"
						}
					],
					"name": "payRoyalties",
					"outputs": [],
					"stateMutability": "payable",
					"type": "function"
				}
			],
			"devdoc": {
				"kind": "dev",
				"methods": {},
				"version": 1
			},
			"evm": {
				"assembly": "    /* \"contracts/LicenseManager.sol\":60:865  contract LicenseManager {... */\n  mstore(0x40, 0x80)\n  callvalue\n  dup1\n  iszero\n  tag_1\n  jumpi\n  0x00\n  dup1\n  revert\ntag_1:\n  pop\n  dataSize(sub_0)\n  dup1\n  dataOffset(sub_0)\n  0x00\n  codecopy\n  0x00\n  return\nstop\n\nsub_0: assembly {\n        /* \"contracts/LicenseManager.sol\":60:865  contract LicenseManager {... */\n      mstore(0x40, 0x80)\n      jumpi(tag_1, lt(calldatasize, 0x04))\n      shr(0xe0, calldataload(0x00))\n      dup1\n      0x2fbccc27\n      eq\n      tag_2\n      jumpi\n      dup1\n      0x33790845\n      eq\n      tag_3\n      jumpi\n      dup1\n      0xa5fe8a4d\n      eq\n      tag_4\n      jumpi\n      dup1\n      0xc19cb3aa\n      eq\n      tag_5\n      jumpi\n    tag_1:\n      0x00\n      dup1\n      revert\n        /* \"contracts/LicenseManager.sol\":272:299  uint256 public licenseCount */\n    tag_2:\n      callvalue\n      dup1\n      iszero\n      tag_6\n      jumpi\n      0x00\n      dup1\n      revert\n    tag_6:\n      pop\n      tag_7\n      tag_8\n      jump\t// in\n    tag_7:\n      mload(0x40)\n      tag_9\n      swap2\n      swap1\n      tag_10\n      jump\t// in\n    tag_9:\n      mload(0x40)\n      dup1\n      swap2\n      sub\n      swap1\n      return\n        /* \"contracts/LicenseManager.sol\":306:349  mapping(uint256 => License) public licenses */\n    tag_3:\n      callvalue\n      dup1\n      iszero\n      tag_11\n      jumpi\n      0x00\n      dup1\n      revert\n    tag_11:\n      pop\n      tag_12\n      0x04\n      dup1\n      calldatasize\n      sub\n      dup2\n      add\n      swap1\n      tag_13\n      swap2\n      swap1\n      tag_14\n      jump\t// in\n    tag_13:\n      tag_15\n      jump\t// in\n    tag_12:\n      mload(0x40)\n      tag_16\n      swap6\n      swap5\n      swap4\n      swap3\n      swap2\n      swap1\n      tag_17\n      jump\t// in\n    tag_16:\n      mload(0x40)\n      dup1\n      swap2\n      sub\n      swap1\n      return\n        /* \"contracts/LicenseManager.sol\":594:862  function payRoyalties(uint256 _licenseId, uint256 _amount) public payable {... */\n    tag_4:\n      tag_18\n      0x04\n      dup1\n      calldatasize\n      sub\n      dup2\n      add\n      swap1\n      tag_19\n      swap2\n      swap1\n      tag_20\n      jump\t// in\n    tag_19:\n      tag_21\n      jump\t// in\n    tag_18:\n      stop\n        /* \"contracts/LicenseManager.sol\":358:586  function addLicense(uint256 _patentId, uint256 _royaltyPercentage, address _licensee) public {... */\n    tag_5:\n      callvalue\n      dup1\n      iszero\n      tag_22\n      jumpi\n      0x00\n      dup1\n      revert\n    tag_22:\n      pop\n      tag_23\n      0x04\n      dup1\n      calldatasize\n      sub\n      dup2\n      add\n      swap1\n      tag_24\n      swap2\n      swap1\n      tag_25\n      jump\t// in\n    tag_24:\n      tag_26\n      jump\t// in\n    tag_23:\n      stop\n        /* \"contracts/LicenseManager.sol\":272:299  uint256 public licenseCount */\n    tag_8:\n      sload(0x00)\n      dup2\n      jump\t// out\n        /* \"contracts/LicenseManager.sol\":306:349  mapping(uint256 => License) public licenses */\n    tag_15:\n      mstore(0x20, 0x01)\n      dup1\n      0x00\n      mstore\n      keccak256(0x00, 0x40)\n      0x00\n      swap2\n      pop\n      swap1\n      pop\n      dup1\n      0x00\n      add\n      sload\n      swap1\n      dup1\n      0x01\n      add\n      sload\n      swap1\n      dup1\n      0x02\n      add\n      0x00\n      swap1\n      sload\n      swap1\n      0x0100\n      exp\n      swap1\n      div\n      0xffffffffffffffffffffffffffffffffffffffff\n      and\n      swap1\n      dup1\n      0x03\n      add\n      sload\n      swap1\n      dup1\n      0x04\n      add\n      sload\n      swap1\n      pop\n      dup6\n      jump\t// out\n        /* \"contracts/LicenseManager.sol\":594:862  function payRoyalties(uint256 _licenseId, uint256 _amount) public payable {... */\n    tag_21:\n        /* \"contracts/LicenseManager.sol\":679:702  License storage license */\n      0x00\n        /* \"contracts/LicenseManager.sol\":705:713  licenses */\n      0x01\n        /* \"contracts/LicenseManager.sol\":705:725  licenses[_licenseId] */\n      0x00\n        /* \"contracts/LicenseManager.sol\":714:724  _licenseId */\n      dup5\n        /* \"contracts/LicenseManager.sol\":705:725  licenses[_licenseId] */\n      dup2\n      mstore\n      0x20\n      add\n      swap1\n      dup2\n      mstore\n      0x20\n      add\n      0x00\n      keccak256\n        /* \"contracts/LicenseManager.sol\":679:725  License storage license = licenses[_licenseId] */\n      swap1\n      pop\n        /* \"contracts/LicenseManager.sol\":736:758  uint256 royaltyPayment */\n      0x00\n        /* \"contracts/LicenseManager.sol\":801:804  100 */\n      0x64\n        /* \"contracts/LicenseManager.sol\":772:779  license */\n      dup3\n        /* \"contracts/LicenseManager.sol\":772:797  license.royaltyPercentage */\n      0x03\n      add\n      sload\n        /* \"contracts/LicenseManager.sol\":762:769  _amount */\n      dup5\n        /* \"contracts/LicenseManager.sol\":762:797  _amount * license.royaltyPercentage */\n      tag_28\n      swap2\n      swap1\n      tag_29\n      jump\t// in\n    tag_28:\n        /* \"contracts/LicenseManager.sol\":761:804  (_amount * license.royaltyPercentage) / 100 */\n      tag_30\n      swap2\n      swap1\n      tag_31\n      jump\t// in\n    tag_30:\n        /* \"contracts/LicenseManager.sol\":736:804  uint256 royaltyPayment = (_amount * license.royaltyPercentage) / 100 */\n      swap1\n      pop\n        /* \"contracts/LicenseManager.sol\":840:854  royaltyPayment */\n      dup1\n        /* \"contracts/LicenseManager.sol\":815:822  license */\n      dup3\n        /* \"contracts/LicenseManager.sol\":815:836  license.royaltiesPaid */\n      0x04\n      add\n      0x00\n        /* \"contracts/LicenseManager.sol\":815:854  license.royaltiesPaid += royaltyPayment */\n      dup3\n      dup3\n      sload\n      tag_32\n      swap2\n      swap1\n      tag_33\n      jump\t// in\n    tag_32:\n      swap3\n      pop\n      pop\n      dup2\n      swap1\n      sstore\n      pop\n        /* \"contracts/LicenseManager.sol\":668:862  {... */\n      pop\n      pop\n        /* \"contracts/LicenseManager.sol\":594:862  function payRoyalties(uint256 _licenseId, uint256 _amount) public payable {... */\n      pop\n      pop\n      jump\t// out\n        /* \"contracts/LicenseManager.sol\":358:586  function addLicense(uint256 _patentId, uint256 _royaltyPercentage, address _licensee) public {... */\n    tag_26:\n        /* \"contracts/LicenseManager.sol\":462:474  licenseCount */\n      0x00\n      dup1\n        /* \"contracts/LicenseManager.sol\":462:476  licenseCount++ */\n      dup2\n      sload\n      dup1\n      swap3\n      swap2\n      swap1\n      tag_35\n      swap1\n      tag_36\n      jump\t// in\n    tag_35:\n      swap2\n      swap1\n      pop\n      sstore\n      pop\n        /* \"contracts/LicenseManager.sol\":512:578  License(licenseCount, _patentId, _licensee, _royaltyPercentage, 0) */\n      mload(0x40)\n      dup1\n      0xa0\n      add\n      0x40\n      mstore\n      dup1\n        /* \"contracts/LicenseManager.sol\":520:532  licenseCount */\n      sload(0x00)\n        /* \"contracts/LicenseManager.sol\":512:578  License(licenseCount, _patentId, _licensee, _royaltyPercentage, 0) */\n      dup2\n      mstore\n      0x20\n      add\n        /* \"contracts/LicenseManager.sol\":534:543  _patentId */\n      dup5\n        /* \"contracts/LicenseManager.sol\":512:578  License(licenseCount, _patentId, _licensee, _royaltyPercentage, 0) */\n      dup2\n      mstore\n      0x20\n      add\n        /* \"contracts/LicenseManager.sol\":545:554  _licensee */\n      dup3\n        /* \"contracts/LicenseManager.sol\":512:578  License(licenseCount, _patentId, _licensee, _royaltyPercentage, 0) */\n      0xffffffffffffffffffffffffffffffffffffffff\n      and\n      dup2\n      mstore\n      0x20\n      add\n        /* \"contracts/LicenseManager.sol\":556:574  _royaltyPercentage */\n      dup4\n        /* \"contracts/LicenseManager.sol\":512:578  License(licenseCount, _patentId, _licensee, _royaltyPercentage, 0) */\n      dup2\n      mstore\n      0x20\n      add\n        /* \"contracts/LicenseManager.sol\":576:577  0 */\n      0x00\n        /* \"contracts/LicenseManager.sol\":512:578  License(licenseCount, _patentId, _licensee, _royaltyPercentage, 0) */\n      dup2\n      mstore\n      pop\n        /* \"contracts/LicenseManager.sol\":487:495  licenses */\n      0x01\n        /* \"contracts/LicenseManager.sol\":487:509  licenses[licenseCount] */\n      0x00\n        /* \"contracts/LicenseManager.sol\":496:508  licenseCount */\n      dup1\n      sload\n        /* \"contracts/LicenseManager.sol\":487:509  licenses[licenseCount] */\n      dup2\n      mstore\n      0x20\n      add\n      swap1\n      dup2\n      mstore\n      0x20\n      add\n      0x00\n      keccak256\n        /* \"contracts/LicenseManager.sol\":487:578  licenses[licenseCount] = License(licenseCount, _patentId, _licensee, _royaltyPercentage, 0) */\n      0x00\n      dup3\n      add\n      mload\n      dup2\n      0x00\n      add\n      sstore\n      0x20\n      dup3\n      add\n      mload\n      dup2\n      0x01\n      add\n      sstore\n      0x40\n      dup3\n      add\n      mload\n      dup2\n      0x02\n      add\n      exp(0x0100, 0x00)\n      dup2\n      sload\n      dup2\n      0xffffffffffffffffffffffffffffffffffffffff\n      mul\n      not\n      and\n      swap1\n      dup4\n      0xffffffffffffffffffffffffffffffffffffffff\n      and\n      mul\n      or\n      swap1\n      sstore\n      pop\n      0x60\n      dup3\n      add\n      mload\n      dup2\n      0x03\n      add\n      sstore\n      0x80\n      dup3\n      add\n      mload\n      dup2\n      0x04\n      add\n      sstore\n      swap1\n      pop\n      pop\n        /* \"contracts/LicenseManager.sol\":358:586  function addLicense(uint256 _patentId, uint256 _royaltyPercentage, address _licensee) public {... */\n      pop\n      pop\n      pop\n      jump\t// out\n        /* \"#utility.yul\":7:84   */\n    tag_37:\n        /* \"#utility.yul\":44:51   */\n      0x00\n        /* \"#utility.yul\":73:78   */\n      dup2\n        /* \"#utility.yul\":62:78   */\n      swap1\n      pop\n        /* \"#utility.yul\":7:84   */\n      swap2\n      swap1\n      pop\n      jump\t// out\n        /* \"#utility.yul\":90:208   */\n    tag_38:\n        /* \"#utility.yul\":177:201   */\n      tag_54\n        /* \"#utility.yul\":195:200   */\n      dup2\n        /* \"#utility.yul\":177:201   */\n      tag_37\n      jump\t// in\n    tag_54:\n        /* \"#utility.yul\":172:175   */\n      dup3\n        /* \"#utility.yul\":165:202   */\n      mstore\n        /* \"#utility.yul\":90:208   */\n      pop\n      pop\n      jump\t// out\n        /* \"#utility.yul\":214:436   */\n    tag_10:\n        /* \"#utility.yul\":307:311   */\n      0x00\n        /* \"#utility.yul\":345:347   */\n      0x20\n        /* \"#utility.yul\":334:343   */\n      dup3\n        /* \"#utility.yul\":330:348   */\n      add\n        /* \"#utility.yul\":322:348   */\n      swap1\n      pop\n        /* \"#utility.yul\":358:429   */\n      tag_56\n        /* \"#utility.yul\":426:427   */\n      0x00\n        /* \"#utility.yul\":415:424   */\n      dup4\n        /* \"#utility.yul\":411:428   */\n      add\n        /* \"#utility.yul\":402:408   */\n      dup5\n        /* \"#utility.yul\":358:429   */\n      tag_38\n      jump\t// in\n    tag_56:\n        /* \"#utility.yul\":214:436   */\n      swap3\n      swap2\n      pop\n      pop\n      jump\t// out\n        /* \"#utility.yul\":523:640   */\n    tag_40:\n        /* \"#utility.yul\":632:633   */\n      0x00\n        /* \"#utility.yul\":629:630   */\n      dup1\n        /* \"#utility.yul\":622:634   */\n      revert\n        /* \"#utility.yul\":769:891   */\n    tag_42:\n        /* \"#utility.yul\":842:866   */\n      tag_61\n        /* \"#utility.yul\":860:865   */\n      dup2\n        /* \"#utility.yul\":842:866   */\n      tag_37\n      jump\t// in\n    tag_61:\n        /* \"#utility.yul\":835:840   */\n      dup2\n        /* \"#utility.yul\":832:867   */\n      eq\n        /* \"#utility.yul\":822:885   */\n      tag_62\n      jumpi\n        /* \"#utility.yul\":881:882   */\n      0x00\n        /* \"#utility.yul\":878:879   */\n      dup1\n        /* \"#utility.yul\":871:883   */\n      revert\n        /* \"#utility.yul\":822:885   */\n    tag_62:\n        /* \"#utility.yul\":769:891   */\n      pop\n      jump\t// out\n        /* \"#utility.yul\":897:1036   */\n    tag_43:\n        /* \"#utility.yul\":943:948   */\n      0x00\n        /* \"#utility.yul\":981:987   */\n      dup2\n        /* \"#utility.yul\":968:988   */\n      calldataload\n        /* \"#utility.yul\":959:988   */\n      swap1\n      pop\n        /* \"#utility.yul\":997:1030   */\n      tag_64\n        /* \"#utility.yul\":1024:1029   */\n      dup2\n        /* \"#utility.yul\":997:1030   */\n      tag_42\n      jump\t// in\n    tag_64:\n        /* \"#utility.yul\":897:1036   */\n      swap3\n      swap2\n      pop\n      pop\n      jump\t// out\n        /* \"#utility.yul\":1042:1371   */\n    tag_14:\n        /* \"#utility.yul\":1101:1107   */\n      0x00\n        /* \"#utility.yul\":1150:1152   */\n      0x20\n        /* \"#utility.yul\":1138:1147   */\n      dup3\n        /* \"#utility.yul\":1129:1136   */\n      dup5\n        /* \"#utility.yul\":1125:1148   */\n      sub\n        /* \"#utility.yul\":1121:1153   */\n      slt\n        /* \"#utility.yul\":1118:1237   */\n      iszero\n      tag_66\n      jumpi\n        /* \"#utility.yul\":1156:1235   */\n      tag_67\n      tag_40\n      jump\t// in\n    tag_67:\n        /* \"#utility.yul\":1118:1237   */\n    tag_66:\n        /* \"#utility.yul\":1276:1277   */\n      0x00\n        /* \"#utility.yul\":1301:1354   */\n      tag_68\n        /* \"#utility.yul\":1346:1353   */\n      dup5\n        /* \"#utility.yul\":1337:1343   */\n      dup3\n        /* \"#utility.yul\":1326:1335   */\n      dup6\n        /* \"#utility.yul\":1322:1344   */\n      add\n        /* \"#utility.yul\":1301:1354   */\n      tag_43\n      jump\t// in\n    tag_68:\n        /* \"#utility.yul\":1291:1354   */\n      swap2\n      pop\n        /* \"#utility.yul\":1247:1364   */\n      pop\n        /* \"#utility.yul\":1042:1371   */\n      swap3\n      swap2\n      pop\n      pop\n      jump\t// out\n        /* \"#utility.yul\":1377:1503   */\n    tag_44:\n        /* \"#utility.yul\":1414:1421   */\n      0x00\n        /* \"#utility.yul\":1454:1496   */\n      0xffffffffffffffffffffffffffffffffffffffff\n        /* \"#utility.yul\":1447:1452   */\n      dup3\n        /* \"#utility.yul\":1443:1497   */\n      and\n        /* \"#utility.yul\":1432:1497   */\n      swap1\n      pop\n        /* \"#utility.yul\":1377:1503   */\n      swap2\n      swap1\n      pop\n      jump\t// out\n        /* \"#utility.yul\":1509:1605   */\n    tag_45:\n        /* \"#utility.yul\":1546:1553   */\n      0x00\n        /* \"#utility.yul\":1575:1599   */\n      tag_71\n        /* \"#utility.yul\":1593:1598   */\n      dup3\n        /* \"#utility.yul\":1575:1599   */\n      tag_44\n      jump\t// in\n    tag_71:\n        /* \"#utility.yul\":1564:1599   */\n      swap1\n      pop\n        /* \"#utility.yul\":1509:1605   */\n      swap2\n      swap1\n      pop\n      jump\t// out\n        /* \"#utility.yul\":1611:1729   */\n    tag_46:\n        /* \"#utility.yul\":1698:1722   */\n      tag_73\n        /* \"#utility.yul\":1716:1721   */\n      dup2\n        /* \"#utility.yul\":1698:1722   */\n      tag_45\n      jump\t// in\n    tag_73:\n        /* \"#utility.yul\":1693:1696   */\n      dup3\n        /* \"#utility.yul\":1686:1723   */\n      mstore\n        /* \"#utility.yul\":1611:1729   */\n      pop\n      pop\n      jump\t// out\n        /* \"#utility.yul\":1735:2399   */\n    tag_17:\n        /* \"#utility.yul\":1940:1944   */\n      0x00\n        /* \"#utility.yul\":1978:1981   */\n      0xa0\n        /* \"#utility.yul\":1967:1976   */\n      dup3\n        /* \"#utility.yul\":1963:1982   */\n      add\n        /* \"#utility.yul\":1955:1982   */\n      swap1\n      pop\n        /* \"#utility.yul\":1992:2063   */\n      tag_75\n        /* \"#utility.yul\":2060:2061   */\n      0x00\n        /* \"#utility.yul\":2049:2058   */\n      dup4\n        /* \"#utility.yul\":2045:2062   */\n      add\n        /* \"#utility.yul\":2036:2042   */\n      dup9\n        /* \"#utility.yul\":1992:2063   */\n      tag_38\n      jump\t// in\n    tag_75:\n        /* \"#utility.yul\":2073:2145   */\n      tag_76\n        /* \"#utility.yul\":2141:2143   */\n      0x20\n        /* \"#utility.yul\":2130:2139   */\n      dup4\n        /* \"#utility.yul\":2126:2144   */\n      add\n        /* \"#utility.yul\":2117:2123   */\n      dup8\n        /* \"#utility.yul\":2073:2145   */\n      tag_38\n      jump\t// in\n    tag_76:\n        /* \"#utility.yul\":2155:2227   */\n      tag_77\n        /* \"#utility.yul\":2223:2225   */\n      0x40\n        /* \"#utility.yul\":2212:2221   */\n      dup4\n        /* \"#utility.yul\":2208:2226   */\n      add\n        /* \"#utility.yul\":2199:2205   */\n      dup7\n        /* \"#utility.yul\":2155:2227   */\n      tag_46\n      jump\t// in\n    tag_77:\n        /* \"#utility.yul\":2237:2309   */\n      tag_78\n        /* \"#utility.yul\":2305:2307   */\n      0x60\n        /* \"#utility.yul\":2294:2303   */\n      dup4\n        /* \"#utility.yul\":2290:2308   */\n      add\n        /* \"#utility.yul\":2281:2287   */\n      dup6\n        /* \"#utility.yul\":2237:2309   */\n      tag_38\n      jump\t// in\n    tag_78:\n        /* \"#utility.yul\":2319:2392   */\n      tag_79\n        /* \"#utility.yul\":2387:2390   */\n      0x80\n        /* \"#utility.yul\":2376:2385   */\n      dup4\n        /* \"#utility.yul\":2372:2391   */\n      add\n        /* \"#utility.yul\":2363:2369   */\n      dup5\n        /* \"#utility.yul\":2319:2392   */\n      tag_38\n      jump\t// in\n    tag_79:\n        /* \"#utility.yul\":1735:2399   */\n      swap7\n      swap6\n      pop\n      pop\n      pop\n      pop\n      pop\n      pop\n      jump\t// out\n        /* \"#utility.yul\":2405:2879   */\n    tag_20:\n        /* \"#utility.yul\":2473:2479   */\n      0x00\n        /* \"#utility.yul\":2481:2487   */\n      dup1\n        /* \"#utility.yul\":2530:2532   */\n      0x40\n        /* \"#utility.yul\":2518:2527   */\n      dup4\n        /* \"#utility.yul\":2509:2516   */\n      dup6\n        /* \"#utility.yul\":2505:2528   */\n      sub\n        /* \"#utility.yul\":2501:2533   */\n      slt\n        /* \"#utility.yul\":2498:2617   */\n      iszero\n      tag_81\n      jumpi\n        /* \"#utility.yul\":2536:2615   */\n      tag_82\n      tag_40\n      jump\t// in\n    tag_82:\n        /* \"#utility.yul\":2498:2617   */\n    tag_81:\n        /* \"#utility.yul\":2656:2657   */\n      0x00\n        /* \"#utility.yul\":2681:2734   */\n      tag_83\n        /* \"#utility.yul\":2726:2733   */\n      dup6\n        /* \"#utility.yul\":2717:2723   */\n      dup3\n        /* \"#utility.yul\":2706:2715   */\n      dup7\n        /* \"#utility.yul\":2702:2724   */\n      add\n        /* \"#utility.yul\":2681:2734   */\n      tag_43\n      jump\t// in\n    tag_83:\n        /* \"#utility.yul\":2671:2734   */\n      swap3\n      pop\n        /* \"#utility.yul\":2627:2744   */\n      pop\n        /* \"#utility.yul\":2783:2785   */\n      0x20\n        /* \"#utility.yul\":2809:2862   */\n      tag_84\n        /* \"#utility.yul\":2854:2861   */\n      dup6\n        /* \"#utility.yul\":2845:2851   */\n      dup3\n        /* \"#utility.yul\":2834:2843   */\n      dup7\n        /* \"#utility.yul\":2830:2852   */\n      add\n        /* \"#utility.yul\":2809:2862   */\n      tag_43\n      jump\t// in\n    tag_84:\n        /* \"#utility.yul\":2799:2862   */\n      swap2\n      pop\n        /* \"#utility.yul\":2754:2872   */\n      pop\n        /* \"#utility.yul\":2405:2879   */\n      swap3\n      pop\n      swap3\n      swap1\n      pop\n      jump\t// out\n        /* \"#utility.yul\":2885:3007   */\n    tag_47:\n        /* \"#utility.yul\":2958:2982   */\n      tag_86\n        /* \"#utility.yul\":2976:2981   */\n      dup2\n        /* \"#utility.yul\":2958:2982   */\n      tag_45\n      jump\t// in\n    tag_86:\n        /* \"#utility.yul\":2951:2956   */\n      dup2\n        /* \"#utility.yul\":2948:2983   */\n      eq\n        /* \"#utility.yul\":2938:3001   */\n      tag_87\n      jumpi\n        /* \"#utility.yul\":2997:2998   */\n      0x00\n        /* \"#utility.yul\":2994:2995   */\n      dup1\n        /* \"#utility.yul\":2987:2999   */\n      revert\n        /* \"#utility.yul\":2938:3001   */\n    tag_87:\n        /* \"#utility.yul\":2885:3007   */\n      pop\n      jump\t// out\n        /* \"#utility.yul\":3013:3152   */\n    tag_48:\n        /* \"#utility.yul\":3059:3064   */\n      0x00\n        /* \"#utility.yul\":3097:3103   */\n      dup2\n        /* \"#utility.yul\":3084:3104   */\n      calldataload\n        /* \"#utility.yul\":3075:3104   */\n      swap1\n      pop\n        /* \"#utility.yul\":3113:3146   */\n      tag_89\n        /* \"#utility.yul\":3140:3145   */\n      dup2\n        /* \"#utility.yul\":3113:3146   */\n      tag_47\n      jump\t// in\n    tag_89:\n        /* \"#utility.yul\":3013:3152   */\n      swap3\n      swap2\n      pop\n      pop\n      jump\t// out\n        /* \"#utility.yul\":3158:3777   */\n    tag_25:\n        /* \"#utility.yul\":3235:3241   */\n      0x00\n        /* \"#utility.yul\":3243:3249   */\n      dup1\n        /* \"#utility.yul\":3251:3257   */\n      0x00\n        /* \"#utility.yul\":3300:3302   */\n      0x60\n        /* \"#utility.yul\":3288:3297   */\n      dup5\n        /* \"#utility.yul\":3279:3286   */\n      dup7\n        /* \"#utility.yul\":3275:3298   */\n      sub\n        /* \"#utility.yul\":3271:3303   */\n      slt\n        /* \"#utility.yul\":3268:3387   */\n      iszero\n      tag_91\n      jumpi\n        /* \"#utility.yul\":3306:3385   */\n      tag_92\n      tag_40\n      jump\t// in\n    tag_92:\n        /* \"#utility.yul\":3268:3387   */\n    tag_91:\n        /* \"#utility.yul\":3426:3427   */\n      0x00\n        /* \"#utility.yul\":3451:3504   */\n      tag_93\n        /* \"#utility.yul\":3496:3503   */\n      dup7\n        /* \"#utility.yul\":3487:3493   */\n      dup3\n        /* \"#utility.yul\":3476:3485   */\n      dup8\n        /* \"#utility.yul\":3472:3494   */\n      add\n        /* \"#utility.yul\":3451:3504   */\n      tag_43\n      jump\t// in\n    tag_93:\n        /* \"#utility.yul\":3441:3504   */\n      swap4\n      pop\n        /* \"#utility.yul\":3397:3514   */\n      pop\n        /* \"#utility.yul\":3553:3555   */\n      0x20\n        /* \"#utility.yul\":3579:3632   */\n      tag_94\n        /* \"#utility.yul\":3624:3631   */\n      dup7\n        /* \"#utility.yul\":3615:3621   */\n      dup3\n        /* \"#utility.yul\":3604:3613   */\n      dup8\n        /* \"#utility.yul\":3600:3622   */\n      add\n        /* \"#utility.yul\":3579:3632   */\n      tag_43\n      jump\t// in\n    tag_94:\n        /* \"#utility.yul\":3569:3632   */\n      swap3\n      pop\n        /* \"#utility.yul\":3524:3642   */\n      pop\n        /* \"#utility.yul\":3681:3683   */\n      0x40\n        /* \"#utility.yul\":3707:3760   */\n      tag_95\n        /* \"#utility.yul\":3752:3759   */\n      dup7\n        /* \"#utility.yul\":3743:3749   */\n      dup3\n        /* \"#utility.yul\":3732:3741   */\n      dup8\n        /* \"#utility.yul\":3728:3750   */\n      add\n        /* \"#utility.yul\":3707:3760   */\n      tag_48\n      jump\t// in\n    tag_95:\n        /* \"#utility.yul\":3697:3760   */\n      swap2\n      pop\n        /* \"#utility.yul\":3652:3770   */\n      pop\n        /* \"#utility.yul\":3158:3777   */\n      swap3\n      pop\n      swap3\n      pop\n      swap3\n      jump\t// out\n        /* \"#utility.yul\":3783:3963   */\n    tag_49:\n        /* \"#utility.yul\":3831:3908   */\n      0x4e487b7100000000000000000000000000000000000000000000000000000000\n        /* \"#utility.yul\":3828:3829   */\n      0x00\n        /* \"#utility.yul\":3821:3909   */\n      mstore\n        /* \"#utility.yul\":3928:3932   */\n      0x11\n        /* \"#utility.yul\":3925:3926   */\n      0x04\n        /* \"#utility.yul\":3918:3933   */\n      mstore\n        /* \"#utility.yul\":3952:3956   */\n      0x24\n        /* \"#utility.yul\":3949:3950   */\n      0x00\n        /* \"#utility.yul\":3942:3957   */\n      revert\n        /* \"#utility.yul\":3969:4379   */\n    tag_29:\n        /* \"#utility.yul\":4009:4016   */\n      0x00\n        /* \"#utility.yul\":4032:4052   */\n      tag_98\n        /* \"#utility.yul\":4050:4051   */\n      dup3\n        /* \"#utility.yul\":4032:4052   */\n      tag_37\n      jump\t// in\n    tag_98:\n        /* \"#utility.yul\":4027:4052   */\n      swap2\n      pop\n        /* \"#utility.yul\":4066:4086   */\n      tag_99\n        /* \"#utility.yul\":4084:4085   */\n      dup4\n        /* \"#utility.yul\":4066:4086   */\n      tag_37\n      jump\t// in\n    tag_99:\n        /* \"#utility.yul\":4061:4086   */\n      swap3\n      pop\n        /* \"#utility.yul\":4121:4122   */\n      dup3\n        /* \"#utility.yul\":4118:4119   */\n      dup3\n        /* \"#utility.yul\":4114:4123   */\n      mul\n        /* \"#utility.yul\":4143:4173   */\n      tag_100\n        /* \"#utility.yul\":4161:4172   */\n      dup2\n        /* \"#utility.yul\":4143:4173   */\n      tag_37\n      jump\t// in\n    tag_100:\n        /* \"#utility.yul\":4132:4173   */\n      swap2\n      pop\n        /* \"#utility.yul\":4322:4323   */\n      dup3\n        /* \"#utility.yul\":4313:4320   */\n      dup3\n        /* \"#utility.yul\":4309:4324   */\n      div\n        /* \"#utility.yul\":4306:4307   */\n      dup5\n        /* \"#utility.yul\":4303:4325   */\n      eq\n        /* \"#utility.yul\":4283:4284   */\n      dup4\n        /* \"#utility.yul\":4276:4285   */\n      iszero\n        /* \"#utility.yul\":4256:4339   */\n      or\n        /* \"#utility.yul\":4233:4372   */\n      tag_101\n      jumpi\n        /* \"#utility.yul\":4352:4370   */\n      tag_102\n      tag_49\n      jump\t// in\n    tag_102:\n        /* \"#utility.yul\":4233:4372   */\n    tag_101:\n        /* \"#utility.yul\":4017:4379   */\n      pop\n        /* \"#utility.yul\":3969:4379   */\n      swap3\n      swap2\n      pop\n      pop\n      jump\t// out\n        /* \"#utility.yul\":4385:4565   */\n    tag_50:\n        /* \"#utility.yul\":4433:4510   */\n      0x4e487b7100000000000000000000000000000000000000000000000000000000\n        /* \"#utility.yul\":4430:4431   */\n      0x00\n        /* \"#utility.yul\":4423:4511   */\n      mstore\n        /* \"#utility.yul\":4530:4534   */\n      0x12\n        /* \"#utility.yul\":4527:4528   */\n      0x04\n        /* \"#utility.yul\":4520:4535   */\n      mstore\n        /* \"#utility.yul\":4554:4558   */\n      0x24\n        /* \"#utility.yul\":4551:4552   */\n      0x00\n        /* \"#utility.yul\":4544:4559   */\n      revert\n        /* \"#utility.yul\":4571:4756   */\n    tag_31:\n        /* \"#utility.yul\":4611:4612   */\n      0x00\n        /* \"#utility.yul\":4628:4648   */\n      tag_105\n        /* \"#utility.yul\":4646:4647   */\n      dup3\n        /* \"#utility.yul\":4628:4648   */\n      tag_37\n      jump\t// in\n    tag_105:\n        /* \"#utility.yul\":4623:4648   */\n      swap2\n      pop\n        /* \"#utility.yul\":4662:4682   */\n      tag_106\n        /* \"#utility.yul\":4680:4681   */\n      dup4\n        /* \"#utility.yul\":4662:4682   */\n      tag_37\n      jump\t// in\n    tag_106:\n        /* \"#utility.yul\":4657:4682   */\n      swap3\n      pop\n        /* \"#utility.yul\":4701:4702   */\n      dup3\n        /* \"#utility.yul\":4691:4726   */\n      tag_107\n      jumpi\n        /* \"#utility.yul\":4706:4724   */\n      tag_108\n      tag_50\n      jump\t// in\n    tag_108:\n        /* \"#utility.yul\":4691:4726   */\n    tag_107:\n        /* \"#utility.yul\":4748:4749   */\n      dup3\n        /* \"#utility.yul\":4745:4746   */\n      dup3\n        /* \"#utility.yul\":4741:4750   */\n      div\n        /* \"#utility.yul\":4736:4750   */\n      swap1\n      pop\n        /* \"#utility.yul\":4571:4756   */\n      swap3\n      swap2\n      pop\n      pop\n      jump\t// out\n        /* \"#utility.yul\":4762:4953   */\n    tag_33:\n        /* \"#utility.yul\":4802:4805   */\n      0x00\n        /* \"#utility.yul\":4821:4841   */\n      tag_110\n        /* \"#utility.yul\":4839:4840   */\n      dup3\n        /* \"#utility.yul\":4821:4841   */\n      tag_37\n      jump\t// in\n    tag_110:\n        /* \"#utility.yul\":4816:4841   */\n      swap2\n      pop\n        /* \"#utility.yul\":4855:4875   */\n      tag_111\n        /* \"#utility.yul\":4873:4874   */\n      dup4\n        /* \"#utility.yul\":4855:4875   */\n      tag_37\n      jump\t// in\n    tag_111:\n        /* \"#utility.yul\":4850:4875   */\n      swap3\n      pop\n        /* \"#utility.yul\":4898:4899   */\n      dup3\n        /* \"#utility.yul\":4895:4896   */\n      dup3\n        /* \"#utility.yul\":4891:4900   */\n      add\n        /* \"#utility.yul\":4884:4900   */\n      swap1\n      pop\n        /* \"#utility.yul\":4919:4922   */\n      dup1\n        /* \"#utility.yul\":4916:4917   */\n      dup3\n        /* \"#utility.yul\":4913:4923   */\n      gt\n        /* \"#utility.yul\":4910:4946   */\n      iszero\n      tag_112\n      jumpi\n        /* \"#utility.yul\":4926:4944   */\n      tag_113\n      tag_49\n      jump\t// in\n    tag_113:\n        /* \"#utility.yul\":4910:4946   */\n    tag_112:\n        /* \"#utility.yul\":4762:4953   */\n      swap3\n      swap2\n      pop\n      pop\n      jump\t// out\n        /* \"#utility.yul\":4959:5192   */\n    tag_36:\n        /* \"#utility.yul\":4998:5001   */\n      0x00\n        /* \"#utility.yul\":5021:5045   */\n      tag_115\n        /* \"#utility.yul\":5039:5044   */\n      dup3\n        /* \"#utility.yul\":5021:5045   */\n      tag_37\n      jump\t// in\n    tag_115:\n        /* \"#utility.yul\":5012:5045   */\n      swap2\n      pop\n        /* \"#utility.yul\":5067:5133   */\n      0xffffffffffffffffffffffffffffffffffffffffffffffffffffffffffffffff\n        /* \"#utility.yul\":5060:5065   */\n      dup3\n        /* \"#utility.yul\":5057:5134   */\n      sub\n        /* \"#utility.yul\":5054:5157   */\n      tag_116\n      jumpi\n        /* \"#utility.yul\":5137:5155   */\n      tag_117\n      tag_49\n      jump\t// in\n    tag_117:\n        /* \"#utility.yul\":5054:5157   */\n    tag_116:\n        /* \"#utility.yul\":5184:5185   */\n      0x01\n        /* \"#utility.yul\":5177:5182   */\n      dup3\n        /* \"#utility.yul\":5173:5186   */\n      add\n        /* \"#utility.yul\":5166:5186   */\n      swap1\n      pop\n        /* \"#utility.yul\":4959:5192   */\n      swap2\n      swap1\n      pop\n      jump\t// out\n\n    auxdata: 0xa26469706673582212204fcaf939975c411878f2129d34240d25bdafa2e41661fe5601a8b7857c57870864736f6c634300081a0033\n}\n",
				"bytecode": {
					"linkReferences": {},
					"object": "6080604052348015600e575f80fd5b506105c08061001c5f395ff3fe60806040526004361061003e575f3560e01c80632fbccc2714610042578063337908451461006c578063a5fe8a4d146100ac578063c19cb3aa146100c8575b5f80fd5b34801561004d575f80fd5b506100566100f0565b604051610063919061028b565b60405180910390f35b348015610077575f80fd5b50610092600480360381019061008d91906102d2565b6100f5565b6040516100a395949392919061033c565b60405180910390f35b6100c660048036038101906100c1919061038d565b610146565b005b3480156100d3575f80fd5b506100ee60048036038101906100e991906103f5565b610199565b005b5f5481565b6001602052805f5260405f205f91509050805f015490806001015490806002015f9054906101000a900473ffffffffffffffffffffffffffffffffffffffff16908060030154908060040154905085565b5f60015f8481526020019081526020015f2090505f606482600301548461016d9190610472565b61017791906104e0565b905080826004015f82825461018c9190610510565b9250508190555050505050565b5f808154809291906101aa90610543565b91905055506040518060a001604052805f5481526020018481526020018273ffffffffffffffffffffffffffffffffffffffff1681526020018381526020015f81525060015f805481526020019081526020015f205f820151815f0155602082015181600101556040820151816002015f6101000a81548173ffffffffffffffffffffffffffffffffffffffff021916908373ffffffffffffffffffffffffffffffffffffffff1602179055506060820151816003015560808201518160040155905050505050565b5f819050919050565b61028581610273565b82525050565b5f60208201905061029e5f83018461027c565b92915050565b5f80fd5b6102b181610273565b81146102bb575f80fd5b50565b5f813590506102cc816102a8565b92915050565b5f602082840312156102e7576102e66102a4565b5b5f6102f4848285016102be565b91505092915050565b5f73ffffffffffffffffffffffffffffffffffffffff82169050919050565b5f610326826102fd565b9050919050565b6103368161031c565b82525050565b5f60a08201905061034f5f83018861027c565b61035c602083018761027c565b610369604083018661032d565b610376606083018561027c565b610383608083018461027c565b9695505050505050565b5f80604083850312156103a3576103a26102a4565b5b5f6103b0858286016102be565b92505060206103c1858286016102be565b9150509250929050565b6103d48161031c565b81146103de575f80fd5b50565b5f813590506103ef816103cb565b92915050565b5f805f6060848603121561040c5761040b6102a4565b5b5f610419868287016102be565b935050602061042a868287016102be565b925050604061043b868287016103e1565b9150509250925092565b7f4e487b71000000000000000000000000000000000000000000000000000000005f52601160045260245ffd5b5f61047c82610273565b915061048783610273565b925082820261049581610273565b915082820484148315176104ac576104ab610445565b5b5092915050565b7f4e487b71000000000000000000000000000000000000000000000000000000005f52601260045260245ffd5b5f6104ea82610273565b91506104f583610273565b925082610505576105046104b3565b5b828204905092915050565b5f61051a82610273565b915061052583610273565b925082820190508082111561053d5761053c610445565b5b92915050565b5f61054d82610273565b91507fffffffffffffffffffffffffffffffffffffffffffffffffffffffffffffffff820361057f5761057e610445565b5b60018201905091905056fea26469706673582212204fcaf939975c411878f2129d34240d25bdafa2e41661fe5601a8b7857c57870864736f6c634300081a0033",
					"opcodes": "PUSH1 0x80 PUSH1 0x40 MSTORE CALLVALUE DUP1 ISZERO PUSH1 0xE JUMPI PUSH0 DUP1 REVERT JUMPDEST POP PUSH2 0x5C0 DUP1 PUSH2 0x1C PUSH0 CODECOPY PUSH0 RETURN INVALID PUSH1 0x80 PUSH1 0x40 MSTORE PUSH1 0x4 CALLDATASIZE LT PUSH2 0x3E JUMPI PUSH0 CALLDATALOAD PUSH1 0xE0 SHR DUP1 PUSH4 0x2FBCCC27 EQ PUSH2 0x42 JUMPI DUP1 PUSH4 0x33790845 EQ PUSH2 0x6C JUMPI DUP1 PUSH4 0xA5FE8A4D EQ PUSH2 0xAC JUMPI DUP1 PUSH4 0xC19CB3AA EQ PUSH2 0xC8 JUMPI JUMPDEST PUSH0 DUP1 REVERT JUMPDEST CALLVALUE DUP1 ISZERO PUSH2 0x4D JUMPI PUSH0 DUP1 REVERT JUMPDEST POP PUSH2 0x56 PUSH2 0xF0 JUMP JUMPDEST PUSH1 0x40 MLOAD PUSH2 0x63 SWAP2 SWAP1 PUSH2 0x28B JUMP JUMPDEST PUSH1 0x40 MLOAD DUP1 SWAP2 SUB SWAP1 RETURN JUMPDEST CALLVALUE DUP1 ISZERO PUSH2 0x77 JUMPI PUSH0 DUP1 REVERT JUMPDEST POP PUSH2 0x92 PUSH1 0x4 DUP1 CALLDATASIZE SUB DUP2 ADD SWAP1 PUSH2 0x8D SWAP2 SWAP1 PUSH2 0x2D2 JUMP JUMPDEST PUSH2 0xF5 JUMP JUMPDEST PUSH1 0x40 MLOAD PUSH2 0xA3 SWAP6 SWAP5 SWAP4 SWAP3 SWAP2 SWAP1 PUSH2 0x33C JUMP JUMPDEST PUSH1 0x40 MLOAD DUP1 SWAP2 SUB SWAP1 RETURN JUMPDEST PUSH2 0xC6 PUSH1 0x4 DUP1 CALLDATASIZE SUB DUP2 ADD SWAP1 PUSH2 0xC1 SWAP2 SWAP1 PUSH2 0x38D JUMP JUMPDEST PUSH2 0x146 JUMP JUMPDEST STOP JUMPDEST CALLVALUE DUP1 ISZERO PUSH2 0xD3 JUMPI PUSH0 DUP1 REVERT JUMPDEST POP PUSH2 0xEE PUSH1 0x4 DUP1 CALLDATASIZE SUB DUP2 ADD SWAP1 PUSH2 0xE9 SWAP2 SWAP1 PUSH2 0x3F5 JUMP JUMPDEST PUSH2 0x199 JUMP JUMPDEST STOP JUMPDEST PUSH0 SLOAD DUP2 JUMP JUMPDEST PUSH1 0x1 PUSH1 0x20 MSTORE DUP1 PUSH0 MSTORE PUSH1 0x40 PUSH0 KECCAK256 PUSH0 SWAP2 POP SWAP1 POP DUP1 PUSH0 ADD SLOAD SWAP1 DUP1 PUSH1 0x1 ADD SLOAD SWAP1 DUP1 PUSH1 0x2 ADD PUSH0 SWAP1 SLOAD SWAP1 PUSH2 0x100 EXP SWAP1 DIV PUSH20 0xFFFFFFFFFFFFFFFFFFFFFFFFFFFFFFFFFFFFFFFF AND SWAP1 DUP1 PUSH1 0x3 ADD SLOAD SWAP1 DUP1 PUSH1 0x4 ADD SLOAD SWAP1 POP DUP6 JUMP JUMPDEST PUSH0 PUSH1 0x1 PUSH0 DUP5 DUP2 MSTORE PUSH1 0x20 ADD SWAP1 DUP2 MSTORE PUSH1 0x20 ADD PUSH0 KECCAK256 SWAP1 POP PUSH0 PUSH1 0x64 DUP3 PUSH1 0x3 ADD SLOAD DUP5 PUSH2 0x16D SWAP2 SWAP1 PUSH2 0x472 JUMP JUMPDEST PUSH2 0x177 SWAP2 SWAP1 PUSH2 0x4E0 JUMP JUMPDEST SWAP1 POP DUP1 DUP3 PUSH1 0x4 ADD PUSH0 DUP3 DUP3 SLOAD PUSH2 0x18C SWAP2 SWAP1 PUSH2 0x510 JUMP JUMPDEST SWAP3 POP POP DUP2 SWAP1 SSTORE POP POP POP POP POP JUMP JUMPDEST PUSH0 DUP1 DUP2 SLOAD DUP1 SWAP3 SWAP2 SWAP1 PUSH2 0x1AA SWAP1 PUSH2 0x543 JUMP JUMPDEST SWAP2 SWAP1 POP SSTORE POP PUSH1 0x40 MLOAD DUP1 PUSH1 0xA0 ADD PUSH1 0x40 MSTORE DUP1 PUSH0 SLOAD DUP2 MSTORE PUSH1 0x20 ADD DUP5 DUP2 MSTORE PUSH1 0x20 ADD DUP3 PUSH20 0xFFFFFFFFFFFFFFFFFFFFFFFFFFFFFFFFFFFFFFFF AND DUP2 MSTORE PUSH1 0x20 ADD DUP4 DUP2 MSTORE PUSH1 0x20 ADD PUSH0 DUP2 MSTORE POP PUSH1 0x1 PUSH0 DUP1 SLOAD DUP2 MSTORE PUSH1 0x20 ADD SWAP1 DUP2 MSTORE PUSH1 0x20 ADD PUSH0 KECCAK256 PUSH0 DUP3 ADD MLOAD DUP2 PUSH0 ADD SSTORE PUSH1 0x20 DUP3 ADD MLOAD DUP2 PUSH1 0x1 ADD SSTORE PUSH1 0x40 DUP3 ADD MLOAD DUP2 PUSH1 0x2 ADD PUSH0 PUSH2 0x100 EXP DUP2 SLOAD DUP2 PUSH20 0xFFFFFFFFFFFFFFFFFFFFFFFFFFFFFFFFFFFFFFFF MUL NOT AND SWAP1 DUP4 PUSH20 0xFFFFFFFFFFFFFFFFFFFFFFFFFFFFFFFFFFFFFFFF AND MUL OR SWAP1 SSTORE POP PUSH1 0x60 DUP3 ADD MLOAD DUP2 PUSH1 0x3 ADD SSTORE PUSH1 0x80 DUP3 ADD MLOAD DUP2 PUSH1 0x4 ADD SSTORE SWAP1 POP POP POP POP POP JUMP JUMPDEST PUSH0 DUP2 SWAP1 POP SWAP2 SWAP1 POP JUMP JUMPDEST PUSH2 0x285 DUP2 PUSH2 0x273 JUMP JUMPDEST DUP3 MSTORE POP POP JUMP JUMPDEST PUSH0 PUSH1 0x20 DUP3 ADD SWAP1 POP PUSH2 0x29E PUSH0 DUP4 ADD DUP5 PUSH2 0x27C JUMP JUMPDEST SWAP3 SWAP2 POP POP JUMP JUMPDEST PUSH0 DUP1 REVERT JUMPDEST PUSH2 0x2B1 DUP2 PUSH2 0x273 JUMP JUMPDEST DUP2 EQ PUSH2 0x2BB JUMPI PUSH0 DUP1 REVERT JUMPDEST POP JUMP JUMPDEST PUSH0 DUP2 CALLDATALOAD SWAP1 POP PUSH2 0x2CC DUP2 PUSH2 0x2A8 JUMP JUMPDEST SWAP3 SWAP2 POP POP JUMP JUMPDEST PUSH0 PUSH1 0x20 DUP3 DUP5 SUB SLT ISZERO PUSH2 0x2E7 JUMPI PUSH2 0x2E6 PUSH2 0x2A4 JUMP JUMPDEST JUMPDEST PUSH0 PUSH2 0x2F4 DUP5 DUP3 DUP6 ADD PUSH2 0x2BE JUMP JUMPDEST SWAP2 POP POP SWAP3 SWAP2 POP POP JUMP JUMPDEST PUSH0 PUSH20 0xFFFFFFFFFFFFFFFFFFFFFFFFFFFFFFFFFFFFFFFF DUP3 AND SWAP1 POP SWAP2 SWAP1 POP JUMP JUMPDEST PUSH0 PUSH2 0x326 DUP3 PUSH2 0x2FD JUMP JUMPDEST SWAP1 POP SWAP2 SWAP1 POP JUMP JUMPDEST PUSH2 0x336 DUP2 PUSH2 0x31C JUMP JUMPDEST DUP3 MSTORE POP POP JUMP JUMPDEST PUSH0 PUSH1 0xA0 DUP3 ADD SWAP1 POP PUSH2 0x34F PUSH0 DUP4 ADD DUP9 PUSH2 0x27C JUMP JUMPDEST PUSH2 0x35C PUSH1 0x20 DUP4 ADD DUP8 PUSH2 0x27C JUMP JUMPDEST PUSH2 0x369 PUSH1 0x40 DUP4 ADD DUP7 PUSH2 0x32D JUMP JUMPDEST PUSH2 0x376 PUSH1 0x60 DUP4 ADD DUP6 PUSH2 0x27C JUMP JUMPDEST PUSH2 0x383 PUSH1 0x80 DUP4 ADD DUP5 PUSH2 0x27C JUMP JUMPDEST SWAP7 SWAP6 POP POP POP POP POP POP JUMP JUMPDEST PUSH0 DUP1 PUSH1 0x40 DUP4 DUP6 SUB SLT ISZERO PUSH2 0x3A3 JUMPI PUSH2 0x3A2 PUSH2 0x2A4 JUMP JUMPDEST JUMPDEST PUSH0 PUSH2 0x3B0 DUP6 DUP3 DUP7 ADD PUSH2 0x2BE JUMP JUMPDEST SWAP3 POP POP PUSH1 0x20 PUSH2 0x3C1 DUP6 DUP3 DUP7 ADD PUSH2 0x2BE JUMP JUMPDEST SWAP2 POP POP SWAP3 POP SWAP3 SWAP1 POP JUMP JUMPDEST PUSH2 0x3D4 DUP2 PUSH2 0x31C JUMP JUMPDEST DUP2 EQ PUSH2 0x3DE JUMPI PUSH0 DUP1 REVERT JUMPDEST POP JUMP JUMPDEST PUSH0 DUP2 CALLDATALOAD SWAP1 POP PUSH2 0x3EF DUP2 PUSH2 0x3CB JUMP JUMPDEST SWAP3 SWAP2 POP POP JUMP JUMPDEST PUSH0 DUP1 PUSH0 PUSH1 0x60 DUP5 DUP7 SUB SLT ISZERO PUSH2 0x40C JUMPI PUSH2 0x40B PUSH2 0x2A4 JUMP JUMPDEST JUMPDEST PUSH0 PUSH2 0x419 DUP7 DUP3 DUP8 ADD PUSH2 0x2BE JUMP JUMPDEST SWAP4 POP POP PUSH1 0x20 PUSH2 0x42A DUP7 DUP3 DUP8 ADD PUSH2 0x2BE JUMP JUMPDEST SWAP3 POP POP PUSH1 0x40 PUSH2 0x43B DUP7 DUP3 DUP8 ADD PUSH2 0x3E1 JUMP JUMPDEST SWAP2 POP POP SWAP3 POP SWAP3 POP SWAP3 JUMP JUMPDEST PUSH32 0x4E487B7100000000000000000000000000000000000000000000000000000000 PUSH0 MSTORE PUSH1 0x11 PUSH1 0x4 MSTORE PUSH1 0x24 PUSH0 REVERT JUMPDEST PUSH0 PUSH2 0x47C DUP3 PUSH2 0x273 JUMP JUMPDEST SWAP2 POP PUSH2 0x487 DUP4 PUSH2 0x273 JUMP JUMPDEST SWAP3 POP DUP3 DUP3 MUL PUSH2 0x495 DUP2 PUSH2 0x273 JUMP JUMPDEST SWAP2 POP DUP3 DUP3 DIV DUP5 EQ DUP4 ISZERO OR PUSH2 0x4AC JUMPI PUSH2 0x4AB PUSH2 0x445 JUMP JUMPDEST JUMPDEST POP SWAP3 SWAP2 POP POP JUMP JUMPDEST PUSH32 0x4E487B7100000000000000000000000000000000000000000000000000000000 PUSH0 MSTORE PUSH1 0x12 PUSH1 0x4 MSTORE PUSH1 0x24 PUSH0 REVERT JUMPDEST PUSH0 PUSH2 0x4EA DUP3 PUSH2 0x273 JUMP JUMPDEST SWAP2 POP PUSH2 0x4F5 DUP4 PUSH2 0x273 JUMP JUMPDEST SWAP3 POP DUP3 PUSH2 0x505 JUMPI PUSH2 0x504 PUSH2 0x4B3 JUMP JUMPDEST JUMPDEST DUP3 DUP3 DIV SWAP1 POP SWAP3 SWAP2 POP POP JUMP JUMPDEST PUSH0 PUSH2 0x51A DUP3 PUSH2 0x273 JUMP JUMPDEST SWAP2 POP PUSH2 0x525 DUP4 PUSH2 0x273 JUMP JUMPDEST SWAP3 POP DUP3 DUP3 ADD SWAP1 POP DUP1 DUP3 GT ISZERO PUSH2 0x53D JUMPI PUSH2 0x53C PUSH2 0x445 JUMP JUMPDEST JUMPDEST SWAP3 SWAP2 POP POP JUMP JUMPDEST PUSH0 PUSH2 0x54D DUP3 PUSH2 0x273 JUMP JUMPDEST SWAP2 POP PUSH32 0xFFFFFFFFFFFFFFFFFFFFFFFFFFFFFFFFFFFFFFFFFFFFFFFFFFFFFFFFFFFFFFFF DUP3 SUB PUSH2 0x57F JUMPI PUSH2 0x57E PUSH2 0x445 JUMP JUMPDEST JUMPDEST PUSH1 0x1 DUP3 ADD SWAP1 POP SWAP2 SWAP1 POP JUMP INVALID LOG2 PUSH5 0x6970667358 0x22 SLT KECCAK256 0x4F 0xCA 0xF9 CODECOPY SWAP8 TLOAD COINBASE XOR PUSH25 0xF2129D34240D25BDAFA2E41661FE5601A8B7857C5787086473 PUSH16 0x6C634300081A00330000000000000000 "
				},
				"gasEstimates": {
					"creation": {
						"codeDepositCost": "294400",
						"executionCost": "329",
						"totalCost": "294729"
					},
					"external": {
						"addLicense(uint256,uint256,address)": "infinite",
						"licenseCount()": "2402",
						"licenses(uint256)": "infinite",
						"payRoyalties(uint256,uint256)": "infinite"
					}
				},
				"methodIdentifiers": {
					"addLicense(uint256,uint256,address)": "c19cb3aa",
					"licenseCount()": "2fbccc27",
					"licenses(uint256)": "33790845",
					"payRoyalties(uint256,uint256)": "a5fe8a4d"
				}
			},
			"storageLayout": {
				"storage": [
					{
						"astId": 14,
						"contract": "contracts/LicenseManager.sol:LicenseManager",
						"label": "licenseCount",
						"offset": 0,
						"slot": "0",
						"type": "t_uint256"
					},
					{
						"astId": 19,
						"contract": "contracts/LicenseManager.sol:LicenseManager",
						"label": "licenses",
						"offset": 0,
						"slot": "1",
						"type": "t_mapping(t_uint256,t_struct(License)12_storage)"
					}
				],
				"types": {
					"t_address": {
						"encoding": "inplace",
						"label": "address",
						"numberOfBytes": "20"
					},
					"t_mapping(t_uint256,t_struct(License)12_storage)": {
						"encoding": "mapping",
						"key": "t_uint256",
						"label": "mapping(uint256 => struct LicenseManager.License)",
						"numberOfBytes": "32",
						"value": "t_struct(License)12_storage"
					},
					"t_struct(License)12_storage": {
						"encoding": "inplace",
						"label": "struct LicenseManager.License",
						"members": [
							{
								"astId": 3,
								"contract": "contracts/LicenseManager.sol:LicenseManager",
								"label": "licenseId",
								"offset": 0,
								"slot": "0",
								"type": "t_uint256"
							},
							{
								"astId": 5,
								"contract": "contracts/LicenseManager.sol:LicenseManager",
								"label": "patentId",
								"offset": 0,
								"slot": "1",
								"type": "t_uint256"
							},
							{
								"astId": 7,
								"contract": "contracts/LicenseManager.sol:LicenseManager",
								"label": "licensee",
								"offset": 0,
								"slot": "2",
								"type": "t_address"
							},
							{
								"astId": 9,
								"contract": "contracts/LicenseManager.sol:LicenseManager",
								"label": "royaltyPercentage",
								"offset": 0,
								"slot": "3",
								"type": "t_uint256"
							},
							{
								"astId": 11,
								"contract": "contracts/LicenseManager.sol:LicenseManager",
								"label": "royaltiesPaid",
								"offset": 0,
								"slot": "4",
								"type": "t_uint256"
							}
						],
						"numberOfBytes": "160"
					},
					"t_uint256": {
						"encoding": "inplace",
						"label": "uint256",
						"numberOfBytes": "32"
					}
				}
			},
			"userdoc": {
				"kind": "user",
				"methods": {},
				"version": 1
			}
		}
	}
}